{
  "_format": "hh-sol-artifact-1",
  "contractName": "GravityTokenV2",
  "sourceName": "contracts/GravityTokenV2.sol",
  "abi": [
    {
      "anonymous": false,
      "inputs": [
        {
          "indexed": true,
          "internalType": "address",
          "name": "owner",
          "type": "address"
        },
        {
          "indexed": true,
          "internalType": "address",
          "name": "spender",
          "type": "address"
        },
        {
          "indexed": false,
          "internalType": "uint256",
          "name": "value",
          "type": "uint256"
        }
      ],
      "name": "Approval",
      "type": "event"
    },
    {
      "anonymous": false,
      "inputs": [
        {
          "indexed": true,
          "internalType": "address",
          "name": "previousOwner",
          "type": "address"
        },
        {
          "indexed": true,
          "internalType": "address",
          "name": "newOwner",
          "type": "address"
        }
      ],
      "name": "OwnershipTransferred",
      "type": "event"
    },
    {
      "anonymous": false,
      "inputs": [
        {
          "indexed": true,
          "internalType": "address",
          "name": "from",
          "type": "address"
        },
        {
          "indexed": true,
          "internalType": "address",
          "name": "to",
          "type": "address"
        },
        {
          "indexed": false,
          "internalType": "uint256",
          "name": "value",
          "type": "uint256"
        }
      ],
      "name": "Transfer",
      "type": "event"
    },
    {
      "inputs": [
        {
          "internalType": "address",
          "name": "owner",
          "type": "address"
        },
        {
          "internalType": "address",
          "name": "spender",
          "type": "address"
        }
      ],
      "name": "allowance",
      "outputs": [
        {
          "internalType": "uint256",
          "name": "",
          "type": "uint256"
        }
      ],
      "stateMutability": "view",
      "type": "function"
    },
    {
      "inputs": [
        {
          "internalType": "address",
          "name": "spender",
          "type": "address"
        },
        {
          "internalType": "uint256",
          "name": "amount",
          "type": "uint256"
        }
      ],
      "name": "approve",
      "outputs": [
        {
          "internalType": "bool",
          "name": "",
          "type": "bool"
        }
      ],
      "stateMutability": "nonpayable",
      "type": "function"
    },
    {
      "inputs": [
        {
          "internalType": "address",
          "name": "account",
          "type": "address"
        }
      ],
      "name": "balanceOf",
      "outputs": [
        {
          "internalType": "uint256",
          "name": "",
          "type": "uint256"
        }
      ],
      "stateMutability": "view",
      "type": "function"
    },
    {
      "inputs": [],
      "name": "decimals",
      "outputs": [
        {
          "internalType": "uint8",
          "name": "",
          "type": "uint8"
        }
      ],
      "stateMutability": "view",
      "type": "function"
    },
    {
      "inputs": [
        {
          "internalType": "address",
          "name": "spender",
          "type": "address"
        },
        {
          "internalType": "uint256",
          "name": "subtractedValue",
          "type": "uint256"
        }
      ],
      "name": "decreaseAllowance",
      "outputs": [
        {
          "internalType": "bool",
          "name": "",
          "type": "bool"
        }
      ],
      "stateMutability": "nonpayable",
      "type": "function"
    },
    {
      "inputs": [
        {
          "internalType": "address",
          "name": "spender",
          "type": "address"
        },
        {
          "internalType": "uint256",
          "name": "addedValue",
          "type": "uint256"
        }
      ],
      "name": "increaseAllowance",
      "outputs": [
        {
          "internalType": "bool",
          "name": "",
          "type": "bool"
        }
      ],
      "stateMutability": "nonpayable",
      "type": "function"
    },
    {
      "inputs": [
        {
          "internalType": "string",
          "name": "name",
          "type": "string"
        },
        {
          "internalType": "string",
          "name": "symbol",
          "type": "string"
        },
        {
          "internalType": "uint256",
          "name": "initialSupply",
          "type": "uint256"
        }
      ],
      "name": "initialize",
      "outputs": [],
      "stateMutability": "nonpayable",
      "type": "function"
    },
    {
      "inputs": [
        {
          "internalType": "uint256",
          "name": "_amount",
          "type": "uint256"
        }
      ],
      "name": "mint",
      "outputs": [],
      "stateMutability": "nonpayable",
      "type": "function"
    },
    {
      "inputs": [],
      "name": "name",
      "outputs": [
        {
          "internalType": "string",
          "name": "",
          "type": "string"
        }
      ],
      "stateMutability": "view",
      "type": "function"
    },
    {
      "inputs": [],
      "name": "owner",
      "outputs": [
        {
          "internalType": "address",
          "name": "",
          "type": "address"
        }
      ],
      "stateMutability": "view",
      "type": "function"
    },
    {
      "inputs": [],
      "name": "renounceOwnership",
      "outputs": [],
      "stateMutability": "nonpayable",
      "type": "function"
    },
    {
      "inputs": [],
      "name": "symbol",
      "outputs": [
        {
          "internalType": "string",
          "name": "",
          "type": "string"
        }
      ],
      "stateMutability": "view",
      "type": "function"
    },
    {
      "inputs": [],
      "name": "totalSupply",
      "outputs": [
        {
          "internalType": "uint256",
          "name": "",
          "type": "uint256"
        }
      ],
      "stateMutability": "view",
      "type": "function"
    },
    {
      "inputs": [
        {
          "internalType": "address",
          "name": "recipient",
          "type": "address"
        },
        {
          "internalType": "uint256",
          "name": "amount",
          "type": "uint256"
        }
      ],
      "name": "transfer",
      "outputs": [
        {
          "internalType": "bool",
          "name": "",
          "type": "bool"
        }
      ],
      "stateMutability": "nonpayable",
      "type": "function"
    },
    {
      "inputs": [
        {
          "internalType": "address",
          "name": "sender",
          "type": "address"
        },
        {
          "internalType": "address",
          "name": "recipient",
          "type": "address"
        },
        {
          "internalType": "uint256",
          "name": "amount",
          "type": "uint256"
        }
      ],
      "name": "transferFrom",
      "outputs": [
        {
          "internalType": "bool",
          "name": "",
          "type": "bool"
        }
      ],
      "stateMutability": "nonpayable",
      "type": "function"
    },
    {
      "inputs": [
        {
          "internalType": "address",
          "name": "newOwner",
          "type": "address"
        }
      ],
      "name": "transferOwnership",
      "outputs": [],
      "stateMutability": "nonpayable",
      "type": "function"
    }
  ],
  "bytecode": "0x608060405234801561001057600080fd5b5061247a806100206000396000f3fe608060405234801561001057600080fd5b50600436106101005760003560e01c80638da5cb5b11610097578063a9059cbb11610066578063a9059cbb146102b1578063b119490e146102e1578063dd62ed3e146102fd578063f2fde38b1461032d57610100565b80638da5cb5b1461022957806395d89b4114610247578063a0712d6814610265578063a457c2d71461028157610100565b8063313ce567116100d3578063313ce567146101a157806339509351146101bf57806370a08231146101ef578063715018a61461021f57610100565b806306fdde0314610105578063095ea7b31461012357806318160ddd1461015357806323b872dd14610171575b600080fd5b61010d610349565b60405161011a9190611cb1565b60405180910390f35b61013d600480360381019061013891906119a1565b6103db565b60405161014a9190611c96565b60405180910390f35b61015b6103f9565b6040516101689190611e33565b60405180910390f35b61018b60048036038101906101869190611952565b610403565b6040516101989190611c96565b60405180910390f35b6101a9610504565b6040516101b69190611e4e565b60405180910390f35b6101d960048036038101906101d491906119a1565b61050d565b6040516101e69190611c96565b60405180910390f35b610209600480360381019061020491906118ed565b6105b9565b6040516102169190611e33565b60405180910390f35b610227610602565b005b61023161073f565b60405161023e9190611c7b565b60405180910390f35b61024f610769565b60405161025c9190611cb1565b60405180910390f35b61027f600480360381019061027a9190611a5c565b6107fb565b005b61029b600480360381019061029691906119a1565b61088b565b6040516102a89190611c96565b60405180910390f35b6102cb60048036038101906102c691906119a1565b61097f565b6040516102d89190611c96565b60405180910390f35b6102fb60048036038101906102f691906119dd565b61099d565b005b61031760048036038101906103129190611916565b610a9c565b6040516103249190611e33565b60405180910390f35b610347600480360381019061034291906118ed565b610b23565b005b60606036805461035890611ffc565b80601f016020809104026020016040519081016040528092919081815260200182805461038490611ffc565b80156103d15780601f106103a6576101008083540402835291602001916103d1565b820191906000526020600020905b8154815290600101906020018083116103b457829003601f168201915b5050505050905090565b60006103ef6103e8610ccf565b8484610cd7565b6001905092915050565b6000603554905090565b6000610410848484610ea2565b6000603460008673ffffffffffffffffffffffffffffffffffffffff1673ffffffffffffffffffffffffffffffffffffffff168152602001908152602001600020600061045b610ccf565b73ffffffffffffffffffffffffffffffffffffffff1673ffffffffffffffffffffffffffffffffffffffff168152602001908152602001600020549050828110156104db576040517f08c379a00000000000000000000000000000000000000000000000000000000081526004016104d290611d73565b60405180910390fd5b6104f8856104e7610ccf565b85846104f39190611f31565b610cd7565b60019150509392505050565b60006012905090565b60006105af61051a610ccf565b848460346000610528610ccf565b73ffffffffffffffffffffffffffffffffffffffff1673ffffffffffffffffffffffffffffffffffffffff16815260200190815260200160002060008873ffffffffffffffffffffffffffffffffffffffff1673ffffffffffffffffffffffffffffffffffffffff168152602001908152602001600020546105aa9190611edb565b610cd7565b6001905092915050565b6000603360008373ffffffffffffffffffffffffffffffffffffffff1673ffffffffffffffffffffffffffffffffffffffff168152602001908152602001600020549050919050565b61060a610ccf565b73ffffffffffffffffffffffffffffffffffffffff1661062861073f565b73ffffffffffffffffffffffffffffffffffffffff161461067e576040517f08c379a000000000000000000000000000000000000000000000000000000000815260040161067590611d93565b60405180910390fd5b600073ffffffffffffffffffffffffffffffffffffffff16606560009054906101000a900473ffffffffffffffffffffffffffffffffffffffff1673ffffffffffffffffffffffffffffffffffffffff167f8be0079c531659141344cd1fd0a4f28419497f9722a3daafe3b4186f6b6457e060405160405180910390a36000606560006101000a81548173ffffffffffffffffffffffffffffffffffffffff021916908373ffffffffffffffffffffffffffffffffffffffff160217905550565b6000606560009054906101000a900473ffffffffffffffffffffffffffffffffffffffff16905090565b60606037805461077890611ffc565b80601f01602080910402602001604051908101604052809291908181526020018280546107a490611ffc565b80156107f15780601f106107c6576101008083540402835291602001916107f1565b820191906000526020600020905b8154815290600101906020018083116107d457829003601f168201915b5050505050905090565b610803610ccf565b73ffffffffffffffffffffffffffffffffffffffff1661082161073f565b73ffffffffffffffffffffffffffffffffffffffff1614610877576040517f08c379a000000000000000000000000000000000000000000000000000000000815260040161086e90611d93565b60405180910390fd5b610888610882610ccf565b82611124565b50565b6000806034600061089a610ccf565b73ffffffffffffffffffffffffffffffffffffffff1673ffffffffffffffffffffffffffffffffffffffff16815260200190815260200160002060008573ffffffffffffffffffffffffffffffffffffffff1673ffffffffffffffffffffffffffffffffffffffff16815260200190815260200160002054905082811015610957576040517f08c379a000000000000000000000000000000000000000000000000000000000815260040161094e90611df3565b60405180910390fd5b610974610962610ccf565b85858461096f9190611f31565b610cd7565b600191505092915050565b600061099361098c610ccf565b8484610ea2565b6001905092915050565b600060019054906101000a900460ff16806109c3575060008054906101000a900460ff16155b610a02576040517f08c379a00000000000000000000000000000000000000000000000000000000081526004016109f990611d53565b60405180910390fd5b60008060019054906101000a900460ff161590508015610a52576001600060016101000a81548160ff02191690831515021790555060016000806101000a81548160ff0219169083151502179055505b610a5c8484611279565b610a6d610a67610ccf565b83611124565b610a75611366565b8015610a965760008060016101000a81548160ff0219169083151502179055505b50505050565b6000603460008473ffffffffffffffffffffffffffffffffffffffff1673ffffffffffffffffffffffffffffffffffffffff16815260200190815260200160002060008373ffffffffffffffffffffffffffffffffffffffff1673ffffffffffffffffffffffffffffffffffffffff16815260200190815260200160002054905092915050565b610b2b610ccf565b73ffffffffffffffffffffffffffffffffffffffff16610b4961073f565b73ffffffffffffffffffffffffffffffffffffffff1614610b9f576040517f08c379a0000000000000000000000000000000000000000000000000000000008152600401610b9690611d93565b60405180910390fd5b600073ffffffffffffffffffffffffffffffffffffffff168173ffffffffffffffffffffffffffffffffffffffff161415610c0f576040517f08c379a0000000000000000000000000000000000000000000000000000000008152600401610c0690611cf3565b60405180910390fd5b8073ffffffffffffffffffffffffffffffffffffffff16606560009054906101000a900473ffffffffffffffffffffffffffffffffffffffff1673ffffffffffffffffffffffffffffffffffffffff167f8be0079c531659141344cd1fd0a4f28419497f9722a3daafe3b4186f6b6457e060405160405180910390a380606560006101000a81548173ffffffffffffffffffffffffffffffffffffffff021916908373ffffffffffffffffffffffffffffffffffffffff16021790555050565b600033905090565b600073ffffffffffffffffffffffffffffffffffffffff168373ffffffffffffffffffffffffffffffffffffffff161415610d47576040517f08c379a0000000000000000000000000000000000000000000000000000000008152600401610d3e90611dd3565b60405180910390fd5b600073ffffffffffffffffffffffffffffffffffffffff168273ffffffffffffffffffffffffffffffffffffffff161415610db7576040517f08c379a0000000000000000000000000000000000000000000000000000000008152600401610dae90611d13565b60405180910390fd5b80603460008573ffffffffffffffffffffffffffffffffffffffff1673ffffffffffffffffffffffffffffffffffffffff16815260200190815260200160002060008473ffffffffffffffffffffffffffffffffffffffff1673ffffffffffffffffffffffffffffffffffffffff168152602001908152602001600020819055508173ffffffffffffffffffffffffffffffffffffffff168373ffffffffffffffffffffffffffffffffffffffff167f8c5be1e5ebec7d5bd14f71427d1e84f3dd0314c0f7b2291e5b200ac8c7c3b92583604051610e959190611e33565b60405180910390a3505050565b600073ffffffffffffffffffffffffffffffffffffffff168373ffffffffffffffffffffffffffffffffffffffff161415610f12576040517f08c379a0000000000000000000000000000000000000000000000000000000008152600401610f0990611db3565b60405180910390fd5b600073ffffffffffffffffffffffffffffffffffffffff168273ffffffffffffffffffffffffffffffffffffffff161415610f82576040517f08c379a0000000000000000000000000000000000000000000000000000000008152600401610f7990611cd3565b60405180910390fd5b610f8d83838361144f565b6000603360008573ffffffffffffffffffffffffffffffffffffffff1673ffffffffffffffffffffffffffffffffffffffff16815260200190815260200160002054905081811015611014576040517f08c379a000000000000000000000000000000000000000000000000000000000815260040161100b90611d33565b60405180910390fd5b81816110209190611f31565b603360008673ffffffffffffffffffffffffffffffffffffffff1673ffffffffffffffffffffffffffffffffffffffff1681526020019081526020016000208190555081603360008573ffffffffffffffffffffffffffffffffffffffff1673ffffffffffffffffffffffffffffffffffffffff16815260200190815260200160002060008282546110b29190611edb565b925050819055508273ffffffffffffffffffffffffffffffffffffffff168473ffffffffffffffffffffffffffffffffffffffff167fddf252ad1be2c89b69c2b068fc378daa952ba7f163c4a11628f55a4df523b3ef846040516111169190611e33565b60405180910390a350505050565b600073ffffffffffffffffffffffffffffffffffffffff168273ffffffffffffffffffffffffffffffffffffffff161415611194576040517f08c379a000000000000000000000000000000000000000000000000000000000815260040161118b90611e13565b60405180910390fd5b6111a06000838361144f565b80603560008282546111b29190611edb565b9250508190555080603360008473ffffffffffffffffffffffffffffffffffffffff1673ffffffffffffffffffffffffffffffffffffffff16815260200190815260200160002060008282546112089190611edb565b925050819055508173ffffffffffffffffffffffffffffffffffffffff16600073ffffffffffffffffffffffffffffffffffffffff167fddf252ad1be2c89b69c2b068fc378daa952ba7f163c4a11628f55a4df523b3ef8360405161126d9190611e33565b60405180910390a35050565b600060019054906101000a900460ff168061129f575060008054906101000a900460ff16155b6112de576040517f08c379a00000000000000000000000000000000000000000000000000000000081526004016112d590611d53565b60405180910390fd5b60008060019054906101000a900460ff16159050801561132e576001600060016101000a81548160ff02191690831515021790555060016000806101000a81548160ff0219169083151502179055505b611336611454565b611340838361152d565b80156113615760008060016101000a81548160ff0219169083151502179055505b505050565b600060019054906101000a900460ff168061138c575060008054906101000a900460ff16155b6113cb576040517f08c379a00000000000000000000000000000000000000000000000000000000081526004016113c290611d53565b60405180910390fd5b60008060019054906101000a900460ff16159050801561141b576001600060016101000a81548160ff02191690831515021790555060016000806101000a81548160ff0219169083151502179055505b611423611454565b61142b611636565b801561144c5760008060016101000a81548160ff0219169083151502179055505b50565b505050565b600060019054906101000a900460ff168061147a575060008054906101000a900460ff16155b6114b9576040517f08c379a00000000000000000000000000000000000000000000000000000000081526004016114b090611d53565b60405180910390fd5b60008060019054906101000a900460ff161590508015611509576001600060016101000a81548160ff02191690831515021790555060016000806101000a81548160ff0219169083151502179055505b801561152a5760008060016101000a81548160ff0219169083151502179055505b50565b600060019054906101000a900460ff1680611553575060008054906101000a900460ff16155b611592576040517f08c379a000000000000000000000000000000000000000000000000000000000815260040161158990611d53565b60405180910390fd5b60008060019054906101000a900460ff1615905080156115e2576001600060016101000a81548160ff02191690831515021790555060016000806101000a81548160ff0219169083151502179055505b82603690805190602001906115f89291906117b8565b50816037908051906020019061160f9291906117b8565b5080156116315760008060016101000a81548160ff0219169083151502179055505b505050565b600060019054906101000a900460ff168061165c575060008054906101000a900460ff16155b61169b576040517f08c379a000000000000000000000000000000000000000000000000000000000815260040161169290611d53565b60405180910390fd5b60008060019054906101000a900460ff1615905080156116eb576001600060016101000a81548160ff02191690831515021790555060016000806101000a81548160ff0219169083151502179055505b60006116f5610ccf565b905080606560006101000a81548173ffffffffffffffffffffffffffffffffffffffff021916908373ffffffffffffffffffffffffffffffffffffffff1602179055508073ffffffffffffffffffffffffffffffffffffffff16600073ffffffffffffffffffffffffffffffffffffffff167f8be0079c531659141344cd1fd0a4f28419497f9722a3daafe3b4186f6b6457e060405160405180910390a35080156117b55760008060016101000a81548160ff0219169083151502179055505b50565b8280546117c490611ffc565b90600052602060002090601f0160209004810192826117e6576000855561182d565b82601f106117ff57805160ff191683800117855561182d565b8280016001018555821561182d579182015b8281111561182c578251825591602001919060010190611811565b5b50905061183a919061183e565b5090565b5b8082111561185757600081600090555060010161183f565b5090565b600061186e61186984611e8e565b611e69565b90508281526020810184848401111561188657600080fd5b611891848285611fba565b509392505050565b6000813590506118a881612416565b92915050565b600082601f8301126118bf57600080fd5b81356118cf84826020860161185b565b91505092915050565b6000813590506118e78161242d565b92915050565b6000602082840312156118ff57600080fd5b600061190d84828501611899565b91505092915050565b6000806040838503121561192957600080fd5b600061193785828601611899565b925050602061194885828601611899565b9150509250929050565b60008060006060848603121561196757600080fd5b600061197586828701611899565b935050602061198686828701611899565b9250506040611997868287016118d8565b9150509250925092565b600080604083850312156119b457600080fd5b60006119c285828601611899565b92505060206119d3858286016118d8565b9150509250929050565b6000806000606084860312156119f257600080fd5b600084013567ffffffffffffffff811115611a0c57600080fd5b611a18868287016118ae565b935050602084013567ffffffffffffffff811115611a3557600080fd5b611a41868287016118ae565b9250506040611a52868287016118d8565b9150509250925092565b600060208284031215611a6e57600080fd5b6000611a7c848285016118d8565b91505092915050565b611a8e81611f65565b82525050565b611a9d81611f77565b82525050565b6000611aae82611ebf565b611ab88185611eca565b9350611ac8818560208601611fc9565b611ad1816120ec565b840191505092915050565b6000611ae9602383611eca565b9150611af4826120fd565b604082019050919050565b6000611b0c602683611eca565b9150611b178261214c565b604082019050919050565b6000611b2f602283611eca565b9150611b3a8261219b565b604082019050919050565b6000611b52602683611eca565b9150611b5d826121ea565b604082019050919050565b6000611b75602e83611eca565b9150611b8082612239565b604082019050919050565b6000611b98602883611eca565b9150611ba382612288565b604082019050919050565b6000611bbb602083611eca565b9150611bc6826122d7565b602082019050919050565b6000611bde602583611eca565b9150611be982612300565b604082019050919050565b6000611c01602483611eca565b9150611c0c8261234f565b604082019050919050565b6000611c24602583611eca565b9150611c2f8261239e565b604082019050919050565b6000611c47601f83611eca565b9150611c52826123ed565b602082019050919050565b611c6681611fa3565b82525050565b611c7581611fad565b82525050565b6000602082019050611c906000830184611a85565b92915050565b6000602082019050611cab6000830184611a94565b92915050565b60006020820190508181036000830152611ccb8184611aa3565b905092915050565b60006020820190508181036000830152611cec81611adc565b9050919050565b60006020820190508181036000830152611d0c81611aff565b9050919050565b60006020820190508181036000830152611d2c81611b22565b9050919050565b60006020820190508181036000830152611d4c81611b45565b9050919050565b60006020820190508181036000830152611d6c81611b68565b9050919050565b60006020820190508181036000830152611d8c81611b8b565b9050919050565b60006020820190508181036000830152611dac81611bae565b9050919050565b60006020820190508181036000830152611dcc81611bd1565b9050919050565b60006020820190508181036000830152611dec81611bf4565b9050919050565b60006020820190508181036000830152611e0c81611c17565b9050919050565b60006020820190508181036000830152611e2c81611c3a565b9050919050565b6000602082019050611e486000830184611c5d565b92915050565b6000602082019050611e636000830184611c6c565b92915050565b6000611e73611e84565b9050611e7f828261202e565b919050565b6000604051905090565b600067ffffffffffffffff821115611ea957611ea86120bd565b5b611eb2826120ec565b9050602081019050919050565b600081519050919050565b600082825260208201905092915050565b6000611ee682611fa3565b9150611ef183611fa3565b9250827fffffffffffffffffffffffffffffffffffffffffffffffffffffffffffffffff03821115611f2657611f2561205f565b5b828201905092915050565b6000611f3c82611fa3565b9150611f4783611fa3565b925082821015611f5a57611f5961205f565b5b828203905092915050565b6000611f7082611f83565b9050919050565b60008115159050919050565b600073ffffffffffffffffffffffffffffffffffffffff82169050919050565b6000819050919050565b600060ff82169050919050565b82818337600083830152505050565b60005b83811015611fe7578082015181840152602081019050611fcc565b83811115611ff6576000848401525b50505050565b6000600282049050600182168061201457607f821691505b602082108114156120285761202761208e565b5b50919050565b612037826120ec565b810181811067ffffffffffffffff82111715612056576120556120bd565b5b80604052505050565b7f4e487b7100000000000000000000000000000000000000000000000000000000600052601160045260246000fd5b7f4e487b7100000000000000000000000000000000000000000000000000000000600052602260045260246000fd5b7f4e487b7100000000000000000000000000000000000000000000000000000000600052604160045260246000fd5b6000601f19601f8301169050919050565b7f45524332303a207472616e7366657220746f20746865207a65726f206164647260008201527f6573730000000000000000000000000000000000000000000000000000000000602082015250565b7f4f776e61626c653a206e6577206f776e657220697320746865207a65726f206160008201527f6464726573730000000000000000000000000000000000000000000000000000602082015250565b7f45524332303a20617070726f766520746f20746865207a65726f20616464726560008201527f7373000000000000000000000000000000000000000000000000000000000000602082015250565b7f45524332303a207472616e7366657220616d6f756e742065786365656473206260008201527f616c616e63650000000000000000000000000000000000000000000000000000602082015250565b7f496e697469616c697a61626c653a20636f6e747261637420697320616c72656160008201527f647920696e697469616c697a6564000000000000000000000000000000000000602082015250565b7f45524332303a207472616e7366657220616d6f756e742065786365656473206160008201527f6c6c6f77616e6365000000000000000000000000000000000000000000000000602082015250565b7f4f776e61626c653a2063616c6c6572206973206e6f7420746865206f776e6572600082015250565b7f45524332303a207472616e736665722066726f6d20746865207a65726f20616460008201527f6472657373000000000000000000000000000000000000000000000000000000602082015250565b7f45524332303a20617070726f76652066726f6d20746865207a65726f2061646460008201527f7265737300000000000000000000000000000000000000000000000000000000602082015250565b7f45524332303a2064656372656173656420616c6c6f77616e63652062656c6f7760008201527f207a65726f000000000000000000000000000000000000000000000000000000602082015250565b7f45524332303a206d696e7420746f20746865207a65726f206164647265737300600082015250565b61241f81611f65565b811461242a57600080fd5b50565b61243681611fa3565b811461244157600080fd5b5056fea2646970667358221220b8627eb1809edca67d45185b5fae05013ffaaef3f95b2230e5841525cb67ceab64736f6c63430008030033",
  "linkReferences": {},
  "deployedLinkReferences": {}
}