{
  "_format": "hh-sol-artifact-1",
  "contractName": "GravityTokenV5",
  "sourceName": "contracts/GravityTokenV5.sol",
  "abi": [
    {
      "anonymous": false,
      "inputs": [
        {
          "indexed": true,
          "internalType": "address",
          "name": "owner",
          "type": "address"
        },
        {
          "indexed": true,
          "internalType": "address",
          "name": "spender",
          "type": "address"
        },
        {
          "indexed": false,
          "internalType": "uint256",
          "name": "value",
          "type": "uint256"
        }
      ],
      "name": "Approval",
      "type": "event"
    },
    {
      "anonymous": false,
      "inputs": [
        {
          "indexed": true,
          "internalType": "address",
          "name": "previousOwner",
          "type": "address"
        },
        {
          "indexed": true,
          "internalType": "address",
          "name": "newOwner",
          "type": "address"
        }
      ],
      "name": "OwnershipTransferred",
      "type": "event"
    },
    {
      "anonymous": false,
      "inputs": [
        {
          "indexed": true,
          "internalType": "address",
          "name": "from",
          "type": "address"
        },
        {
          "indexed": true,
          "internalType": "address",
          "name": "to",
          "type": "address"
        },
        {
          "indexed": false,
          "internalType": "uint256",
          "name": "value",
          "type": "uint256"
        }
      ],
      "name": "Transfer",
      "type": "event"
    },
    {
      "inputs": [],
      "name": "_migrationV5",
      "outputs": [
        {
          "internalType": "bool",
          "name": "",
          "type": "bool"
        }
      ],
      "stateMutability": "view",
      "type": "function"
    },
    {
      "inputs": [
        {
          "internalType": "address",
          "name": "owner",
          "type": "address"
        },
        {
          "internalType": "address",
          "name": "spender",
          "type": "address"
        }
      ],
      "name": "allowance",
      "outputs": [
        {
          "internalType": "uint256",
          "name": "",
          "type": "uint256"
        }
      ],
      "stateMutability": "view",
      "type": "function"
    },
    {
      "inputs": [
        {
          "internalType": "address",
          "name": "spender",
          "type": "address"
        },
        {
          "internalType": "uint256",
          "name": "amount",
          "type": "uint256"
        }
      ],
      "name": "approve",
      "outputs": [
        {
          "internalType": "bool",
          "name": "",
          "type": "bool"
        }
      ],
      "stateMutability": "nonpayable",
      "type": "function"
    },
    {
      "inputs": [
        {
          "internalType": "address",
          "name": "account",
          "type": "address"
        }
      ],
      "name": "balanceOf",
      "outputs": [
        {
          "internalType": "uint256",
          "name": "",
          "type": "uint256"
        }
      ],
      "stateMutability": "view",
      "type": "function"
    },
    {
      "inputs": [],
      "name": "decimals",
      "outputs": [
        {
          "internalType": "uint8",
          "name": "",
          "type": "uint8"
        }
      ],
      "stateMutability": "view",
      "type": "function"
    },
    {
      "inputs": [
        {
          "internalType": "address",
          "name": "spender",
          "type": "address"
        },
        {
          "internalType": "uint256",
          "name": "subtractedValue",
          "type": "uint256"
        }
      ],
      "name": "decreaseAllowance",
      "outputs": [
        {
          "internalType": "bool",
          "name": "",
          "type": "bool"
        }
      ],
      "stateMutability": "nonpayable",
      "type": "function"
    },
    {
      "inputs": [
        {
          "internalType": "address",
          "name": "",
          "type": "address"
        }
      ],
      "name": "feeLedger",
      "outputs": [
        {
          "internalType": "uint256",
          "name": "",
          "type": "uint256"
        }
      ],
      "stateMutability": "view",
      "type": "function"
    },
    {
      "inputs": [],
      "name": "getFees",
      "outputs": [
        {
          "internalType": "uint256",
          "name": "",
          "type": "uint256"
        }
      ],
      "stateMutability": "view",
      "type": "function"
    },
    {
      "inputs": [],
      "name": "getNum",
      "outputs": [
        {
          "internalType": "uint256",
          "name": "",
          "type": "uint256"
        }
      ],
      "stateMutability": "view",
      "type": "function"
    },
    {
      "inputs": [
        {
          "internalType": "address",
          "name": "spender",
          "type": "address"
        },
        {
          "internalType": "uint256",
          "name": "addedValue",
          "type": "uint256"
        }
      ],
      "name": "increaseAllowance",
      "outputs": [
        {
          "internalType": "bool",
          "name": "",
          "type": "bool"
        }
      ],
      "stateMutability": "nonpayable",
      "type": "function"
    },
    {
      "inputs": [
        {
          "internalType": "string",
          "name": "name",
          "type": "string"
        },
        {
          "internalType": "string",
          "name": "symbol",
          "type": "string"
        },
        {
          "internalType": "uint256",
          "name": "initialSupply",
          "type": "uint256"
        }
      ],
      "name": "initialize",
      "outputs": [],
      "stateMutability": "nonpayable",
      "type": "function"
    },
    {
      "inputs": [],
      "name": "migrationV5",
      "outputs": [],
      "stateMutability": "nonpayable",
      "type": "function"
    },
    {
      "inputs": [
        {
          "internalType": "uint256",
          "name": "_amount",
          "type": "uint256"
        }
      ],
      "name": "mint",
      "outputs": [],
      "stateMutability": "nonpayable",
      "type": "function"
    },
    {
      "inputs": [],
      "name": "myNum",
      "outputs": [
        {
          "internalType": "uint256",
          "name": "",
          "type": "uint256"
        }
      ],
      "stateMutability": "view",
      "type": "function"
    },
    {
      "inputs": [],
      "name": "name",
      "outputs": [
        {
          "internalType": "string",
          "name": "",
          "type": "string"
        }
      ],
      "stateMutability": "view",
      "type": "function"
    },
    {
      "inputs": [],
      "name": "owner",
      "outputs": [
        {
          "internalType": "address",
          "name": "",
          "type": "address"
        }
      ],
      "stateMutability": "view",
      "type": "function"
    },
    {
      "inputs": [],
      "name": "renounceOwnership",
      "outputs": [],
      "stateMutability": "nonpayable",
      "type": "function"
    },
    {
      "inputs": [],
      "name": "symbol",
      "outputs": [
        {
          "internalType": "string",
          "name": "",
          "type": "string"
        }
      ],
      "stateMutability": "view",
      "type": "function"
    },
    {
      "inputs": [],
      "name": "totalSupply",
      "outputs": [
        {
          "internalType": "uint256",
          "name": "",
          "type": "uint256"
        }
      ],
      "stateMutability": "view",
      "type": "function"
    },
    {
      "inputs": [
        {
          "internalType": "address",
          "name": "recipient",
          "type": "address"
        },
        {
          "internalType": "uint256",
          "name": "amount",
          "type": "uint256"
        }
      ],
      "name": "transfer",
      "outputs": [
        {
          "internalType": "bool",
          "name": "",
          "type": "bool"
        }
      ],
      "stateMutability": "nonpayable",
      "type": "function"
    },
    {
      "inputs": [
        {
          "internalType": "address",
          "name": "sender",
          "type": "address"
        },
        {
          "internalType": "address",
          "name": "recipient",
          "type": "address"
        },
        {
          "internalType": "uint256",
          "name": "amount",
          "type": "uint256"
        }
      ],
      "name": "transferFrom",
      "outputs": [
        {
          "internalType": "bool",
          "name": "",
          "type": "bool"
        }
      ],
      "stateMutability": "nonpayable",
      "type": "function"
    },
    {
      "inputs": [
        {
          "internalType": "address",
          "name": "newOwner",
          "type": "address"
        }
      ],
      "name": "transferOwnership",
      "outputs": [],
      "stateMutability": "nonpayable",
      "type": "function"
    }
  ],
  "bytecode": "0x608060405234801561001057600080fd5b50612793806100206000396000f3fe608060405234801561001057600080fd5b50600436106101425760003560e01c80638da5cb5b116100b8578063ad3b4bf71161007c578063ad3b4bf714610369578063b119490e14610399578063d4da005a146103b5578063db8d55f1146103d3578063dd62ed3e146103f1578063f2fde38b1461042157610142565b80638da5cb5b146102b157806395d89b41146102cf578063a0712d68146102ed578063a457c2d714610309578063a9059cbb1461033957610142565b8063395093511161010a57806339509351146102015780633e3762ba1461023157806367e0badb1461023b57806370a0823114610259578063715018a6146102895780637e2f33ea1461029357610142565b806306fdde0314610147578063095ea7b31461016557806318160ddd1461019557806323b872dd146101b3578063313ce567146101e3575b600080fd5b61014f61043d565b60405161015c9190611f81565b60405180910390f35b61017f600480360381019061017a9190611c4e565b6104cf565b60405161018c9190611f66565b60405180910390f35b61019d6104ed565b6040516101aa9190612123565b60405180910390f35b6101cd60048036038101906101c89190611bff565b6104f7565b6040516101da9190611f66565b60405180910390f35b6101eb6105f8565b6040516101f8919061213e565b60405180910390f35b61021b60048036038101906102169190611c4e565b610601565b6040516102289190611f66565b60405180910390f35b6102396106ad565b005b61024361079f565b6040516102509190612123565b60405180910390f35b610273600480360381019061026e9190611b9a565b6107a9565b6040516102809190612123565b60405180910390f35b6102916107f2565b005b61029b61092f565b6040516102a89190611f66565b60405180910390f35b6102b9610942565b6040516102c69190611f4b565b60405180910390f35b6102d761096c565b6040516102e49190611f81565b60405180910390f35b61030760048036038101906103029190611d09565b6109fe565b005b610323600480360381019061031e9190611c4e565b610a8e565b6040516103309190611f66565b60405180910390f35b610353600480360381019061034e9190611c4e565b610b82565b6040516103609190611f66565b60405180910390f35b610383600480360381019061037e9190611b9a565b610be5565b6040516103909190612123565b60405180910390f35b6103b360048036038101906103ae9190611c8a565b610bfd565b005b6103bd610cfc565b6040516103ca9190612123565b60405180910390f35b6103db610d02565b6040516103e89190612123565b60405180910390f35b61040b60048036038101906104069190611bc3565b610d49565b6040516104189190612123565b60405180910390f35b61043b60048036038101906104369190611b9a565b610dd0565b005b60606036805461044c906122ec565b80601f0160208091040260200160405190810160405280929190818152602001828054610478906122ec565b80156104c55780601f1061049a576101008083540402835291602001916104c5565b820191906000526020600020905b8154815290600101906020018083116104a857829003601f168201915b5050505050905090565b60006104e36104dc610f7c565b8484610f84565b6001905092915050565b6000603554905090565b600061050484848461114f565b6000603460008673ffffffffffffffffffffffffffffffffffffffff1673ffffffffffffffffffffffffffffffffffffffff168152602001908152602001600020600061054f610f7c565b73ffffffffffffffffffffffffffffffffffffffff1673ffffffffffffffffffffffffffffffffffffffff168152602001908152602001600020549050828110156105cf576040517f08c379a00000000000000000000000000000000000000000000000000000000081526004016105c690612063565b60405180910390fd5b6105ec856105db610f7c565b85846105e79190612221565b610f84565b60019150509392505050565b60006012905090565b60006106a361060e610f7c565b84846034600061061c610f7c565b73ffffffffffffffffffffffffffffffffffffffff1673ffffffffffffffffffffffffffffffffffffffff16815260200190815260200160002060008873ffffffffffffffffffffffffffffffffffffffff1673ffffffffffffffffffffffffffffffffffffffff1681526020019081526020016000205461069e91906121cb565b610f84565b6001905092915050565b6106b5610f7c565b73ffffffffffffffffffffffffffffffffffffffff166106d3610942565b73ffffffffffffffffffffffffffffffffffffffff1614610729576040517f08c379a000000000000000000000000000000000000000000000000000000000815260040161072090612083565b60405180910390fd5b609960009054906101000a900460ff1615610779576040517f08c379a000000000000000000000000000000000000000000000000000000000815260040161077090612003565b60405180910390fd5b6001609960006101000a81548160ff021916908315150217905550611e61609881905550565b6000609854905090565b6000603360008373ffffffffffffffffffffffffffffffffffffffff1673ffffffffffffffffffffffffffffffffffffffff168152602001908152602001600020549050919050565b6107fa610f7c565b73ffffffffffffffffffffffffffffffffffffffff16610818610942565b73ffffffffffffffffffffffffffffffffffffffff161461086e576040517f08c379a000000000000000000000000000000000000000000000000000000000815260040161086590612083565b60405180910390fd5b600073ffffffffffffffffffffffffffffffffffffffff16606560009054906101000a900473ffffffffffffffffffffffffffffffffffffffff1673ffffffffffffffffffffffffffffffffffffffff167f8be0079c531659141344cd1fd0a4f28419497f9722a3daafe3b4186f6b6457e060405160405180910390a36000606560006101000a81548173ffffffffffffffffffffffffffffffffffffffff021916908373ffffffffffffffffffffffffffffffffffffffff160217905550565b609960009054906101000a900460ff1681565b6000606560009054906101000a900473ffffffffffffffffffffffffffffffffffffffff16905090565b60606037805461097b906122ec565b80601f01602080910402602001604051908101604052809291908181526020018280546109a7906122ec565b80156109f45780601f106109c9576101008083540402835291602001916109f4565b820191906000526020600020905b8154815290600101906020018083116109d757829003601f168201915b5050505050905090565b610a06610f7c565b73ffffffffffffffffffffffffffffffffffffffff16610a24610942565b73ffffffffffffffffffffffffffffffffffffffff1614610a7a576040517f08c379a0000000000000000000000000000000000000000000000000000000008152600401610a7190612083565b60405180910390fd5b610a8b610a85610f7c565b826113d1565b50565b60008060346000610a9d610f7c565b73ffffffffffffffffffffffffffffffffffffffff1673ffffffffffffffffffffffffffffffffffffffff16815260200190815260200160002060008573ffffffffffffffffffffffffffffffffffffffff1673ffffffffffffffffffffffffffffffffffffffff16815260200190815260200160002054905082811015610b5a576040517f08c379a0000000000000000000000000000000000000000000000000000000008152600401610b51906120e3565b60405180910390fd5b610b77610b65610f7c565b858584610b729190612221565b610f84565b600191505092915050565b60006064609760003373ffffffffffffffffffffffffffffffffffffffff1673ffffffffffffffffffffffffffffffffffffffff16815260200190815260200160002081905550610bdb610bd4610f7c565b848461114f565b6001905092915050565b60976020528060005260406000206000915090505481565b600060019054906101000a900460ff1680610c23575060008054906101000a900460ff16155b610c62576040517f08c379a0000000000000000000000000000000000000000000000000000000008152600401610c5990612043565b60405180910390fd5b60008060019054906101000a900460ff161590508015610cb2576001600060016101000a81548160ff02191690831515021790555060016000806101000a81548160ff0219169083151502179055505b610cbc8484611526565b610ccd610cc7610f7c565b836113d1565b610cd5611613565b8015610cf65760008060016101000a81548160ff0219169083151502179055505b50505050565b60985481565b6000609760003373ffffffffffffffffffffffffffffffffffffffff1673ffffffffffffffffffffffffffffffffffffffff16815260200190815260200160002054905090565b6000603460008473ffffffffffffffffffffffffffffffffffffffff1673ffffffffffffffffffffffffffffffffffffffff16815260200190815260200160002060008373ffffffffffffffffffffffffffffffffffffffff1673ffffffffffffffffffffffffffffffffffffffff16815260200190815260200160002054905092915050565b610dd8610f7c565b73ffffffffffffffffffffffffffffffffffffffff16610df6610942565b73ffffffffffffffffffffffffffffffffffffffff1614610e4c576040517f08c379a0000000000000000000000000000000000000000000000000000000008152600401610e4390612083565b60405180910390fd5b600073ffffffffffffffffffffffffffffffffffffffff168173ffffffffffffffffffffffffffffffffffffffff161415610ebc576040517f08c379a0000000000000000000000000000000000000000000000000000000008152600401610eb390611fc3565b60405180910390fd5b8073ffffffffffffffffffffffffffffffffffffffff16606560009054906101000a900473ffffffffffffffffffffffffffffffffffffffff1673ffffffffffffffffffffffffffffffffffffffff167f8be0079c531659141344cd1fd0a4f28419497f9722a3daafe3b4186f6b6457e060405160405180910390a380606560006101000a81548173ffffffffffffffffffffffffffffffffffffffff021916908373ffffffffffffffffffffffffffffffffffffffff16021790555050565b600033905090565b600073ffffffffffffffffffffffffffffffffffffffff168373ffffffffffffffffffffffffffffffffffffffff161415610ff4576040517f08c379a0000000000000000000000000000000000000000000000000000000008152600401610feb906120c3565b60405180910390fd5b600073ffffffffffffffffffffffffffffffffffffffff168273ffffffffffffffffffffffffffffffffffffffff161415611064576040517f08c379a000000000000000000000000000000000000000000000000000000000815260040161105b90611fe3565b60405180910390fd5b80603460008573ffffffffffffffffffffffffffffffffffffffff1673ffffffffffffffffffffffffffffffffffffffff16815260200190815260200160002060008473ffffffffffffffffffffffffffffffffffffffff1673ffffffffffffffffffffffffffffffffffffffff168152602001908152602001600020819055508173ffffffffffffffffffffffffffffffffffffffff168373ffffffffffffffffffffffffffffffffffffffff167f8c5be1e5ebec7d5bd14f71427d1e84f3dd0314c0f7b2291e5b200ac8c7c3b925836040516111429190612123565b60405180910390a3505050565b600073ffffffffffffffffffffffffffffffffffffffff168373ffffffffffffffffffffffffffffffffffffffff1614156111bf576040517f08c379a00000000000000000000000000000000000000000000000000000000081526004016111b6906120a3565b60405180910390fd5b600073ffffffffffffffffffffffffffffffffffffffff168273ffffffffffffffffffffffffffffffffffffffff16141561122f576040517f08c379a000000000000000000000000000000000000000000000000000000000815260040161122690611fa3565b60405180910390fd5b61123a8383836116fc565b6000603360008573ffffffffffffffffffffffffffffffffffffffff1673ffffffffffffffffffffffffffffffffffffffff168152602001908152602001600020549050818110156112c1576040517f08c379a00000000000000000000000000000000000000000000000000000000081526004016112b890612023565b60405180910390fd5b81816112cd9190612221565b603360008673ffffffffffffffffffffffffffffffffffffffff1673ffffffffffffffffffffffffffffffffffffffff1681526020019081526020016000208190555081603360008573ffffffffffffffffffffffffffffffffffffffff1673ffffffffffffffffffffffffffffffffffffffff168152602001908152602001600020600082825461135f91906121cb565b925050819055508273ffffffffffffffffffffffffffffffffffffffff168473ffffffffffffffffffffffffffffffffffffffff167fddf252ad1be2c89b69c2b068fc378daa952ba7f163c4a11628f55a4df523b3ef846040516113c39190612123565b60405180910390a350505050565b600073ffffffffffffffffffffffffffffffffffffffff168273ffffffffffffffffffffffffffffffffffffffff161415611441576040517f08c379a000000000000000000000000000000000000000000000000000000000815260040161143890612103565b60405180910390fd5b61144d600083836116fc565b806035600082825461145f91906121cb565b9250508190555080603360008473ffffffffffffffffffffffffffffffffffffffff1673ffffffffffffffffffffffffffffffffffffffff16815260200190815260200160002060008282546114b591906121cb565b925050819055508173ffffffffffffffffffffffffffffffffffffffff16600073ffffffffffffffffffffffffffffffffffffffff167fddf252ad1be2c89b69c2b068fc378daa952ba7f163c4a11628f55a4df523b3ef8360405161151a9190612123565b60405180910390a35050565b600060019054906101000a900460ff168061154c575060008054906101000a900460ff16155b61158b576040517f08c379a000000000000000000000000000000000000000000000000000000000815260040161158290612043565b60405180910390fd5b60008060019054906101000a900460ff1615905080156115db576001600060016101000a81548160ff02191690831515021790555060016000806101000a81548160ff0219169083151502179055505b6115e3611701565b6115ed83836117da565b801561160e5760008060016101000a81548160ff0219169083151502179055505b505050565b600060019054906101000a900460ff1680611639575060008054906101000a900460ff16155b611678576040517f08c379a000000000000000000000000000000000000000000000000000000000815260040161166f90612043565b60405180910390fd5b60008060019054906101000a900460ff1615905080156116c8576001600060016101000a81548160ff02191690831515021790555060016000806101000a81548160ff0219169083151502179055505b6116d0611701565b6116d86118e3565b80156116f95760008060016101000a81548160ff0219169083151502179055505b50565b505050565b600060019054906101000a900460ff1680611727575060008054906101000a900460ff16155b611766576040517f08c379a000000000000000000000000000000000000000000000000000000000815260040161175d90612043565b60405180910390fd5b60008060019054906101000a900460ff1615905080156117b6576001600060016101000a81548160ff02191690831515021790555060016000806101000a81548160ff0219169083151502179055505b80156117d75760008060016101000a81548160ff0219169083151502179055505b50565b600060019054906101000a900460ff1680611800575060008054906101000a900460ff16155b61183f576040517f08c379a000000000000000000000000000000000000000000000000000000000815260040161183690612043565b60405180910390fd5b60008060019054906101000a900460ff16159050801561188f576001600060016101000a81548160ff02191690831515021790555060016000806101000a81548160ff0219169083151502179055505b82603690805190602001906118a5929190611a65565b5081603790805190602001906118bc929190611a65565b5080156118de5760008060016101000a81548160ff0219169083151502179055505b505050565b600060019054906101000a900460ff1680611909575060008054906101000a900460ff16155b611948576040517f08c379a000000000000000000000000000000000000000000000000000000000815260040161193f90612043565b60405180910390fd5b60008060019054906101000a900460ff161590508015611998576001600060016101000a81548160ff02191690831515021790555060016000806101000a81548160ff0219169083151502179055505b60006119a2610f7c565b905080606560006101000a81548173ffffffffffffffffffffffffffffffffffffffff021916908373ffffffffffffffffffffffffffffffffffffffff1602179055508073ffffffffffffffffffffffffffffffffffffffff16600073ffffffffffffffffffffffffffffffffffffffff167f8be0079c531659141344cd1fd0a4f28419497f9722a3daafe3b4186f6b6457e060405160405180910390a3508015611a625760008060016101000a81548160ff0219169083151502179055505b50565b828054611a71906122ec565b90600052602060002090601f016020900481019282611a935760008555611ada565b82601f10611aac57805160ff1916838001178555611ada565b82800160010185558215611ada579182015b82811115611ad9578251825591602001919060010190611abe565b5b509050611ae79190611aeb565b5090565b5b80821115611b04576000816000905550600101611aec565b5090565b6000611b1b611b168461217e565b612159565b905082815260208101848484011115611b3357600080fd5b611b3e8482856122aa565b509392505050565b600081359050611b558161272f565b92915050565b600082601f830112611b6c57600080fd5b8135611b7c848260208601611b08565b91505092915050565b600081359050611b9481612746565b92915050565b600060208284031215611bac57600080fd5b6000611bba84828501611b46565b91505092915050565b60008060408385031215611bd657600080fd5b6000611be485828601611b46565b9250506020611bf585828601611b46565b9150509250929050565b600080600060608486031215611c1457600080fd5b6000611c2286828701611b46565b9350506020611c3386828701611b46565b9250506040611c4486828701611b85565b9150509250925092565b60008060408385031215611c6157600080fd5b6000611c6f85828601611b46565b9250506020611c8085828601611b85565b9150509250929050565b600080600060608486031215611c9f57600080fd5b600084013567ffffffffffffffff811115611cb957600080fd5b611cc586828701611b5b565b935050602084013567ffffffffffffffff811115611ce257600080fd5b611cee86828701611b5b565b9250506040611cff86828701611b85565b9150509250925092565b600060208284031215611d1b57600080fd5b6000611d2984828501611b85565b91505092915050565b611d3b81612255565b82525050565b611d4a81612267565b82525050565b6000611d5b826121af565b611d6581856121ba565b9350611d758185602086016122b9565b611d7e816123dc565b840191505092915050565b6000611d966023836121ba565b9150611da1826123ed565b604082019050919050565b6000611db96026836121ba565b9150611dc48261243c565b604082019050919050565b6000611ddc6022836121ba565b9150611de78261248b565b604082019050919050565b6000611dff601e836121ba565b9150611e0a826124da565b602082019050919050565b6000611e226026836121ba565b9150611e2d82612503565b604082019050919050565b6000611e45602e836121ba565b9150611e5082612552565b604082019050919050565b6000611e686028836121ba565b9150611e73826125a1565b604082019050919050565b6000611e8b6020836121ba565b9150611e96826125f0565b602082019050919050565b6000611eae6025836121ba565b9150611eb982612619565b604082019050919050565b6000611ed16024836121ba565b9150611edc82612668565b604082019050919050565b6000611ef46025836121ba565b9150611eff826126b7565b604082019050919050565b6000611f17601f836121ba565b9150611f2282612706565b602082019050919050565b611f3681612293565b82525050565b611f458161229d565b82525050565b6000602082019050611f606000830184611d32565b92915050565b6000602082019050611f7b6000830184611d41565b92915050565b60006020820190508181036000830152611f9b8184611d50565b905092915050565b60006020820190508181036000830152611fbc81611d89565b9050919050565b60006020820190508181036000830152611fdc81611dac565b9050919050565b60006020820190508181036000830152611ffc81611dcf565b9050919050565b6000602082019050818103600083015261201c81611df2565b9050919050565b6000602082019050818103600083015261203c81611e15565b9050919050565b6000602082019050818103600083015261205c81611e38565b9050919050565b6000602082019050818103600083015261207c81611e5b565b9050919050565b6000602082019050818103600083015261209c81611e7e565b9050919050565b600060208201905081810360008301526120bc81611ea1565b9050919050565b600060208201905081810360008301526120dc81611ec4565b9050919050565b600060208201905081810360008301526120fc81611ee7565b9050919050565b6000602082019050818103600083015261211c81611f0a565b9050919050565b60006020820190506121386000830184611f2d565b92915050565b60006020820190506121536000830184611f3c565b92915050565b6000612163612174565b905061216f828261231e565b919050565b6000604051905090565b600067ffffffffffffffff821115612199576121986123ad565b5b6121a2826123dc565b9050602081019050919050565b600081519050919050565b600082825260208201905092915050565b60006121d682612293565b91506121e183612293565b9250827fffffffffffffffffffffffffffffffffffffffffffffffffffffffffffffffff038211156122165761221561234f565b5b828201905092915050565b600061222c82612293565b915061223783612293565b92508282101561224a5761224961234f565b5b828203905092915050565b600061226082612273565b9050919050565b60008115159050919050565b600073ffffffffffffffffffffffffffffffffffffffff82169050919050565b6000819050919050565b600060ff82169050919050565b82818337600083830152505050565b60005b838110156122d75780820151818401526020810190506122bc565b838111156122e6576000848401525b50505050565b6000600282049050600182168061230457607f821691505b602082108114156123185761231761237e565b5b50919050565b612327826123dc565b810181811067ffffffffffffffff82111715612346576123456123ad565b5b80604052505050565b7f4e487b7100000000000000000000000000000000000000000000000000000000600052601160045260246000fd5b7f4e487b7100000000000000000000000000000000000000000000000000000000600052602260045260246000fd5b7f4e487b7100000000000000000000000000000000000000000000000000000000600052604160045260246000fd5b6000601f19601f8301169050919050565b7f45524332303a207472616e7366657220746f20746865207a65726f206164647260008201527f6573730000000000000000000000000000000000000000000000000000000000602082015250565b7f4f776e61626c653a206e6577206f776e657220697320746865207a65726f206160008201527f6464726573730000000000000000000000000000000000000000000000000000602082015250565b7f45524332303a20617070726f766520746f20746865207a65726f20616464726560008201527f7373000000000000000000000000000000000000000000000000000000000000602082015250565b7f4d6967726174696f6e2056353a20416c7265616479204d696772617465640000600082015250565b7f45524332303a207472616e7366657220616d6f756e742065786365656473206260008201527f616c616e63650000000000000000000000000000000000000000000000000000602082015250565b7f496e697469616c697a61626c653a20636f6e747261637420697320616c72656160008201527f647920696e697469616c697a6564000000000000000000000000000000000000602082015250565b7f45524332303a207472616e7366657220616d6f756e742065786365656473206160008201527f6c6c6f77616e6365000000000000000000000000000000000000000000000000602082015250565b7f4f776e61626c653a2063616c6c6572206973206e6f7420746865206f776e6572600082015250565b7f45524332303a207472616e736665722066726f6d20746865207a65726f20616460008201527f6472657373000000000000000000000000000000000000000000000000000000602082015250565b7f45524332303a20617070726f76652066726f6d20746865207a65726f2061646460008201527f7265737300000000000000000000000000000000000000000000000000000000602082015250565b7f45524332303a2064656372656173656420616c6c6f77616e63652062656c6f7760008201527f207a65726f000000000000000000000000000000000000000000000000000000602082015250565b7f45524332303a206d696e7420746f20746865207a65726f206164647265737300600082015250565b61273881612255565b811461274357600080fd5b50565b61274f81612293565b811461275a57600080fd5b5056fea26469706673582212203081d3cf0b69256095db3b599ca9ef1b4bdd56f9664000172b4200934081e44764736f6c63430008030033",
  "linkReferences": {},
  "deployedLinkReferences": {}
}