{
  "_format": "hh-sol-artifact-1",
  "contractName": "GravityTokenV3",
  "sourceName": "contracts/GravityTokenV3.sol",
  "abi": [
    {
      "anonymous": false,
      "inputs": [
        {
          "indexed": true,
          "internalType": "address",
          "name": "owner",
          "type": "address"
        },
        {
          "indexed": true,
          "internalType": "address",
          "name": "spender",
          "type": "address"
        },
        {
          "indexed": false,
          "internalType": "uint256",
          "name": "value",
          "type": "uint256"
        }
      ],
      "name": "Approval",
      "type": "event"
    },
    {
      "anonymous": false,
      "inputs": [
        {
          "indexed": true,
          "internalType": "address",
          "name": "previousOwner",
          "type": "address"
        },
        {
          "indexed": true,
          "internalType": "address",
          "name": "newOwner",
          "type": "address"
        }
      ],
      "name": "OwnershipTransferred",
      "type": "event"
    },
    {
      "anonymous": false,
      "inputs": [
        {
          "indexed": true,
          "internalType": "address",
          "name": "from",
          "type": "address"
        },
        {
          "indexed": true,
          "internalType": "address",
          "name": "to",
          "type": "address"
        },
        {
          "indexed": false,
          "internalType": "uint256",
          "name": "value",
          "type": "uint256"
        }
      ],
      "name": "Transfer",
      "type": "event"
    },
    {
      "inputs": [
        {
          "internalType": "address",
          "name": "owner",
          "type": "address"
        },
        {
          "internalType": "address",
          "name": "spender",
          "type": "address"
        }
      ],
      "name": "allowance",
      "outputs": [
        {
          "internalType": "uint256",
          "name": "",
          "type": "uint256"
        }
      ],
      "stateMutability": "view",
      "type": "function"
    },
    {
      "inputs": [
        {
          "internalType": "address",
          "name": "spender",
          "type": "address"
        },
        {
          "internalType": "uint256",
          "name": "amount",
          "type": "uint256"
        }
      ],
      "name": "approve",
      "outputs": [
        {
          "internalType": "bool",
          "name": "",
          "type": "bool"
        }
      ],
      "stateMutability": "nonpayable",
      "type": "function"
    },
    {
      "inputs": [
        {
          "internalType": "address",
          "name": "account",
          "type": "address"
        }
      ],
      "name": "balanceOf",
      "outputs": [
        {
          "internalType": "uint256",
          "name": "",
          "type": "uint256"
        }
      ],
      "stateMutability": "view",
      "type": "function"
    },
    {
      "inputs": [],
      "name": "decimals",
      "outputs": [
        {
          "internalType": "uint8",
          "name": "",
          "type": "uint8"
        }
      ],
      "stateMutability": "view",
      "type": "function"
    },
    {
      "inputs": [
        {
          "internalType": "address",
          "name": "spender",
          "type": "address"
        },
        {
          "internalType": "uint256",
          "name": "subtractedValue",
          "type": "uint256"
        }
      ],
      "name": "decreaseAllowance",
      "outputs": [
        {
          "internalType": "bool",
          "name": "",
          "type": "bool"
        }
      ],
      "stateMutability": "nonpayable",
      "type": "function"
    },
    {
      "inputs": [
        {
          "internalType": "address",
          "name": "",
          "type": "address"
        }
      ],
      "name": "feeLedger",
      "outputs": [
        {
          "internalType": "uint256",
          "name": "",
          "type": "uint256"
        }
      ],
      "stateMutability": "view",
      "type": "function"
    },
    {
      "inputs": [
        {
          "internalType": "address",
          "name": "spender",
          "type": "address"
        },
        {
          "internalType": "uint256",
          "name": "addedValue",
          "type": "uint256"
        }
      ],
      "name": "increaseAllowance",
      "outputs": [
        {
          "internalType": "bool",
          "name": "",
          "type": "bool"
        }
      ],
      "stateMutability": "nonpayable",
      "type": "function"
    },
    {
      "inputs": [
        {
          "internalType": "string",
          "name": "name",
          "type": "string"
        },
        {
          "internalType": "string",
          "name": "symbol",
          "type": "string"
        },
        {
          "internalType": "uint256",
          "name": "initialSupply",
          "type": "uint256"
        }
      ],
      "name": "initialize",
      "outputs": [],
      "stateMutability": "nonpayable",
      "type": "function"
    },
    {
      "inputs": [
        {
          "internalType": "uint256",
          "name": "_amount",
          "type": "uint256"
        }
      ],
      "name": "mint",
      "outputs": [],
      "stateMutability": "nonpayable",
      "type": "function"
    },
    {
      "inputs": [],
      "name": "name",
      "outputs": [
        {
          "internalType": "string",
          "name": "",
          "type": "string"
        }
      ],
      "stateMutability": "view",
      "type": "function"
    },
    {
      "inputs": [],
      "name": "owner",
      "outputs": [
        {
          "internalType": "address",
          "name": "",
          "type": "address"
        }
      ],
      "stateMutability": "view",
      "type": "function"
    },
    {
      "inputs": [],
      "name": "renounceOwnership",
      "outputs": [],
      "stateMutability": "nonpayable",
      "type": "function"
    },
    {
      "inputs": [],
      "name": "symbol",
      "outputs": [
        {
          "internalType": "string",
          "name": "",
          "type": "string"
        }
      ],
      "stateMutability": "view",
      "type": "function"
    },
    {
      "inputs": [],
      "name": "totalSupply",
      "outputs": [
        {
          "internalType": "uint256",
          "name": "",
          "type": "uint256"
        }
      ],
      "stateMutability": "view",
      "type": "function"
    },
    {
      "inputs": [
        {
          "internalType": "address",
          "name": "recipient",
          "type": "address"
        },
        {
          "internalType": "uint256",
          "name": "amount",
          "type": "uint256"
        }
      ],
      "name": "transfer",
      "outputs": [
        {
          "internalType": "bool",
          "name": "",
          "type": "bool"
        }
      ],
      "stateMutability": "nonpayable",
      "type": "function"
    },
    {
      "inputs": [
        {
          "internalType": "address",
          "name": "sender",
          "type": "address"
        },
        {
          "internalType": "address",
          "name": "recipient",
          "type": "address"
        },
        {
          "internalType": "uint256",
          "name": "amount",
          "type": "uint256"
        }
      ],
      "name": "transferFrom",
      "outputs": [
        {
          "internalType": "bool",
          "name": "",
          "type": "bool"
        }
      ],
      "stateMutability": "nonpayable",
      "type": "function"
    },
    {
      "inputs": [
        {
          "internalType": "address",
          "name": "newOwner",
          "type": "address"
        }
      ],
      "name": "transferOwnership",
      "outputs": [],
      "stateMutability": "nonpayable",
      "type": "function"
    }
  ],
  "bytecode": "0x608060405234801561001057600080fd5b50612512806100206000396000f3fe608060405234801561001057600080fd5b506004361061010b5760003560e01c80638da5cb5b116100a2578063a9059cbb11610071578063a9059cbb146102bc578063ad3b4bf7146102ec578063b119490e1461031c578063dd62ed3e14610338578063f2fde38b146103685761010b565b80638da5cb5b1461023457806395d89b4114610252578063a0712d6814610270578063a457c2d71461028c5761010b565b8063313ce567116100de578063313ce567146101ac57806339509351146101ca57806370a08231146101fa578063715018a61461022a5761010b565b806306fdde0314610110578063095ea7b31461012e57806318160ddd1461015e57806323b872dd1461017c575b600080fd5b610118610384565b6040516101259190611d49565b60405180910390f35b61014860048036038101906101439190611a39565b610416565b6040516101559190611d2e565b60405180910390f35b610166610434565b6040516101739190611ecb565b60405180910390f35b610196600480360381019061019191906119ea565b61043e565b6040516101a39190611d2e565b60405180910390f35b6101b461053f565b6040516101c19190611ee6565b60405180910390f35b6101e460048036038101906101df9190611a39565b610548565b6040516101f19190611d2e565b60405180910390f35b610214600480360381019061020f9190611985565b6105f4565b6040516102219190611ecb565b60405180910390f35b61023261063d565b005b61023c61077a565b6040516102499190611d13565b60405180910390f35b61025a6107a4565b6040516102679190611d49565b60405180910390f35b61028a60048036038101906102859190611af4565b610836565b005b6102a660048036038101906102a19190611a39565b6108c6565b6040516102b39190611d2e565b60405180910390f35b6102d660048036038101906102d19190611a39565b6109ba565b6040516102e39190611d2e565b60405180910390f35b61030660048036038101906103019190611985565b610a1d565b6040516103139190611ecb565b60405180910390f35b61033660048036038101906103319190611a75565b610a35565b005b610352600480360381019061034d91906119ae565b610b34565b60405161035f9190611ecb565b60405180910390f35b610382600480360381019061037d9190611985565b610bbb565b005b60606036805461039390612094565b80601f01602080910402602001604051908101604052809291908181526020018280546103bf90612094565b801561040c5780601f106103e15761010080835404028352916020019161040c565b820191906000526020600020905b8154815290600101906020018083116103ef57829003601f168201915b5050505050905090565b600061042a610423610d67565b8484610d6f565b6001905092915050565b6000603554905090565b600061044b848484610f3a565b6000603460008673ffffffffffffffffffffffffffffffffffffffff1673ffffffffffffffffffffffffffffffffffffffff1681526020019081526020016000206000610496610d67565b73ffffffffffffffffffffffffffffffffffffffff1673ffffffffffffffffffffffffffffffffffffffff16815260200190815260200160002054905082811015610516576040517f08c379a000000000000000000000000000000000000000000000000000000000815260040161050d90611e0b565b60405180910390fd5b61053385610522610d67565b858461052e9190611fc9565b610d6f565b60019150509392505050565b60006012905090565b60006105ea610555610d67565b848460346000610563610d67565b73ffffffffffffffffffffffffffffffffffffffff1673ffffffffffffffffffffffffffffffffffffffff16815260200190815260200160002060008873ffffffffffffffffffffffffffffffffffffffff1673ffffffffffffffffffffffffffffffffffffffff168152602001908152602001600020546105e59190611f73565b610d6f565b6001905092915050565b6000603360008373ffffffffffffffffffffffffffffffffffffffff1673ffffffffffffffffffffffffffffffffffffffff168152602001908152602001600020549050919050565b610645610d67565b73ffffffffffffffffffffffffffffffffffffffff1661066361077a565b73ffffffffffffffffffffffffffffffffffffffff16146106b9576040517f08c379a00000000000000000000000000000000000000000000000000000000081526004016106b090611e2b565b60405180910390fd5b600073ffffffffffffffffffffffffffffffffffffffff16606560009054906101000a900473ffffffffffffffffffffffffffffffffffffffff1673ffffffffffffffffffffffffffffffffffffffff167f8be0079c531659141344cd1fd0a4f28419497f9722a3daafe3b4186f6b6457e060405160405180910390a36000606560006101000a81548173ffffffffffffffffffffffffffffffffffffffff021916908373ffffffffffffffffffffffffffffffffffffffff160217905550565b6000606560009054906101000a900473ffffffffffffffffffffffffffffffffffffffff16905090565b6060603780546107b390612094565b80601f01602080910402602001604051908101604052809291908181526020018280546107df90612094565b801561082c5780601f106108015761010080835404028352916020019161082c565b820191906000526020600020905b81548152906001019060200180831161080f57829003601f168201915b5050505050905090565b61083e610d67565b73ffffffffffffffffffffffffffffffffffffffff1661085c61077a565b73ffffffffffffffffffffffffffffffffffffffff16146108b2576040517f08c379a00000000000000000000000000000000000000000000000000000000081526004016108a990611e2b565b60405180910390fd5b6108c36108bd610d67565b826111bc565b50565b600080603460006108d5610d67565b73ffffffffffffffffffffffffffffffffffffffff1673ffffffffffffffffffffffffffffffffffffffff16815260200190815260200160002060008573ffffffffffffffffffffffffffffffffffffffff1673ffffffffffffffffffffffffffffffffffffffff16815260200190815260200160002054905082811015610992576040517f08c379a000000000000000000000000000000000000000000000000000000000815260040161098990611e8b565b60405180910390fd5b6109af61099d610d67565b8585846109aa9190611fc9565b610d6f565b600191505092915050565b60006064609760003373ffffffffffffffffffffffffffffffffffffffff1673ffffffffffffffffffffffffffffffffffffffff16815260200190815260200160002081905550610a13610a0c610d67565b8484610f3a565b6001905092915050565b60976020528060005260406000206000915090505481565b600060019054906101000a900460ff1680610a5b575060008054906101000a900460ff16155b610a9a576040517f08c379a0000000000000000000000000000000000000000000000000000000008152600401610a9190611deb565b60405180910390fd5b60008060019054906101000a900460ff161590508015610aea576001600060016101000a81548160ff02191690831515021790555060016000806101000a81548160ff0219169083151502179055505b610af48484611311565b610b05610aff610d67565b836111bc565b610b0d6113fe565b8015610b2e5760008060016101000a81548160ff0219169083151502179055505b50505050565b6000603460008473ffffffffffffffffffffffffffffffffffffffff1673ffffffffffffffffffffffffffffffffffffffff16815260200190815260200160002060008373ffffffffffffffffffffffffffffffffffffffff1673ffffffffffffffffffffffffffffffffffffffff16815260200190815260200160002054905092915050565b610bc3610d67565b73ffffffffffffffffffffffffffffffffffffffff16610be161077a565b73ffffffffffffffffffffffffffffffffffffffff1614610c37576040517f08c379a0000000000000000000000000000000000000000000000000000000008152600401610c2e90611e2b565b60405180910390fd5b600073ffffffffffffffffffffffffffffffffffffffff168173ffffffffffffffffffffffffffffffffffffffff161415610ca7576040517f08c379a0000000000000000000000000000000000000000000000000000000008152600401610c9e90611d8b565b60405180910390fd5b8073ffffffffffffffffffffffffffffffffffffffff16606560009054906101000a900473ffffffffffffffffffffffffffffffffffffffff1673ffffffffffffffffffffffffffffffffffffffff167f8be0079c531659141344cd1fd0a4f28419497f9722a3daafe3b4186f6b6457e060405160405180910390a380606560006101000a81548173ffffffffffffffffffffffffffffffffffffffff021916908373ffffffffffffffffffffffffffffffffffffffff16021790555050565b600033905090565b600073ffffffffffffffffffffffffffffffffffffffff168373ffffffffffffffffffffffffffffffffffffffff161415610ddf576040517f08c379a0000000000000000000000000000000000000000000000000000000008152600401610dd690611e6b565b60405180910390fd5b600073ffffffffffffffffffffffffffffffffffffffff168273ffffffffffffffffffffffffffffffffffffffff161415610e4f576040517f08c379a0000000000000000000000000000000000000000000000000000000008152600401610e4690611dab565b60405180910390fd5b80603460008573ffffffffffffffffffffffffffffffffffffffff1673ffffffffffffffffffffffffffffffffffffffff16815260200190815260200160002060008473ffffffffffffffffffffffffffffffffffffffff1673ffffffffffffffffffffffffffffffffffffffff168152602001908152602001600020819055508173ffffffffffffffffffffffffffffffffffffffff168373ffffffffffffffffffffffffffffffffffffffff167f8c5be1e5ebec7d5bd14f71427d1e84f3dd0314c0f7b2291e5b200ac8c7c3b92583604051610f2d9190611ecb565b60405180910390a3505050565b600073ffffffffffffffffffffffffffffffffffffffff168373ffffffffffffffffffffffffffffffffffffffff161415610faa576040517f08c379a0000000000000000000000000000000000000000000000000000000008152600401610fa190611e4b565b60405180910390fd5b600073ffffffffffffffffffffffffffffffffffffffff168273ffffffffffffffffffffffffffffffffffffffff16141561101a576040517f08c379a000000000000000000000000000000000000000000000000000000000815260040161101190611d6b565b60405180910390fd5b6110258383836114e7565b6000603360008573ffffffffffffffffffffffffffffffffffffffff1673ffffffffffffffffffffffffffffffffffffffff168152602001908152602001600020549050818110156110ac576040517f08c379a00000000000000000000000000000000000000000000000000000000081526004016110a390611dcb565b60405180910390fd5b81816110b89190611fc9565b603360008673ffffffffffffffffffffffffffffffffffffffff1673ffffffffffffffffffffffffffffffffffffffff1681526020019081526020016000208190555081603360008573ffffffffffffffffffffffffffffffffffffffff1673ffffffffffffffffffffffffffffffffffffffff168152602001908152602001600020600082825461114a9190611f73565b925050819055508273ffffffffffffffffffffffffffffffffffffffff168473ffffffffffffffffffffffffffffffffffffffff167fddf252ad1be2c89b69c2b068fc378daa952ba7f163c4a11628f55a4df523b3ef846040516111ae9190611ecb565b60405180910390a350505050565b600073ffffffffffffffffffffffffffffffffffffffff168273ffffffffffffffffffffffffffffffffffffffff16141561122c576040517f08c379a000000000000000000000000000000000000000000000000000000000815260040161122390611eab565b60405180910390fd5b611238600083836114e7565b806035600082825461124a9190611f73565b9250508190555080603360008473ffffffffffffffffffffffffffffffffffffffff1673ffffffffffffffffffffffffffffffffffffffff16815260200190815260200160002060008282546112a09190611f73565b925050819055508173ffffffffffffffffffffffffffffffffffffffff16600073ffffffffffffffffffffffffffffffffffffffff167fddf252ad1be2c89b69c2b068fc378daa952ba7f163c4a11628f55a4df523b3ef836040516113059190611ecb565b60405180910390a35050565b600060019054906101000a900460ff1680611337575060008054906101000a900460ff16155b611376576040517f08c379a000000000000000000000000000000000000000000000000000000000815260040161136d90611deb565b60405180910390fd5b60008060019054906101000a900460ff1615905080156113c6576001600060016101000a81548160ff02191690831515021790555060016000806101000a81548160ff0219169083151502179055505b6113ce6114ec565b6113d883836115c5565b80156113f95760008060016101000a81548160ff0219169083151502179055505b505050565b600060019054906101000a900460ff1680611424575060008054906101000a900460ff16155b611463576040517f08c379a000000000000000000000000000000000000000000000000000000000815260040161145a90611deb565b60405180910390fd5b60008060019054906101000a900460ff1615905080156114b3576001600060016101000a81548160ff02191690831515021790555060016000806101000a81548160ff0219169083151502179055505b6114bb6114ec565b6114c36116ce565b80156114e45760008060016101000a81548160ff0219169083151502179055505b50565b505050565b600060019054906101000a900460ff1680611512575060008054906101000a900460ff16155b611551576040517f08c379a000000000000000000000000000000000000000000000000000000000815260040161154890611deb565b60405180910390fd5b60008060019054906101000a900460ff1615905080156115a1576001600060016101000a81548160ff02191690831515021790555060016000806101000a81548160ff0219169083151502179055505b80156115c25760008060016101000a81548160ff0219169083151502179055505b50565b600060019054906101000a900460ff16806115eb575060008054906101000a900460ff16155b61162a576040517f08c379a000000000000000000000000000000000000000000000000000000000815260040161162190611deb565b60405180910390fd5b60008060019054906101000a900460ff16159050801561167a576001600060016101000a81548160ff02191690831515021790555060016000806101000a81548160ff0219169083151502179055505b8260369080519060200190611690929190611850565b5081603790805190602001906116a7929190611850565b5080156116c95760008060016101000a81548160ff0219169083151502179055505b505050565b600060019054906101000a900460ff16806116f4575060008054906101000a900460ff16155b611733576040517f08c379a000000000000000000000000000000000000000000000000000000000815260040161172a90611deb565b60405180910390fd5b60008060019054906101000a900460ff161590508015611783576001600060016101000a81548160ff02191690831515021790555060016000806101000a81548160ff0219169083151502179055505b600061178d610d67565b905080606560006101000a81548173ffffffffffffffffffffffffffffffffffffffff021916908373ffffffffffffffffffffffffffffffffffffffff1602179055508073ffffffffffffffffffffffffffffffffffffffff16600073ffffffffffffffffffffffffffffffffffffffff167f8be0079c531659141344cd1fd0a4f28419497f9722a3daafe3b4186f6b6457e060405160405180910390a350801561184d5760008060016101000a81548160ff0219169083151502179055505b50565b82805461185c90612094565b90600052602060002090601f01602090048101928261187e57600085556118c5565b82601f1061189757805160ff19168380011785556118c5565b828001600101855582156118c5579182015b828111156118c45782518255916020019190600101906118a9565b5b5090506118d291906118d6565b5090565b5b808211156118ef5760008160009055506001016118d7565b5090565b600061190661190184611f26565b611f01565b90508281526020810184848401111561191e57600080fd5b611929848285612052565b509392505050565b600081359050611940816124ae565b92915050565b600082601f83011261195757600080fd5b81356119678482602086016118f3565b91505092915050565b60008135905061197f816124c5565b92915050565b60006020828403121561199757600080fd5b60006119a584828501611931565b91505092915050565b600080604083850312156119c157600080fd5b60006119cf85828601611931565b92505060206119e085828601611931565b9150509250929050565b6000806000606084860312156119ff57600080fd5b6000611a0d86828701611931565b9350506020611a1e86828701611931565b9250506040611a2f86828701611970565b9150509250925092565b60008060408385031215611a4c57600080fd5b6000611a5a85828601611931565b9250506020611a6b85828601611970565b9150509250929050565b600080600060608486031215611a8a57600080fd5b600084013567ffffffffffffffff811115611aa457600080fd5b611ab086828701611946565b935050602084013567ffffffffffffffff811115611acd57600080fd5b611ad986828701611946565b9250506040611aea86828701611970565b9150509250925092565b600060208284031215611b0657600080fd5b6000611b1484828501611970565b91505092915050565b611b2681611ffd565b82525050565b611b358161200f565b82525050565b6000611b4682611f57565b611b508185611f62565b9350611b60818560208601612061565b611b6981612184565b840191505092915050565b6000611b81602383611f62565b9150611b8c82612195565b604082019050919050565b6000611ba4602683611f62565b9150611baf826121e4565b604082019050919050565b6000611bc7602283611f62565b9150611bd282612233565b604082019050919050565b6000611bea602683611f62565b9150611bf582612282565b604082019050919050565b6000611c0d602e83611f62565b9150611c18826122d1565b604082019050919050565b6000611c30602883611f62565b9150611c3b82612320565b604082019050919050565b6000611c53602083611f62565b9150611c5e8261236f565b602082019050919050565b6000611c76602583611f62565b9150611c8182612398565b604082019050919050565b6000611c99602483611f62565b9150611ca4826123e7565b604082019050919050565b6000611cbc602583611f62565b9150611cc782612436565b604082019050919050565b6000611cdf601f83611f62565b9150611cea82612485565b602082019050919050565b611cfe8161203b565b82525050565b611d0d81612045565b82525050565b6000602082019050611d286000830184611b1d565b92915050565b6000602082019050611d436000830184611b2c565b92915050565b60006020820190508181036000830152611d638184611b3b565b905092915050565b60006020820190508181036000830152611d8481611b74565b9050919050565b60006020820190508181036000830152611da481611b97565b9050919050565b60006020820190508181036000830152611dc481611bba565b9050919050565b60006020820190508181036000830152611de481611bdd565b9050919050565b60006020820190508181036000830152611e0481611c00565b9050919050565b60006020820190508181036000830152611e2481611c23565b9050919050565b60006020820190508181036000830152611e4481611c46565b9050919050565b60006020820190508181036000830152611e6481611c69565b9050919050565b60006020820190508181036000830152611e8481611c8c565b9050919050565b60006020820190508181036000830152611ea481611caf565b9050919050565b60006020820190508181036000830152611ec481611cd2565b9050919050565b6000602082019050611ee06000830184611cf5565b92915050565b6000602082019050611efb6000830184611d04565b92915050565b6000611f0b611f1c565b9050611f1782826120c6565b919050565b6000604051905090565b600067ffffffffffffffff821115611f4157611f40612155565b5b611f4a82612184565b9050602081019050919050565b600081519050919050565b600082825260208201905092915050565b6000611f7e8261203b565b9150611f898361203b565b9250827fffffffffffffffffffffffffffffffffffffffffffffffffffffffffffffffff03821115611fbe57611fbd6120f7565b5b828201905092915050565b6000611fd48261203b565b9150611fdf8361203b565b925082821015611ff257611ff16120f7565b5b828203905092915050565b60006120088261201b565b9050919050565b60008115159050919050565b600073ffffffffffffffffffffffffffffffffffffffff82169050919050565b6000819050919050565b600060ff82169050919050565b82818337600083830152505050565b60005b8381101561207f578082015181840152602081019050612064565b8381111561208e576000848401525b50505050565b600060028204905060018216806120ac57607f821691505b602082108114156120c0576120bf612126565b5b50919050565b6120cf82612184565b810181811067ffffffffffffffff821117156120ee576120ed612155565b5b80604052505050565b7f4e487b7100000000000000000000000000000000000000000000000000000000600052601160045260246000fd5b7f4e487b7100000000000000000000000000000000000000000000000000000000600052602260045260246000fd5b7f4e487b7100000000000000000000000000000000000000000000000000000000600052604160045260246000fd5b6000601f19601f8301169050919050565b7f45524332303a207472616e7366657220746f20746865207a65726f206164647260008201527f6573730000000000000000000000000000000000000000000000000000000000602082015250565b7f4f776e61626c653a206e6577206f776e657220697320746865207a65726f206160008201527f6464726573730000000000000000000000000000000000000000000000000000602082015250565b7f45524332303a20617070726f766520746f20746865207a65726f20616464726560008201527f7373000000000000000000000000000000000000000000000000000000000000602082015250565b7f45524332303a207472616e7366657220616d6f756e742065786365656473206260008201527f616c616e63650000000000000000000000000000000000000000000000000000602082015250565b7f496e697469616c697a61626c653a20636f6e747261637420697320616c72656160008201527f647920696e697469616c697a6564000000000000000000000000000000000000602082015250565b7f45524332303a207472616e7366657220616d6f756e742065786365656473206160008201527f6c6c6f77616e6365000000000000000000000000000000000000000000000000602082015250565b7f4f776e61626c653a2063616c6c6572206973206e6f7420746865206f776e6572600082015250565b7f45524332303a207472616e736665722066726f6d20746865207a65726f20616460008201527f6472657373000000000000000000000000000000000000000000000000000000602082015250565b7f45524332303a20617070726f76652066726f6d20746865207a65726f2061646460008201527f7265737300000000000000000000000000000000000000000000000000000000602082015250565b7f45524332303a2064656372656173656420616c6c6f77616e63652062656c6f7760008201527f207a65726f000000000000000000000000000000000000000000000000000000602082015250565b7f45524332303a206d696e7420746f20746865207a65726f206164647265737300600082015250565b6124b781611ffd565b81146124c257600080fd5b50565b6124ce8161203b565b81146124d957600080fd5b5056fea26469706673582212205a2f8f800a7af464cf0316f26e9f42fb51ee32b413dbde22c6bf536c32fc858864736f6c63430008030033",
  "linkReferences": {},
  "deployedLinkReferences": {}
}