{
  "_format": "hh-sol-artifact-1",
  "contractName": "GravityTokenV4",
  "sourceName": "contracts/GravityTokenV4.sol",
  "abi": [
    {
      "anonymous": false,
      "inputs": [
        {
          "indexed": true,
          "internalType": "address",
          "name": "owner",
          "type": "address"
        },
        {
          "indexed": true,
          "internalType": "address",
          "name": "spender",
          "type": "address"
        },
        {
          "indexed": false,
          "internalType": "uint256",
          "name": "value",
          "type": "uint256"
        }
      ],
      "name": "Approval",
      "type": "event"
    },
    {
      "anonymous": false,
      "inputs": [
        {
          "indexed": true,
          "internalType": "address",
          "name": "previousOwner",
          "type": "address"
        },
        {
          "indexed": true,
          "internalType": "address",
          "name": "newOwner",
          "type": "address"
        }
      ],
      "name": "OwnershipTransferred",
      "type": "event"
    },
    {
      "anonymous": false,
      "inputs": [
        {
          "indexed": true,
          "internalType": "address",
          "name": "from",
          "type": "address"
        },
        {
          "indexed": true,
          "internalType": "address",
          "name": "to",
          "type": "address"
        },
        {
          "indexed": false,
          "internalType": "uint256",
          "name": "value",
          "type": "uint256"
        }
      ],
      "name": "Transfer",
      "type": "event"
    },
    {
      "inputs": [
        {
          "internalType": "address",
          "name": "owner",
          "type": "address"
        },
        {
          "internalType": "address",
          "name": "spender",
          "type": "address"
        }
      ],
      "name": "allowance",
      "outputs": [
        {
          "internalType": "uint256",
          "name": "",
          "type": "uint256"
        }
      ],
      "stateMutability": "view",
      "type": "function"
    },
    {
      "inputs": [
        {
          "internalType": "address",
          "name": "spender",
          "type": "address"
        },
        {
          "internalType": "uint256",
          "name": "amount",
          "type": "uint256"
        }
      ],
      "name": "approve",
      "outputs": [
        {
          "internalType": "bool",
          "name": "",
          "type": "bool"
        }
      ],
      "stateMutability": "nonpayable",
      "type": "function"
    },
    {
      "inputs": [
        {
          "internalType": "address",
          "name": "account",
          "type": "address"
        }
      ],
      "name": "balanceOf",
      "outputs": [
        {
          "internalType": "uint256",
          "name": "",
          "type": "uint256"
        }
      ],
      "stateMutability": "view",
      "type": "function"
    },
    {
      "inputs": [],
      "name": "decimals",
      "outputs": [
        {
          "internalType": "uint8",
          "name": "",
          "type": "uint8"
        }
      ],
      "stateMutability": "view",
      "type": "function"
    },
    {
      "inputs": [
        {
          "internalType": "address",
          "name": "spender",
          "type": "address"
        },
        {
          "internalType": "uint256",
          "name": "subtractedValue",
          "type": "uint256"
        }
      ],
      "name": "decreaseAllowance",
      "outputs": [
        {
          "internalType": "bool",
          "name": "",
          "type": "bool"
        }
      ],
      "stateMutability": "nonpayable",
      "type": "function"
    },
    {
      "inputs": [
        {
          "internalType": "address",
          "name": "",
          "type": "address"
        }
      ],
      "name": "feeLedger",
      "outputs": [
        {
          "internalType": "uint256",
          "name": "",
          "type": "uint256"
        }
      ],
      "stateMutability": "view",
      "type": "function"
    },
    {
      "inputs": [],
      "name": "getFees",
      "outputs": [
        {
          "internalType": "uint256",
          "name": "",
          "type": "uint256"
        }
      ],
      "stateMutability": "view",
      "type": "function"
    },
    {
      "inputs": [
        {
          "internalType": "address",
          "name": "spender",
          "type": "address"
        },
        {
          "internalType": "uint256",
          "name": "addedValue",
          "type": "uint256"
        }
      ],
      "name": "increaseAllowance",
      "outputs": [
        {
          "internalType": "bool",
          "name": "",
          "type": "bool"
        }
      ],
      "stateMutability": "nonpayable",
      "type": "function"
    },
    {
      "inputs": [
        {
          "internalType": "string",
          "name": "name",
          "type": "string"
        },
        {
          "internalType": "string",
          "name": "symbol",
          "type": "string"
        },
        {
          "internalType": "uint256",
          "name": "initialSupply",
          "type": "uint256"
        }
      ],
      "name": "initialize",
      "outputs": [],
      "stateMutability": "nonpayable",
      "type": "function"
    },
    {
      "inputs": [
        {
          "internalType": "uint256",
          "name": "_amount",
          "type": "uint256"
        }
      ],
      "name": "mint",
      "outputs": [],
      "stateMutability": "nonpayable",
      "type": "function"
    },
    {
      "inputs": [],
      "name": "name",
      "outputs": [
        {
          "internalType": "string",
          "name": "",
          "type": "string"
        }
      ],
      "stateMutability": "view",
      "type": "function"
    },
    {
      "inputs": [],
      "name": "owner",
      "outputs": [
        {
          "internalType": "address",
          "name": "",
          "type": "address"
        }
      ],
      "stateMutability": "view",
      "type": "function"
    },
    {
      "inputs": [],
      "name": "renounceOwnership",
      "outputs": [],
      "stateMutability": "nonpayable",
      "type": "function"
    },
    {
      "inputs": [],
      "name": "symbol",
      "outputs": [
        {
          "internalType": "string",
          "name": "",
          "type": "string"
        }
      ],
      "stateMutability": "view",
      "type": "function"
    },
    {
      "inputs": [],
      "name": "totalSupply",
      "outputs": [
        {
          "internalType": "uint256",
          "name": "",
          "type": "uint256"
        }
      ],
      "stateMutability": "view",
      "type": "function"
    },
    {
      "inputs": [
        {
          "internalType": "address",
          "name": "recipient",
          "type": "address"
        },
        {
          "internalType": "uint256",
          "name": "amount",
          "type": "uint256"
        }
      ],
      "name": "transfer",
      "outputs": [
        {
          "internalType": "bool",
          "name": "",
          "type": "bool"
        }
      ],
      "stateMutability": "nonpayable",
      "type": "function"
    },
    {
      "inputs": [
        {
          "internalType": "address",
          "name": "sender",
          "type": "address"
        },
        {
          "internalType": "address",
          "name": "recipient",
          "type": "address"
        },
        {
          "internalType": "uint256",
          "name": "amount",
          "type": "uint256"
        }
      ],
      "name": "transferFrom",
      "outputs": [
        {
          "internalType": "bool",
          "name": "",
          "type": "bool"
        }
      ],
      "stateMutability": "nonpayable",
      "type": "function"
    },
    {
      "inputs": [
        {
          "internalType": "address",
          "name": "newOwner",
          "type": "address"
        }
      ],
      "name": "transferOwnership",
      "outputs": [],
      "stateMutability": "nonpayable",
      "type": "function"
    }
  ],
  "bytecode": "0x608060405234801561001057600080fd5b50612582806100206000396000f3fe608060405234801561001057600080fd5b50600436106101165760003560e01c806395d89b41116100a2578063ad3b4bf711610071578063ad3b4bf7146102f7578063b119490e14610327578063db8d55f114610343578063dd62ed3e14610361578063f2fde38b1461039157610116565b806395d89b411461025d578063a0712d681461027b578063a457c2d714610297578063a9059cbb146102c757610116565b8063313ce567116100e9578063313ce567146101b757806339509351146101d557806370a0823114610205578063715018a6146102355780638da5cb5b1461023f57610116565b806306fdde031461011b578063095ea7b31461013957806318160ddd1461016957806323b872dd14610187575b600080fd5b6101236103ad565b6040516101309190611db9565b60405180910390f35b610153600480360381019061014e9190611aa9565b61043f565b6040516101609190611d9e565b60405180910390f35b61017161045d565b60405161017e9190611f3b565b60405180910390f35b6101a1600480360381019061019c9190611a5a565b610467565b6040516101ae9190611d9e565b60405180910390f35b6101bf610568565b6040516101cc9190611f56565b60405180910390f35b6101ef60048036038101906101ea9190611aa9565b610571565b6040516101fc9190611d9e565b60405180910390f35b61021f600480360381019061021a91906119f5565b61061d565b60405161022c9190611f3b565b60405180910390f35b61023d610666565b005b6102476107a3565b6040516102549190611d83565b60405180910390f35b6102656107cd565b6040516102729190611db9565b60405180910390f35b61029560048036038101906102909190611b64565b61085f565b005b6102b160048036038101906102ac9190611aa9565b6108ef565b6040516102be9190611d9e565b60405180910390f35b6102e160048036038101906102dc9190611aa9565b6109e3565b6040516102ee9190611d9e565b60405180910390f35b610311600480360381019061030c91906119f5565b610a46565b60405161031e9190611f3b565b60405180910390f35b610341600480360381019061033c9190611ae5565b610a5e565b005b61034b610b5d565b6040516103589190611f3b565b60405180910390f35b61037b60048036038101906103769190611a1e565b610ba4565b6040516103889190611f3b565b60405180910390f35b6103ab60048036038101906103a691906119f5565b610c2b565b005b6060603680546103bc90612104565b80601f01602080910402602001604051908101604052809291908181526020018280546103e890612104565b80156104355780601f1061040a57610100808354040283529160200191610435565b820191906000526020600020905b81548152906001019060200180831161041857829003601f168201915b5050505050905090565b600061045361044c610dd7565b8484610ddf565b6001905092915050565b6000603554905090565b6000610474848484610faa565b6000603460008673ffffffffffffffffffffffffffffffffffffffff1673ffffffffffffffffffffffffffffffffffffffff16815260200190815260200160002060006104bf610dd7565b73ffffffffffffffffffffffffffffffffffffffff1673ffffffffffffffffffffffffffffffffffffffff1681526020019081526020016000205490508281101561053f576040517f08c379a000000000000000000000000000000000000000000000000000000000815260040161053690611e7b565b60405180910390fd5b61055c8561054b610dd7565b85846105579190612039565b610ddf565b60019150509392505050565b60006012905090565b600061061361057e610dd7565b84846034600061058c610dd7565b73ffffffffffffffffffffffffffffffffffffffff1673ffffffffffffffffffffffffffffffffffffffff16815260200190815260200160002060008873ffffffffffffffffffffffffffffffffffffffff1673ffffffffffffffffffffffffffffffffffffffff1681526020019081526020016000205461060e9190611fe3565b610ddf565b6001905092915050565b6000603360008373ffffffffffffffffffffffffffffffffffffffff1673ffffffffffffffffffffffffffffffffffffffff168152602001908152602001600020549050919050565b61066e610dd7565b73ffffffffffffffffffffffffffffffffffffffff1661068c6107a3565b73ffffffffffffffffffffffffffffffffffffffff16146106e2576040517f08c379a00000000000000000000000000000000000000000000000000000000081526004016106d990611e9b565b60405180910390fd5b600073ffffffffffffffffffffffffffffffffffffffff16606560009054906101000a900473ffffffffffffffffffffffffffffffffffffffff1673ffffffffffffffffffffffffffffffffffffffff167f8be0079c531659141344cd1fd0a4f28419497f9722a3daafe3b4186f6b6457e060405160405180910390a36000606560006101000a81548173ffffffffffffffffffffffffffffffffffffffff021916908373ffffffffffffffffffffffffffffffffffffffff160217905550565b6000606560009054906101000a900473ffffffffffffffffffffffffffffffffffffffff16905090565b6060603780546107dc90612104565b80601f016020809104026020016040519081016040528092919081815260200182805461080890612104565b80156108555780601f1061082a57610100808354040283529160200191610855565b820191906000526020600020905b81548152906001019060200180831161083857829003601f168201915b5050505050905090565b610867610dd7565b73ffffffffffffffffffffffffffffffffffffffff166108856107a3565b73ffffffffffffffffffffffffffffffffffffffff16146108db576040517f08c379a00000000000000000000000000000000000000000000000000000000081526004016108d290611e9b565b60405180910390fd5b6108ec6108e6610dd7565b8261122c565b50565b600080603460006108fe610dd7565b73ffffffffffffffffffffffffffffffffffffffff1673ffffffffffffffffffffffffffffffffffffffff16815260200190815260200160002060008573ffffffffffffffffffffffffffffffffffffffff1673ffffffffffffffffffffffffffffffffffffffff168152602001908152602001600020549050828110156109bb576040517f08c379a00000000000000000000000000000000000000000000000000000000081526004016109b290611efb565b60405180910390fd5b6109d86109c6610dd7565b8585846109d39190612039565b610ddf565b600191505092915050565b60006064609760003373ffffffffffffffffffffffffffffffffffffffff1673ffffffffffffffffffffffffffffffffffffffff16815260200190815260200160002081905550610a3c610a35610dd7565b8484610faa565b6001905092915050565b60976020528060005260406000206000915090505481565b600060019054906101000a900460ff1680610a84575060008054906101000a900460ff16155b610ac3576040517f08c379a0000000000000000000000000000000000000000000000000000000008152600401610aba90611e5b565b60405180910390fd5b60008060019054906101000a900460ff161590508015610b13576001600060016101000a81548160ff02191690831515021790555060016000806101000a81548160ff0219169083151502179055505b610b1d8484611381565b610b2e610b28610dd7565b8361122c565b610b3661146e565b8015610b575760008060016101000a81548160ff0219169083151502179055505b50505050565b6000609760003373ffffffffffffffffffffffffffffffffffffffff1673ffffffffffffffffffffffffffffffffffffffff16815260200190815260200160002054905090565b6000603460008473ffffffffffffffffffffffffffffffffffffffff1673ffffffffffffffffffffffffffffffffffffffff16815260200190815260200160002060008373ffffffffffffffffffffffffffffffffffffffff1673ffffffffffffffffffffffffffffffffffffffff16815260200190815260200160002054905092915050565b610c33610dd7565b73ffffffffffffffffffffffffffffffffffffffff16610c516107a3565b73ffffffffffffffffffffffffffffffffffffffff1614610ca7576040517f08c379a0000000000000000000000000000000000000000000000000000000008152600401610c9e90611e9b565b60405180910390fd5b600073ffffffffffffffffffffffffffffffffffffffff168173ffffffffffffffffffffffffffffffffffffffff161415610d17576040517f08c379a0000000000000000000000000000000000000000000000000000000008152600401610d0e90611dfb565b60405180910390fd5b8073ffffffffffffffffffffffffffffffffffffffff16606560009054906101000a900473ffffffffffffffffffffffffffffffffffffffff1673ffffffffffffffffffffffffffffffffffffffff167f8be0079c531659141344cd1fd0a4f28419497f9722a3daafe3b4186f6b6457e060405160405180910390a380606560006101000a81548173ffffffffffffffffffffffffffffffffffffffff021916908373ffffffffffffffffffffffffffffffffffffffff16021790555050565b600033905090565b600073ffffffffffffffffffffffffffffffffffffffff168373ffffffffffffffffffffffffffffffffffffffff161415610e4f576040517f08c379a0000000000000000000000000000000000000000000000000000000008152600401610e4690611edb565b60405180910390fd5b600073ffffffffffffffffffffffffffffffffffffffff168273ffffffffffffffffffffffffffffffffffffffff161415610ebf576040517f08c379a0000000000000000000000000000000000000000000000000000000008152600401610eb690611e1b565b60405180910390fd5b80603460008573ffffffffffffffffffffffffffffffffffffffff1673ffffffffffffffffffffffffffffffffffffffff16815260200190815260200160002060008473ffffffffffffffffffffffffffffffffffffffff1673ffffffffffffffffffffffffffffffffffffffff168152602001908152602001600020819055508173ffffffffffffffffffffffffffffffffffffffff168373ffffffffffffffffffffffffffffffffffffffff167f8c5be1e5ebec7d5bd14f71427d1e84f3dd0314c0f7b2291e5b200ac8c7c3b92583604051610f9d9190611f3b565b60405180910390a3505050565b600073ffffffffffffffffffffffffffffffffffffffff168373ffffffffffffffffffffffffffffffffffffffff16141561101a576040517f08c379a000000000000000000000000000000000000000000000000000000000815260040161101190611ebb565b60405180910390fd5b600073ffffffffffffffffffffffffffffffffffffffff168273ffffffffffffffffffffffffffffffffffffffff16141561108a576040517f08c379a000000000000000000000000000000000000000000000000000000000815260040161108190611ddb565b60405180910390fd5b611095838383611557565b6000603360008573ffffffffffffffffffffffffffffffffffffffff1673ffffffffffffffffffffffffffffffffffffffff1681526020019081526020016000205490508181101561111c576040517f08c379a000000000000000000000000000000000000000000000000000000000815260040161111390611e3b565b60405180910390fd5b81816111289190612039565b603360008673ffffffffffffffffffffffffffffffffffffffff1673ffffffffffffffffffffffffffffffffffffffff1681526020019081526020016000208190555081603360008573ffffffffffffffffffffffffffffffffffffffff1673ffffffffffffffffffffffffffffffffffffffff16815260200190815260200160002060008282546111ba9190611fe3565b925050819055508273ffffffffffffffffffffffffffffffffffffffff168473ffffffffffffffffffffffffffffffffffffffff167fddf252ad1be2c89b69c2b068fc378daa952ba7f163c4a11628f55a4df523b3ef8460405161121e9190611f3b565b60405180910390a350505050565b600073ffffffffffffffffffffffffffffffffffffffff168273ffffffffffffffffffffffffffffffffffffffff16141561129c576040517f08c379a000000000000000000000000000000000000000000000000000000000815260040161129390611f1b565b60405180910390fd5b6112a860008383611557565b80603560008282546112ba9190611fe3565b9250508190555080603360008473ffffffffffffffffffffffffffffffffffffffff1673ffffffffffffffffffffffffffffffffffffffff16815260200190815260200160002060008282546113109190611fe3565b925050819055508173ffffffffffffffffffffffffffffffffffffffff16600073ffffffffffffffffffffffffffffffffffffffff167fddf252ad1be2c89b69c2b068fc378daa952ba7f163c4a11628f55a4df523b3ef836040516113759190611f3b565b60405180910390a35050565b600060019054906101000a900460ff16806113a7575060008054906101000a900460ff16155b6113e6576040517f08c379a00000000000000000000000000000000000000000000000000000000081526004016113dd90611e5b565b60405180910390fd5b60008060019054906101000a900460ff161590508015611436576001600060016101000a81548160ff02191690831515021790555060016000806101000a81548160ff0219169083151502179055505b61143e61155c565b6114488383611635565b80156114695760008060016101000a81548160ff0219169083151502179055505b505050565b600060019054906101000a900460ff1680611494575060008054906101000a900460ff16155b6114d3576040517f08c379a00000000000000000000000000000000000000000000000000000000081526004016114ca90611e5b565b60405180910390fd5b60008060019054906101000a900460ff161590508015611523576001600060016101000a81548160ff02191690831515021790555060016000806101000a81548160ff0219169083151502179055505b61152b61155c565b61153361173e565b80156115545760008060016101000a81548160ff0219169083151502179055505b50565b505050565b600060019054906101000a900460ff1680611582575060008054906101000a900460ff16155b6115c1576040517f08c379a00000000000000000000000000000000000000000000000000000000081526004016115b890611e5b565b60405180910390fd5b60008060019054906101000a900460ff161590508015611611576001600060016101000a81548160ff02191690831515021790555060016000806101000a81548160ff0219169083151502179055505b80156116325760008060016101000a81548160ff0219169083151502179055505b50565b600060019054906101000a900460ff168061165b575060008054906101000a900460ff16155b61169a576040517f08c379a000000000000000000000000000000000000000000000000000000000815260040161169190611e5b565b60405180910390fd5b60008060019054906101000a900460ff1615905080156116ea576001600060016101000a81548160ff02191690831515021790555060016000806101000a81548160ff0219169083151502179055505b82603690805190602001906117009291906118c0565b5081603790805190602001906117179291906118c0565b5080156117395760008060016101000a81548160ff0219169083151502179055505b505050565b600060019054906101000a900460ff1680611764575060008054906101000a900460ff16155b6117a3576040517f08c379a000000000000000000000000000000000000000000000000000000000815260040161179a90611e5b565b60405180910390fd5b60008060019054906101000a900460ff1615905080156117f3576001600060016101000a81548160ff02191690831515021790555060016000806101000a81548160ff0219169083151502179055505b60006117fd610dd7565b905080606560006101000a81548173ffffffffffffffffffffffffffffffffffffffff021916908373ffffffffffffffffffffffffffffffffffffffff1602179055508073ffffffffffffffffffffffffffffffffffffffff16600073ffffffffffffffffffffffffffffffffffffffff167f8be0079c531659141344cd1fd0a4f28419497f9722a3daafe3b4186f6b6457e060405160405180910390a35080156118bd5760008060016101000a81548160ff0219169083151502179055505b50565b8280546118cc90612104565b90600052602060002090601f0160209004810192826118ee5760008555611935565b82601f1061190757805160ff1916838001178555611935565b82800160010185558215611935579182015b82811115611934578251825591602001919060010190611919565b5b5090506119429190611946565b5090565b5b8082111561195f576000816000905550600101611947565b5090565b600061197661197184611f96565b611f71565b90508281526020810184848401111561198e57600080fd5b6119998482856120c2565b509392505050565b6000813590506119b08161251e565b92915050565b600082601f8301126119c757600080fd5b81356119d7848260208601611963565b91505092915050565b6000813590506119ef81612535565b92915050565b600060208284031215611a0757600080fd5b6000611a15848285016119a1565b91505092915050565b60008060408385031215611a3157600080fd5b6000611a3f858286016119a1565b9250506020611a50858286016119a1565b9150509250929050565b600080600060608486031215611a6f57600080fd5b6000611a7d868287016119a1565b9350506020611a8e868287016119a1565b9250506040611a9f868287016119e0565b9150509250925092565b60008060408385031215611abc57600080fd5b6000611aca858286016119a1565b9250506020611adb858286016119e0565b9150509250929050565b600080600060608486031215611afa57600080fd5b600084013567ffffffffffffffff811115611b1457600080fd5b611b20868287016119b6565b935050602084013567ffffffffffffffff811115611b3d57600080fd5b611b49868287016119b6565b9250506040611b5a868287016119e0565b9150509250925092565b600060208284031215611b7657600080fd5b6000611b84848285016119e0565b91505092915050565b611b968161206d565b82525050565b611ba58161207f565b82525050565b6000611bb682611fc7565b611bc08185611fd2565b9350611bd08185602086016120d1565b611bd9816121f4565b840191505092915050565b6000611bf1602383611fd2565b9150611bfc82612205565b604082019050919050565b6000611c14602683611fd2565b9150611c1f82612254565b604082019050919050565b6000611c37602283611fd2565b9150611c42826122a3565b604082019050919050565b6000611c5a602683611fd2565b9150611c65826122f2565b604082019050919050565b6000611c7d602e83611fd2565b9150611c8882612341565b604082019050919050565b6000611ca0602883611fd2565b9150611cab82612390565b604082019050919050565b6000611cc3602083611fd2565b9150611cce826123df565b602082019050919050565b6000611ce6602583611fd2565b9150611cf182612408565b604082019050919050565b6000611d09602483611fd2565b9150611d1482612457565b604082019050919050565b6000611d2c602583611fd2565b9150611d37826124a6565b604082019050919050565b6000611d4f601f83611fd2565b9150611d5a826124f5565b602082019050919050565b611d6e816120ab565b82525050565b611d7d816120b5565b82525050565b6000602082019050611d986000830184611b8d565b92915050565b6000602082019050611db36000830184611b9c565b92915050565b60006020820190508181036000830152611dd38184611bab565b905092915050565b60006020820190508181036000830152611df481611be4565b9050919050565b60006020820190508181036000830152611e1481611c07565b9050919050565b60006020820190508181036000830152611e3481611c2a565b9050919050565b60006020820190508181036000830152611e5481611c4d565b9050919050565b60006020820190508181036000830152611e7481611c70565b9050919050565b60006020820190508181036000830152611e9481611c93565b9050919050565b60006020820190508181036000830152611eb481611cb6565b9050919050565b60006020820190508181036000830152611ed481611cd9565b9050919050565b60006020820190508181036000830152611ef481611cfc565b9050919050565b60006020820190508181036000830152611f1481611d1f565b9050919050565b60006020820190508181036000830152611f3481611d42565b9050919050565b6000602082019050611f506000830184611d65565b92915050565b6000602082019050611f6b6000830184611d74565b92915050565b6000611f7b611f8c565b9050611f878282612136565b919050565b6000604051905090565b600067ffffffffffffffff821115611fb157611fb06121c5565b5b611fba826121f4565b9050602081019050919050565b600081519050919050565b600082825260208201905092915050565b6000611fee826120ab565b9150611ff9836120ab565b9250827fffffffffffffffffffffffffffffffffffffffffffffffffffffffffffffffff0382111561202e5761202d612167565b5b828201905092915050565b6000612044826120ab565b915061204f836120ab565b92508282101561206257612061612167565b5b828203905092915050565b60006120788261208b565b9050919050565b60008115159050919050565b600073ffffffffffffffffffffffffffffffffffffffff82169050919050565b6000819050919050565b600060ff82169050919050565b82818337600083830152505050565b60005b838110156120ef5780820151818401526020810190506120d4565b838111156120fe576000848401525b50505050565b6000600282049050600182168061211c57607f821691505b602082108114156121305761212f612196565b5b50919050565b61213f826121f4565b810181811067ffffffffffffffff8211171561215e5761215d6121c5565b5b80604052505050565b7f4e487b7100000000000000000000000000000000000000000000000000000000600052601160045260246000fd5b7f4e487b7100000000000000000000000000000000000000000000000000000000600052602260045260246000fd5b7f4e487b7100000000000000000000000000000000000000000000000000000000600052604160045260246000fd5b6000601f19601f8301169050919050565b7f45524332303a207472616e7366657220746f20746865207a65726f206164647260008201527f6573730000000000000000000000000000000000000000000000000000000000602082015250565b7f4f776e61626c653a206e6577206f776e657220697320746865207a65726f206160008201527f6464726573730000000000000000000000000000000000000000000000000000602082015250565b7f45524332303a20617070726f766520746f20746865207a65726f20616464726560008201527f7373000000000000000000000000000000000000000000000000000000000000602082015250565b7f45524332303a207472616e7366657220616d6f756e742065786365656473206260008201527f616c616e63650000000000000000000000000000000000000000000000000000602082015250565b7f496e697469616c697a61626c653a20636f6e747261637420697320616c72656160008201527f647920696e697469616c697a6564000000000000000000000000000000000000602082015250565b7f45524332303a207472616e7366657220616d6f756e742065786365656473206160008201527f6c6c6f77616e6365000000000000000000000000000000000000000000000000602082015250565b7f4f776e61626c653a2063616c6c6572206973206e6f7420746865206f776e6572600082015250565b7f45524332303a207472616e736665722066726f6d20746865207a65726f20616460008201527f6472657373000000000000000000000000000000000000000000000000000000602082015250565b7f45524332303a20617070726f76652066726f6d20746865207a65726f2061646460008201527f7265737300000000000000000000000000000000000000000000000000000000602082015250565b7f45524332303a2064656372656173656420616c6c6f77616e63652062656c6f7760008201527f207a65726f000000000000000000000000000000000000000000000000000000602082015250565b7f45524332303a206d696e7420746f20746865207a65726f206164647265737300600082015250565b6125278161206d565b811461253257600080fd5b50565b61253e816120ab565b811461254957600080fd5b5056fea26469706673582212202e21e138d7bc5eb4d9ff921dcd8eb770ff1b548c8f971fd3eb2aab929f54f2ae64736f6c63430008030033",
  "linkReferences": {},
  "deployedLinkReferences": {}
}