{
  "_format": "hh-sol-artifact-1",
  "contractName": "GravityTokenV8",
  "sourceName": "contracts/GravityTokenV8.sol",
  "abi": [
    {
      "anonymous": false,
      "inputs": [
        {
          "indexed": true,
          "internalType": "address",
          "name": "owner",
          "type": "address"
        },
        {
          "indexed": true,
          "internalType": "address",
          "name": "spender",
          "type": "address"
        },
        {
          "indexed": false,
          "internalType": "uint256",
          "name": "value",
          "type": "uint256"
        }
      ],
      "name": "Approval",
      "type": "event"
    },
    {
      "anonymous": false,
      "inputs": [
        {
          "indexed": true,
          "internalType": "address",
          "name": "previousOwner",
          "type": "address"
        },
        {
          "indexed": true,
          "internalType": "address",
          "name": "newOwner",
          "type": "address"
        }
      ],
      "name": "OwnershipTransferred",
      "type": "event"
    },
    {
      "anonymous": false,
      "inputs": [
        {
          "indexed": true,
          "internalType": "address",
          "name": "from",
          "type": "address"
        },
        {
          "indexed": true,
          "internalType": "address",
          "name": "to",
          "type": "address"
        },
        {
          "indexed": false,
          "internalType": "uint256",
          "name": "value",
          "type": "uint256"
        }
      ],
      "name": "Transfer",
      "type": "event"
    },
    {
      "inputs": [],
      "name": "_migrationV5",
      "outputs": [
        {
          "internalType": "bool",
          "name": "",
          "type": "bool"
        }
      ],
      "stateMutability": "view",
      "type": "function"
    },
    {
      "inputs": [],
      "name": "_migrationV6",
      "outputs": [
        {
          "internalType": "bool",
          "name": "",
          "type": "bool"
        }
      ],
      "stateMutability": "view",
      "type": "function"
    },
    {
      "inputs": [],
      "name": "_migrationV7",
      "outputs": [
        {
          "internalType": "bool",
          "name": "",
          "type": "bool"
        }
      ],
      "stateMutability": "view",
      "type": "function"
    },
    {
      "inputs": [
        {
          "internalType": "address",
          "name": "owner",
          "type": "address"
        },
        {
          "internalType": "address",
          "name": "spender",
          "type": "address"
        }
      ],
      "name": "allowance",
      "outputs": [
        {
          "internalType": "uint256",
          "name": "",
          "type": "uint256"
        }
      ],
      "stateMutability": "view",
      "type": "function"
    },
    {
      "inputs": [
        {
          "internalType": "address",
          "name": "spender",
          "type": "address"
        },
        {
          "internalType": "uint256",
          "name": "amount",
          "type": "uint256"
        }
      ],
      "name": "approve",
      "outputs": [
        {
          "internalType": "bool",
          "name": "",
          "type": "bool"
        }
      ],
      "stateMutability": "nonpayable",
      "type": "function"
    },
    {
      "inputs": [
        {
          "internalType": "address",
          "name": "account",
          "type": "address"
        }
      ],
      "name": "balanceOf",
      "outputs": [
        {
          "internalType": "uint256",
          "name": "",
          "type": "uint256"
        }
      ],
      "stateMutability": "view",
      "type": "function"
    },
    {
      "inputs": [],
      "name": "decimals",
      "outputs": [
        {
          "internalType": "uint8",
          "name": "",
          "type": "uint8"
        }
      ],
      "stateMutability": "view",
      "type": "function"
    },
    {
      "inputs": [
        {
          "internalType": "address",
          "name": "spender",
          "type": "address"
        },
        {
          "internalType": "uint256",
          "name": "subtractedValue",
          "type": "uint256"
        }
      ],
      "name": "decreaseAllowance",
      "outputs": [
        {
          "internalType": "bool",
          "name": "",
          "type": "bool"
        }
      ],
      "stateMutability": "nonpayable",
      "type": "function"
    },
    {
      "inputs": [
        {
          "internalType": "address",
          "name": "",
          "type": "address"
        }
      ],
      "name": "feeLedger",
      "outputs": [
        {
          "internalType": "uint256",
          "name": "",
          "type": "uint256"
        }
      ],
      "stateMutability": "view",
      "type": "function"
    },
    {
      "inputs": [],
      "name": "getAddress",
      "outputs": [
        {
          "internalType": "address",
          "name": "",
          "type": "address"
        }
      ],
      "stateMutability": "view",
      "type": "function"
    },
    {
      "inputs": [],
      "name": "getFees",
      "outputs": [
        {
          "internalType": "uint256",
          "name": "",
          "type": "uint256"
        }
      ],
      "stateMutability": "view",
      "type": "function"
    },
    {
      "inputs": [],
      "name": "getNum",
      "outputs": [
        {
          "internalType": "uint256",
          "name": "",
          "type": "uint256"
        }
      ],
      "stateMutability": "view",
      "type": "function"
    },
    {
      "inputs": [],
      "name": "getStorage",
      "outputs": [
        {
          "internalType": "uint256",
          "name": "",
          "type": "uint256"
        }
      ],
      "stateMutability": "view",
      "type": "function"
    },
    {
      "inputs": [
        {
          "internalType": "address",
          "name": "spender",
          "type": "address"
        },
        {
          "internalType": "uint256",
          "name": "addedValue",
          "type": "uint256"
        }
      ],
      "name": "increaseAllowance",
      "outputs": [
        {
          "internalType": "bool",
          "name": "",
          "type": "bool"
        }
      ],
      "stateMutability": "nonpayable",
      "type": "function"
    },
    {
      "inputs": [
        {
          "internalType": "string",
          "name": "name",
          "type": "string"
        },
        {
          "internalType": "string",
          "name": "symbol",
          "type": "string"
        },
        {
          "internalType": "uint256",
          "name": "initialSupply",
          "type": "uint256"
        }
      ],
      "name": "initialize",
      "outputs": [],
      "stateMutability": "nonpayable",
      "type": "function"
    },
    {
      "inputs": [],
      "name": "migrationV8",
      "outputs": [],
      "stateMutability": "nonpayable",
      "type": "function"
    },
    {
      "inputs": [
        {
          "internalType": "uint256",
          "name": "_amount",
          "type": "uint256"
        }
      ],
      "name": "mint",
      "outputs": [],
      "stateMutability": "nonpayable",
      "type": "function"
    },
    {
      "inputs": [],
      "name": "myNum",
      "outputs": [
        {
          "internalType": "uint256",
          "name": "",
          "type": "uint256"
        }
      ],
      "stateMutability": "view",
      "type": "function"
    },
    {
      "inputs": [],
      "name": "name",
      "outputs": [
        {
          "internalType": "string",
          "name": "",
          "type": "string"
        }
      ],
      "stateMutability": "view",
      "type": "function"
    },
    {
      "inputs": [],
      "name": "owner",
      "outputs": [
        {
          "internalType": "address",
          "name": "",
          "type": "address"
        }
      ],
      "stateMutability": "view",
      "type": "function"
    },
    {
      "inputs": [],
      "name": "renounceOwnership",
      "outputs": [],
      "stateMutability": "nonpayable",
      "type": "function"
    },
    {
      "inputs": [
        {
          "internalType": "address",
          "name": "_address",
          "type": "address"
        },
        {
          "internalType": "uint256",
          "name": "_amount",
          "type": "uint256"
        }
      ],
      "name": "sendContractTokens",
      "outputs": [],
      "stateMutability": "nonpayable",
      "type": "function"
    },
    {
      "inputs": [
        {
          "internalType": "address",
          "name": "_address",
          "type": "address"
        },
        {
          "internalType": "uint256",
          "name": "_amount",
          "type": "uint256"
        }
      ],
      "name": "sendGenericERC20",
      "outputs": [],
      "stateMutability": "nonpayable",
      "type": "function"
    },
    {
      "inputs": [
        {
          "internalType": "uint256",
          "name": "num",
          "type": "uint256"
        }
      ],
      "name": "store",
      "outputs": [],
      "stateMutability": "nonpayable",
      "type": "function"
    },
    {
      "inputs": [],
      "name": "symbol",
      "outputs": [
        {
          "internalType": "string",
          "name": "",
          "type": "string"
        }
      ],
      "stateMutability": "view",
      "type": "function"
    },
    {
      "inputs": [],
      "name": "totalSupply",
      "outputs": [
        {
          "internalType": "uint256",
          "name": "",
          "type": "uint256"
        }
      ],
      "stateMutability": "view",
      "type": "function"
    },
    {
      "inputs": [
        {
          "internalType": "address",
          "name": "recipient",
          "type": "address"
        },
        {
          "internalType": "uint256",
          "name": "amount",
          "type": "uint256"
        }
      ],
      "name": "transfer",
      "outputs": [
        {
          "internalType": "bool",
          "name": "",
          "type": "bool"
        }
      ],
      "stateMutability": "nonpayable",
      "type": "function"
    },
    {
      "inputs": [
        {
          "internalType": "address",
          "name": "sender",
          "type": "address"
        },
        {
          "internalType": "address",
          "name": "recipient",
          "type": "address"
        },
        {
          "internalType": "uint256",
          "name": "amount",
          "type": "uint256"
        }
      ],
      "name": "transferFrom",
      "outputs": [
        {
          "internalType": "bool",
          "name": "",
          "type": "bool"
        }
      ],
      "stateMutability": "nonpayable",
      "type": "function"
    },
    {
      "inputs": [
        {
          "internalType": "address",
          "name": "newOwner",
          "type": "address"
        }
      ],
      "name": "transferOwnership",
      "outputs": [],
      "stateMutability": "nonpayable",
      "type": "function"
    }
  ],
  "bytecode": "0x608060405234801561001057600080fd5b50612d77806100206000396000f3fe608060405234801561001057600080fd5b50600436106101cf5760003560e01c806370a0823111610104578063a9059cbb116100a2578063db8d55f111610071578063db8d55f11461050e578063dd62ed3e1461052c578063e018fb5d1461055c578063f2fde38b1461057a576101cf565b8063a9059cbb14610474578063ad3b4bf7146104a4578063b119490e146104d4578063d4da005a146104f0576101cf565b80638da5cb5b116100de5780638da5cb5b146103ec57806395d89b411461040a578063a0712d6814610428578063a457c2d714610444576101cf565b806370a0823114610394578063715018a6146103c45780637e2f33ea146103ce576101cf565b8063313ce56711610171578063395093511161014b578063395093511461030c57806351172f2e1461033c5780636057361d1461035a57806367e0badb14610376576101cf565b8063313ce567146102b25780633408f73a146102d057806338cc4831146102ee576101cf565b806318160ddd116101ad57806318160ddd1461022c5780631b5cf4061461024a57806323b872dd14610266578063263c56cc14610296576101cf565b80630428e197146101d457806306fdde03146101de578063095ea7b3146101fc575b600080fd5b6101dc610596565b005b6101e6610737565b6040516101f3919061254e565b60405180910390f35b610216600480360381019061021191906121a0565b6107c9565b6040516102239190612533565b60405180910390f35b6102346107e7565b60405161024191906126f0565b60405180910390f35b610264600480360381019061025f91906121a0565b6107f1565b005b610280600480360381019061027b9190612151565b61087c565b60405161028d9190612533565b60405180910390f35b6102b060048036038101906102ab91906121a0565b61097d565b005b6102ba610aad565b6040516102c7919061270b565b60405180910390f35b6102d8610ab6565b6040516102e591906126f0565b60405180910390f35b6102f6610b5d565b60405161030391906124ef565b60405180910390f35b610326600480360381019061032191906121a0565b610b65565b6040516103339190612533565b60405180910390f35b610344610c11565b6040516103519190612533565b60405180910390f35b610374600480360381019061036f9190612284565b610c24565b005b61037e610cb4565b60405161038b91906126f0565b60405180910390f35b6103ae60048036038101906103a991906120ec565b610cbe565b6040516103bb91906126f0565b60405180910390f35b6103cc610d07565b005b6103d6610e44565b6040516103e39190612533565b60405180910390f35b6103f4610e57565b60405161040191906124ef565b60405180910390f35b610412610e81565b60405161041f919061254e565b60405180910390f35b610442600480360381019061043d9190612284565b610f13565b005b61045e600480360381019061045991906121a0565b610fa3565b60405161046b9190612533565b60405180910390f35b61048e600480360381019061048991906121a0565b611097565b60405161049b9190612533565b60405180910390f35b6104be60048036038101906104b991906120ec565b6110fa565b6040516104cb91906126f0565b60405180910390f35b6104ee60048036038101906104e99190612205565b611112565b005b6104f8611211565b60405161050591906126f0565b60405180910390f35b610516611217565b60405161052391906126f0565b60405180910390f35b61054660048036038101906105419190612115565b61125e565b60405161055391906126f0565b60405180910390f35b6105646112e5565b6040516105719190612533565b60405180910390f35b610594600480360381019061058f91906120ec565b6112f8565b005b61059e6114a4565b73ffffffffffffffffffffffffffffffffffffffff166105bc610e57565b73ffffffffffffffffffffffffffffffffffffffff1614610612576040517f08c379a000000000000000000000000000000000000000000000000000000000815260040161060990612650565b60405180910390fd5b609c60149054906101000a900460ff1615610662576040517f08c379a000000000000000000000000000000000000000000000000000000000815260040161065990612610565b60405180910390fd5b6001609c60146101000a81548160ff0219169083151502179055507394407bb7cd3fc3954a13bfdecbb47d5a673d5f56609b60006101000a81548173ffffffffffffffffffffffffffffffffffffffff021916908373ffffffffffffffffffffffffffffffffffffffff160217905550609b60009054906101000a900473ffffffffffffffffffffffffffffffffffffffff16609c60006101000a81548173ffffffffffffffffffffffffffffffffffffffff021916908373ffffffffffffffffffffffffffffffffffffffff160217905550565b606060368054610746906128b9565b80601f0160208091040260200160405190810160405280929190818152602001828054610772906128b9565b80156107bf5780601f10610794576101008083540402835291602001916107bf565b820191906000526020600020905b8154815290600101906020018083116107a257829003601f168201915b5050505050905090565b60006107dd6107d66114a4565b84846114ac565b6001905092915050565b6000603554905090565b6107f96114a4565b73ffffffffffffffffffffffffffffffffffffffff16610817610e57565b73ffffffffffffffffffffffffffffffffffffffff161461086d576040517f08c379a000000000000000000000000000000000000000000000000000000000815260040161086490612650565b60405180910390fd5b6108778282611097565b505050565b6000610889848484611677565b6000603460008673ffffffffffffffffffffffffffffffffffffffff1673ffffffffffffffffffffffffffffffffffffffff16815260200190815260200160002060006108d46114a4565b73ffffffffffffffffffffffffffffffffffffffff1673ffffffffffffffffffffffffffffffffffffffff16815260200190815260200160002054905082811015610954576040517f08c379a000000000000000000000000000000000000000000000000000000000815260040161094b90612630565b60405180910390fd5b610971856109606114a4565b858461096c91906127ee565b6114ac565b60019150509392505050565b6109856114a4565b73ffffffffffffffffffffffffffffffffffffffff166109a3610e57565b73ffffffffffffffffffffffffffffffffffffffff16146109f9576040517f08c379a00000000000000000000000000000000000000000000000000000000081526004016109f090612650565b60405180910390fd5b609960039054906101000a900473ffffffffffffffffffffffffffffffffffffffff1673ffffffffffffffffffffffffffffffffffffffff1663a9059cbb83836040518363ffffffff1660e01b8152600401610a5692919061250a565b602060405180830381600087803b158015610a7057600080fd5b505af1158015610a84573d6000803e3d6000fd5b505050506040513d601f19601f82011682018060405250810190610aa891906121dc565b505050565b60006012905090565b6000609c60009054906101000a900473ffffffffffffffffffffffffffffffffffffffff1673ffffffffffffffffffffffffffffffffffffffff16632e64cec16040518163ffffffff1660e01b815260040160206040518083038186803b158015610b2057600080fd5b505afa158015610b34573d6000803e3d6000fd5b505050506040513d601f19601f82011682018060405250810190610b5891906122ad565b905090565b600030905090565b6000610c07610b726114a4565b848460346000610b806114a4565b73ffffffffffffffffffffffffffffffffffffffff1673ffffffffffffffffffffffffffffffffffffffff16815260200190815260200160002060008873ffffffffffffffffffffffffffffffffffffffff1673ffffffffffffffffffffffffffffffffffffffff16815260200190815260200160002054610c029190612798565b6114ac565b6001905092915050565b609960019054906101000a900460ff1681565b609c60009054906101000a900473ffffffffffffffffffffffffffffffffffffffff1673ffffffffffffffffffffffffffffffffffffffff16636057361d826040518263ffffffff1660e01b8152600401610c7f91906126f0565b600060405180830381600087803b158015610c9957600080fd5b505af1158015610cad573d6000803e3d6000fd5b5050505050565b6000609854905090565b6000603360008373ffffffffffffffffffffffffffffffffffffffff1673ffffffffffffffffffffffffffffffffffffffff168152602001908152602001600020549050919050565b610d0f6114a4565b73ffffffffffffffffffffffffffffffffffffffff16610d2d610e57565b73ffffffffffffffffffffffffffffffffffffffff1614610d83576040517f08c379a0000000000000000000000000000000000000000000000000000000008152600401610d7a90612650565b60405180910390fd5b600073ffffffffffffffffffffffffffffffffffffffff16606560009054906101000a900473ffffffffffffffffffffffffffffffffffffffff1673ffffffffffffffffffffffffffffffffffffffff167f8be0079c531659141344cd1fd0a4f28419497f9722a3daafe3b4186f6b6457e060405160405180910390a36000606560006101000a81548173ffffffffffffffffffffffffffffffffffffffff021916908373ffffffffffffffffffffffffffffffffffffffff160217905550565b609960009054906101000a900460ff1681565b6000606560009054906101000a900473ffffffffffffffffffffffffffffffffffffffff16905090565b606060378054610e90906128b9565b80601f0160208091040260200160405190810160405280929190818152602001828054610ebc906128b9565b8015610f095780601f10610ede57610100808354040283529160200191610f09565b820191906000526020600020905b815481529060010190602001808311610eec57829003601f168201915b5050505050905090565b610f1b6114a4565b73ffffffffffffffffffffffffffffffffffffffff16610f39610e57565b73ffffffffffffffffffffffffffffffffffffffff1614610f8f576040517f08c379a0000000000000000000000000000000000000000000000000000000008152600401610f8690612650565b60405180910390fd5b610fa0610f9a6114a4565b826118f9565b50565b60008060346000610fb26114a4565b73ffffffffffffffffffffffffffffffffffffffff1673ffffffffffffffffffffffffffffffffffffffff16815260200190815260200160002060008573ffffffffffffffffffffffffffffffffffffffff1673ffffffffffffffffffffffffffffffffffffffff1681526020019081526020016000205490508281101561106f576040517f08c379a0000000000000000000000000000000000000000000000000000000008152600401611066906126b0565b60405180910390fd5b61108c61107a6114a4565b85858461108791906127ee565b6114ac565b600191505092915050565b60006064609760003373ffffffffffffffffffffffffffffffffffffffff1673ffffffffffffffffffffffffffffffffffffffff168152602001908152602001600020819055506110f06110e96114a4565b8484611677565b6001905092915050565b60976020528060005260406000206000915090505481565b600060019054906101000a900460ff1680611138575060008054906101000a900460ff16155b611177576040517f08c379a000000000000000000000000000000000000000000000000000000000815260040161116e906125f0565b60405180910390fd5b60008060019054906101000a900460ff1615905080156111c7576001600060016101000a81548160ff02191690831515021790555060016000806101000a81548160ff0219169083151502179055505b6111d18484611a4e565b6111e26111dc6114a4565b836118f9565b6111ea611b3b565b801561120b5760008060016101000a81548160ff0219169083151502179055505b50505050565b60985481565b6000609760003373ffffffffffffffffffffffffffffffffffffffff1673ffffffffffffffffffffffffffffffffffffffff16815260200190815260200160002054905090565b6000603460008473ffffffffffffffffffffffffffffffffffffffff1673ffffffffffffffffffffffffffffffffffffffff16815260200190815260200160002060008373ffffffffffffffffffffffffffffffffffffffff1673ffffffffffffffffffffffffffffffffffffffff16815260200190815260200160002054905092915050565b609960029054906101000a900460ff1681565b6113006114a4565b73ffffffffffffffffffffffffffffffffffffffff1661131e610e57565b73ffffffffffffffffffffffffffffffffffffffff1614611374576040517f08c379a000000000000000000000000000000000000000000000000000000000815260040161136b90612650565b60405180910390fd5b600073ffffffffffffffffffffffffffffffffffffffff168173ffffffffffffffffffffffffffffffffffffffff1614156113e4576040517f08c379a00000000000000000000000000000000000000000000000000000000081526004016113db90612590565b60405180910390fd5b8073ffffffffffffffffffffffffffffffffffffffff16606560009054906101000a900473ffffffffffffffffffffffffffffffffffffffff1673ffffffffffffffffffffffffffffffffffffffff167f8be0079c531659141344cd1fd0a4f28419497f9722a3daafe3b4186f6b6457e060405160405180910390a380606560006101000a81548173ffffffffffffffffffffffffffffffffffffffff021916908373ffffffffffffffffffffffffffffffffffffffff16021790555050565b600033905090565b600073ffffffffffffffffffffffffffffffffffffffff168373ffffffffffffffffffffffffffffffffffffffff16141561151c576040517f08c379a000000000000000000000000000000000000000000000000000000000815260040161151390612690565b60405180910390fd5b600073ffffffffffffffffffffffffffffffffffffffff168273ffffffffffffffffffffffffffffffffffffffff16141561158c576040517f08c379a0000000000000000000000000000000000000000000000000000000008152600401611583906125b0565b60405180910390fd5b80603460008573ffffffffffffffffffffffffffffffffffffffff1673ffffffffffffffffffffffffffffffffffffffff16815260200190815260200160002060008473ffffffffffffffffffffffffffffffffffffffff1673ffffffffffffffffffffffffffffffffffffffff168152602001908152602001600020819055508173ffffffffffffffffffffffffffffffffffffffff168373ffffffffffffffffffffffffffffffffffffffff167f8c5be1e5ebec7d5bd14f71427d1e84f3dd0314c0f7b2291e5b200ac8c7c3b9258360405161166a91906126f0565b60405180910390a3505050565b600073ffffffffffffffffffffffffffffffffffffffff168373ffffffffffffffffffffffffffffffffffffffff1614156116e7576040517f08c379a00000000000000000000000000000000000000000000000000000000081526004016116de90612670565b60405180910390fd5b600073ffffffffffffffffffffffffffffffffffffffff168273ffffffffffffffffffffffffffffffffffffffff161415611757576040517f08c379a000000000000000000000000000000000000000000000000000000000815260040161174e90612570565b60405180910390fd5b611762838383611c24565b6000603360008573ffffffffffffffffffffffffffffffffffffffff1673ffffffffffffffffffffffffffffffffffffffff168152602001908152602001600020549050818110156117e9576040517f08c379a00000000000000000000000000000000000000000000000000000000081526004016117e0906125d0565b60405180910390fd5b81816117f591906127ee565b603360008673ffffffffffffffffffffffffffffffffffffffff1673ffffffffffffffffffffffffffffffffffffffff1681526020019081526020016000208190555081603360008573ffffffffffffffffffffffffffffffffffffffff1673ffffffffffffffffffffffffffffffffffffffff16815260200190815260200160002060008282546118879190612798565b925050819055508273ffffffffffffffffffffffffffffffffffffffff168473ffffffffffffffffffffffffffffffffffffffff167fddf252ad1be2c89b69c2b068fc378daa952ba7f163c4a11628f55a4df523b3ef846040516118eb91906126f0565b60405180910390a350505050565b600073ffffffffffffffffffffffffffffffffffffffff168273ffffffffffffffffffffffffffffffffffffffff161415611969576040517f08c379a0000000000000000000000000000000000000000000000000000000008152600401611960906126d0565b60405180910390fd5b61197560008383611c24565b80603560008282546119879190612798565b9250508190555080603360008473ffffffffffffffffffffffffffffffffffffffff1673ffffffffffffffffffffffffffffffffffffffff16815260200190815260200160002060008282546119dd9190612798565b925050819055508173ffffffffffffffffffffffffffffffffffffffff16600073ffffffffffffffffffffffffffffffffffffffff167fddf252ad1be2c89b69c2b068fc378daa952ba7f163c4a11628f55a4df523b3ef83604051611a4291906126f0565b60405180910390a35050565b600060019054906101000a900460ff1680611a74575060008054906101000a900460ff16155b611ab3576040517f08c379a0000000000000000000000000000000000000000000000000000000008152600401611aaa906125f0565b60405180910390fd5b60008060019054906101000a900460ff161590508015611b03576001600060016101000a81548160ff02191690831515021790555060016000806101000a81548160ff0219169083151502179055505b611b0b611c29565b611b158383611d02565b8015611b365760008060016101000a81548160ff0219169083151502179055505b505050565b600060019054906101000a900460ff1680611b61575060008054906101000a900460ff16155b611ba0576040517f08c379a0000000000000000000000000000000000000000000000000000000008152600401611b97906125f0565b60405180910390fd5b60008060019054906101000a900460ff161590508015611bf0576001600060016101000a81548160ff02191690831515021790555060016000806101000a81548160ff0219169083151502179055505b611bf8611c29565b611c00611e0b565b8015611c215760008060016101000a81548160ff0219169083151502179055505b50565b505050565b600060019054906101000a900460ff1680611c4f575060008054906101000a900460ff16155b611c8e576040517f08c379a0000000000000000000000000000000000000000000000000000000008152600401611c85906125f0565b60405180910390fd5b60008060019054906101000a900460ff161590508015611cde576001600060016101000a81548160ff02191690831515021790555060016000806101000a81548160ff0219169083151502179055505b8015611cff5760008060016101000a81548160ff0219169083151502179055505b50565b600060019054906101000a900460ff1680611d28575060008054906101000a900460ff16155b611d67576040517f08c379a0000000000000000000000000000000000000000000000000000000008152600401611d5e906125f0565b60405180910390fd5b60008060019054906101000a900460ff161590508015611db7576001600060016101000a81548160ff02191690831515021790555060016000806101000a81548160ff0219169083151502179055505b8260369080519060200190611dcd929190611f8d565b508160379080519060200190611de4929190611f8d565b508015611e065760008060016101000a81548160ff0219169083151502179055505b505050565b600060019054906101000a900460ff1680611e31575060008054906101000a900460ff16155b611e70576040517f08c379a0000000000000000000000000000000000000000000000000000000008152600401611e67906125f0565b60405180910390fd5b60008060019054906101000a900460ff161590508015611ec0576001600060016101000a81548160ff02191690831515021790555060016000806101000a81548160ff0219169083151502179055505b6000611eca6114a4565b905080606560006101000a81548173ffffffffffffffffffffffffffffffffffffffff021916908373ffffffffffffffffffffffffffffffffffffffff1602179055508073ffffffffffffffffffffffffffffffffffffffff16600073ffffffffffffffffffffffffffffffffffffffff167f8be0079c531659141344cd1fd0a4f28419497f9722a3daafe3b4186f6b6457e060405160405180910390a3508015611f8a5760008060016101000a81548160ff0219169083151502179055505b50565b828054611f99906128b9565b90600052602060002090601f016020900481019282611fbb5760008555612002565b82601f10611fd457805160ff1916838001178555612002565b82800160010185558215612002579182015b82811115612001578251825591602001919060010190611fe6565b5b50905061200f9190612013565b5090565b5b8082111561202c576000816000905550600101612014565b5090565b600061204361203e8461274b565b612726565b90508281526020810184848401111561205b57600080fd5b612066848285612877565b509392505050565b60008135905061207d81612cfc565b92915050565b60008151905061209281612d13565b92915050565b600082601f8301126120a957600080fd5b81356120b9848260208601612030565b91505092915050565b6000813590506120d181612d2a565b92915050565b6000815190506120e681612d2a565b92915050565b6000602082840312156120fe57600080fd5b600061210c8482850161206e565b91505092915050565b6000806040838503121561212857600080fd5b60006121368582860161206e565b92505060206121478582860161206e565b9150509250929050565b60008060006060848603121561216657600080fd5b60006121748682870161206e565b93505060206121858682870161206e565b9250506040612196868287016120c2565b9150509250925092565b600080604083850312156121b357600080fd5b60006121c18582860161206e565b92505060206121d2858286016120c2565b9150509250929050565b6000602082840312156121ee57600080fd5b60006121fc84828501612083565b91505092915050565b60008060006060848603121561221a57600080fd5b600084013567ffffffffffffffff81111561223457600080fd5b61224086828701612098565b935050602084013567ffffffffffffffff81111561225d57600080fd5b61226986828701612098565b925050604061227a868287016120c2565b9150509250925092565b60006020828403121561229657600080fd5b60006122a4848285016120c2565b91505092915050565b6000602082840312156122bf57600080fd5b60006122cd848285016120d7565b91505092915050565b6122df81612822565b82525050565b6122ee81612834565b82525050565b60006122ff8261277c565b6123098185612787565b9350612319818560208601612886565b612322816129a9565b840191505092915050565b600061233a602383612787565b9150612345826129ba565b604082019050919050565b600061235d602683612787565b915061236882612a09565b604082019050919050565b6000612380602283612787565b915061238b82612a58565b604082019050919050565b60006123a3602683612787565b91506123ae82612aa7565b604082019050919050565b60006123c6602e83612787565b91506123d182612af6565b604082019050919050565b60006123e9601e83612787565b91506123f482612b45565b602082019050919050565b600061240c602883612787565b915061241782612b6e565b604082019050919050565b600061242f602083612787565b915061243a82612bbd565b602082019050919050565b6000612452602583612787565b915061245d82612be6565b604082019050919050565b6000612475602483612787565b915061248082612c35565b604082019050919050565b6000612498602583612787565b91506124a382612c84565b604082019050919050565b60006124bb601f83612787565b91506124c682612cd3565b602082019050919050565b6124da81612860565b82525050565b6124e98161286a565b82525050565b600060208201905061250460008301846122d6565b92915050565b600060408201905061251f60008301856122d6565b61252c60208301846124d1565b9392505050565b600060208201905061254860008301846122e5565b92915050565b6000602082019050818103600083015261256881846122f4565b905092915050565b600060208201905081810360008301526125898161232d565b9050919050565b600060208201905081810360008301526125a981612350565b9050919050565b600060208201905081810360008301526125c981612373565b9050919050565b600060208201905081810360008301526125e981612396565b9050919050565b60006020820190508181036000830152612609816123b9565b9050919050565b60006020820190508181036000830152612629816123dc565b9050919050565b60006020820190508181036000830152612649816123ff565b9050919050565b6000602082019050818103600083015261266981612422565b9050919050565b6000602082019050818103600083015261268981612445565b9050919050565b600060208201905081810360008301526126a981612468565b9050919050565b600060208201905081810360008301526126c98161248b565b9050919050565b600060208201905081810360008301526126e9816124ae565b9050919050565b600060208201905061270560008301846124d1565b92915050565b600060208201905061272060008301846124e0565b92915050565b6000612730612741565b905061273c82826128eb565b919050565b6000604051905090565b600067ffffffffffffffff8211156127665761276561297a565b5b61276f826129a9565b9050602081019050919050565b600081519050919050565b600082825260208201905092915050565b60006127a382612860565b91506127ae83612860565b9250827fffffffffffffffffffffffffffffffffffffffffffffffffffffffffffffffff038211156127e3576127e261291c565b5b828201905092915050565b60006127f982612860565b915061280483612860565b9250828210156128175761281661291c565b5b828203905092915050565b600061282d82612840565b9050919050565b60008115159050919050565b600073ffffffffffffffffffffffffffffffffffffffff82169050919050565b6000819050919050565b600060ff82169050919050565b82818337600083830152505050565b60005b838110156128a4578082015181840152602081019050612889565b838111156128b3576000848401525b50505050565b600060028204905060018216806128d157607f821691505b602082108114156128e5576128e461294b565b5b50919050565b6128f4826129a9565b810181811067ffffffffffffffff821117156129135761291261297a565b5b80604052505050565b7f4e487b7100000000000000000000000000000000000000000000000000000000600052601160045260246000fd5b7f4e487b7100000000000000000000000000000000000000000000000000000000600052602260045260246000fd5b7f4e487b7100000000000000000000000000000000000000000000000000000000600052604160045260246000fd5b6000601f19601f8301169050919050565b7f45524332303a207472616e7366657220746f20746865207a65726f206164647260008201527f6573730000000000000000000000000000000000000000000000000000000000602082015250565b7f4f776e61626c653a206e6577206f776e657220697320746865207a65726f206160008201527f6464726573730000000000000000000000000000000000000000000000000000602082015250565b7f45524332303a20617070726f766520746f20746865207a65726f20616464726560008201527f7373000000000000000000000000000000000000000000000000000000000000602082015250565b7f45524332303a207472616e7366657220616d6f756e742065786365656473206260008201527f616c616e63650000000000000000000000000000000000000000000000000000602082015250565b7f496e697469616c697a61626c653a20636f6e747261637420697320616c72656160008201527f647920696e697469616c697a6564000000000000000000000000000000000000602082015250565b7f4d6967726174696f6e2056383a20416c7265616479204d696772617465640000600082015250565b7f45524332303a207472616e7366657220616d6f756e742065786365656473206160008201527f6c6c6f77616e6365000000000000000000000000000000000000000000000000602082015250565b7f4f776e61626c653a2063616c6c6572206973206e6f7420746865206f776e6572600082015250565b7f45524332303a207472616e736665722066726f6d20746865207a65726f20616460008201527f6472657373000000000000000000000000000000000000000000000000000000602082015250565b7f45524332303a20617070726f76652066726f6d20746865207a65726f2061646460008201527f7265737300000000000000000000000000000000000000000000000000000000602082015250565b7f45524332303a2064656372656173656420616c6c6f77616e63652062656c6f7760008201527f207a65726f000000000000000000000000000000000000000000000000000000602082015250565b7f45524332303a206d696e7420746f20746865207a65726f206164647265737300600082015250565b612d0581612822565b8114612d1057600080fd5b50565b612d1c81612834565b8114612d2757600080fd5b50565b612d3381612860565b8114612d3e57600080fd5b5056fea26469706673582212208db21c36f21293b187789f39fd7c793124b4f0e5acd63b576ebcd9c40ca8599f64736f6c63430008030033",
  "linkReferences": {},
  "deployedLinkReferences": {}
}