{
  "_format": "hh-sol-artifact-1",
  "contractName": "GravityTokenV7",
  "sourceName": "contracts/GravityTokenV7.sol",
  "abi": [
    {
      "anonymous": false,
      "inputs": [
        {
          "indexed": true,
          "internalType": "address",
          "name": "owner",
          "type": "address"
        },
        {
          "indexed": true,
          "internalType": "address",
          "name": "spender",
          "type": "address"
        },
        {
          "indexed": false,
          "internalType": "uint256",
          "name": "value",
          "type": "uint256"
        }
      ],
      "name": "Approval",
      "type": "event"
    },
    {
      "anonymous": false,
      "inputs": [
        {
          "indexed": true,
          "internalType": "address",
          "name": "previousOwner",
          "type": "address"
        },
        {
          "indexed": true,
          "internalType": "address",
          "name": "newOwner",
          "type": "address"
        }
      ],
      "name": "OwnershipTransferred",
      "type": "event"
    },
    {
      "anonymous": false,
      "inputs": [
        {
          "indexed": true,
          "internalType": "address",
          "name": "from",
          "type": "address"
        },
        {
          "indexed": true,
          "internalType": "address",
          "name": "to",
          "type": "address"
        },
        {
          "indexed": false,
          "internalType": "uint256",
          "name": "value",
          "type": "uint256"
        }
      ],
      "name": "Transfer",
      "type": "event"
    },
    {
      "inputs": [],
      "name": "_migrationV5",
      "outputs": [
        {
          "internalType": "bool",
          "name": "",
          "type": "bool"
        }
      ],
      "stateMutability": "view",
      "type": "function"
    },
    {
      "inputs": [],
      "name": "_migrationV6",
      "outputs": [
        {
          "internalType": "bool",
          "name": "",
          "type": "bool"
        }
      ],
      "stateMutability": "view",
      "type": "function"
    },
    {
      "inputs": [],
      "name": "_migrationV7",
      "outputs": [
        {
          "internalType": "bool",
          "name": "",
          "type": "bool"
        }
      ],
      "stateMutability": "view",
      "type": "function"
    },
    {
      "inputs": [
        {
          "internalType": "address",
          "name": "owner",
          "type": "address"
        },
        {
          "internalType": "address",
          "name": "spender",
          "type": "address"
        }
      ],
      "name": "allowance",
      "outputs": [
        {
          "internalType": "uint256",
          "name": "",
          "type": "uint256"
        }
      ],
      "stateMutability": "view",
      "type": "function"
    },
    {
      "inputs": [
        {
          "internalType": "address",
          "name": "spender",
          "type": "address"
        },
        {
          "internalType": "uint256",
          "name": "amount",
          "type": "uint256"
        }
      ],
      "name": "approve",
      "outputs": [
        {
          "internalType": "bool",
          "name": "",
          "type": "bool"
        }
      ],
      "stateMutability": "nonpayable",
      "type": "function"
    },
    {
      "inputs": [
        {
          "internalType": "address",
          "name": "account",
          "type": "address"
        }
      ],
      "name": "balanceOf",
      "outputs": [
        {
          "internalType": "uint256",
          "name": "",
          "type": "uint256"
        }
      ],
      "stateMutability": "view",
      "type": "function"
    },
    {
      "inputs": [],
      "name": "decimals",
      "outputs": [
        {
          "internalType": "uint8",
          "name": "",
          "type": "uint8"
        }
      ],
      "stateMutability": "view",
      "type": "function"
    },
    {
      "inputs": [
        {
          "internalType": "address",
          "name": "spender",
          "type": "address"
        },
        {
          "internalType": "uint256",
          "name": "subtractedValue",
          "type": "uint256"
        }
      ],
      "name": "decreaseAllowance",
      "outputs": [
        {
          "internalType": "bool",
          "name": "",
          "type": "bool"
        }
      ],
      "stateMutability": "nonpayable",
      "type": "function"
    },
    {
      "inputs": [
        {
          "internalType": "address",
          "name": "",
          "type": "address"
        }
      ],
      "name": "feeLedger",
      "outputs": [
        {
          "internalType": "uint256",
          "name": "",
          "type": "uint256"
        }
      ],
      "stateMutability": "view",
      "type": "function"
    },
    {
      "inputs": [],
      "name": "getAddress",
      "outputs": [
        {
          "internalType": "address",
          "name": "",
          "type": "address"
        }
      ],
      "stateMutability": "view",
      "type": "function"
    },
    {
      "inputs": [],
      "name": "getFees",
      "outputs": [
        {
          "internalType": "uint256",
          "name": "",
          "type": "uint256"
        }
      ],
      "stateMutability": "view",
      "type": "function"
    },
    {
      "inputs": [],
      "name": "getNum",
      "outputs": [
        {
          "internalType": "uint256",
          "name": "",
          "type": "uint256"
        }
      ],
      "stateMutability": "view",
      "type": "function"
    },
    {
      "inputs": [
        {
          "internalType": "address",
          "name": "spender",
          "type": "address"
        },
        {
          "internalType": "uint256",
          "name": "addedValue",
          "type": "uint256"
        }
      ],
      "name": "increaseAllowance",
      "outputs": [
        {
          "internalType": "bool",
          "name": "",
          "type": "bool"
        }
      ],
      "stateMutability": "nonpayable",
      "type": "function"
    },
    {
      "inputs": [
        {
          "internalType": "string",
          "name": "name",
          "type": "string"
        },
        {
          "internalType": "string",
          "name": "symbol",
          "type": "string"
        },
        {
          "internalType": "uint256",
          "name": "initialSupply",
          "type": "uint256"
        }
      ],
      "name": "initialize",
      "outputs": [],
      "stateMutability": "nonpayable",
      "type": "function"
    },
    {
      "inputs": [
        {
          "internalType": "address",
          "name": "_tokenAddress",
          "type": "address"
        }
      ],
      "name": "migrationV7",
      "outputs": [],
      "stateMutability": "nonpayable",
      "type": "function"
    },
    {
      "inputs": [
        {
          "internalType": "uint256",
          "name": "_amount",
          "type": "uint256"
        }
      ],
      "name": "mint",
      "outputs": [],
      "stateMutability": "nonpayable",
      "type": "function"
    },
    {
      "inputs": [],
      "name": "myNum",
      "outputs": [
        {
          "internalType": "uint256",
          "name": "",
          "type": "uint256"
        }
      ],
      "stateMutability": "view",
      "type": "function"
    },
    {
      "inputs": [],
      "name": "name",
      "outputs": [
        {
          "internalType": "string",
          "name": "",
          "type": "string"
        }
      ],
      "stateMutability": "view",
      "type": "function"
    },
    {
      "inputs": [],
      "name": "owner",
      "outputs": [
        {
          "internalType": "address",
          "name": "",
          "type": "address"
        }
      ],
      "stateMutability": "view",
      "type": "function"
    },
    {
      "inputs": [],
      "name": "renounceOwnership",
      "outputs": [],
      "stateMutability": "nonpayable",
      "type": "function"
    },
    {
      "inputs": [
        {
          "internalType": "address",
          "name": "_address",
          "type": "address"
        },
        {
          "internalType": "uint256",
          "name": "_amount",
          "type": "uint256"
        }
      ],
      "name": "sendContractTokens",
      "outputs": [],
      "stateMutability": "nonpayable",
      "type": "function"
    },
    {
      "inputs": [
        {
          "internalType": "address",
          "name": "_address",
          "type": "address"
        },
        {
          "internalType": "uint256",
          "name": "_amount",
          "type": "uint256"
        }
      ],
      "name": "sendGenericERC20",
      "outputs": [],
      "stateMutability": "nonpayable",
      "type": "function"
    },
    {
      "inputs": [],
      "name": "symbol",
      "outputs": [
        {
          "internalType": "string",
          "name": "",
          "type": "string"
        }
      ],
      "stateMutability": "view",
      "type": "function"
    },
    {
      "inputs": [],
      "name": "totalSupply",
      "outputs": [
        {
          "internalType": "uint256",
          "name": "",
          "type": "uint256"
        }
      ],
      "stateMutability": "view",
      "type": "function"
    },
    {
      "inputs": [
        {
          "internalType": "address",
          "name": "recipient",
          "type": "address"
        },
        {
          "internalType": "uint256",
          "name": "amount",
          "type": "uint256"
        }
      ],
      "name": "transfer",
      "outputs": [
        {
          "internalType": "bool",
          "name": "",
          "type": "bool"
        }
      ],
      "stateMutability": "nonpayable",
      "type": "function"
    },
    {
      "inputs": [
        {
          "internalType": "address",
          "name": "sender",
          "type": "address"
        },
        {
          "internalType": "address",
          "name": "recipient",
          "type": "address"
        },
        {
          "internalType": "uint256",
          "name": "amount",
          "type": "uint256"
        }
      ],
      "name": "transferFrom",
      "outputs": [
        {
          "internalType": "bool",
          "name": "",
          "type": "bool"
        }
      ],
      "stateMutability": "nonpayable",
      "type": "function"
    },
    {
      "inputs": [
        {
          "internalType": "address",
          "name": "newOwner",
          "type": "address"
        }
      ],
      "name": "transferOwnership",
      "outputs": [],
      "stateMutability": "nonpayable",
      "type": "function"
    }
  ],
  "bytecode": "0x608060405234801561001057600080fd5b50612ba1806100206000396000f3fe608060405234801561001057600080fd5b50600436106101a95760003560e01c8063715018a6116100f9578063ad3b4bf711610097578063db8d55f111610071578063db8d55f1146104c0578063dd62ed3e146104de578063e018fb5d1461050e578063f2fde38b1461052c576101a9565b8063ad3b4bf714610456578063b119490e14610486578063d4da005a146104a2576101a9565b806395d89b41116100d357806395d89b41146103bc578063a0712d68146103da578063a457c2d7146103f6578063a9059cbb14610426576101a9565b8063715018a6146103765780637e2f33ea146103805780638da5cb5b1461039e576101a9565b8063313ce5671161016657806351172f2e1161014057806351172f2e146102ee57806357d265ea1461030c57806367e0badb1461032857806370a0823114610346576101a9565b8063313ce5671461028257806338cc4831146102a057806339509351146102be576101a9565b806306fdde03146101ae578063095ea7b3146101cc57806318160ddd146101fc5780631b5cf4061461021a57806323b872dd14610236578063263c56cc14610266575b600080fd5b6101b6610548565b6040516101c39190612378565b60405180910390f35b6101e660048036038101906101e19190611ff3565b6105da565b6040516101f3919061235d565b60405180910390f35b6102046105f8565b604051610211919061251a565b60405180910390f35b610234600480360381019061022f9190611ff3565b610602565b005b610250600480360381019061024b9190611fa4565b61068d565b60405161025d919061235d565b60405180910390f35b610280600480360381019061027b9190611ff3565b61078e565b005b61028a6108be565b6040516102979190612535565b60405180910390f35b6102a86108c7565b6040516102b59190612319565b60405180910390f35b6102d860048036038101906102d39190611ff3565b6108cf565b6040516102e5919061235d565b60405180910390f35b6102f661097b565b604051610303919061235d565b60405180910390f35b61032660048036038101906103219190611f3f565b61098e565b005b610330610b1c565b60405161033d919061251a565b60405180910390f35b610360600480360381019061035b9190611f3f565b610b26565b60405161036d919061251a565b60405180910390f35b61037e610b6f565b005b610388610cac565b604051610395919061235d565b60405180910390f35b6103a6610cbf565b6040516103b39190612319565b60405180910390f35b6103c4610ce9565b6040516103d19190612378565b60405180910390f35b6103f460048036038101906103ef91906120d7565b610d7b565b005b610410600480360381019061040b9190611ff3565b610e0b565b60405161041d919061235d565b60405180910390f35b610440600480360381019061043b9190611ff3565b610eff565b60405161044d919061235d565b60405180910390f35b610470600480360381019061046b9190611f3f565b610f62565b60405161047d919061251a565b60405180910390f35b6104a0600480360381019061049b9190612058565b610f7a565b005b6104aa611079565b6040516104b7919061251a565b60405180910390f35b6104c861107f565b6040516104d5919061251a565b60405180910390f35b6104f860048036038101906104f39190611f68565b6110c6565b604051610505919061251a565b60405180910390f35b61051661114d565b604051610523919061235d565b60405180910390f35b61054660048036038101906105419190611f3f565b611160565b005b606060368054610557906126e3565b80601f0160208091040260200160405190810160405280929190818152602001828054610583906126e3565b80156105d05780601f106105a5576101008083540402835291602001916105d0565b820191906000526020600020905b8154815290600101906020018083116105b357829003601f168201915b5050505050905090565b60006105ee6105e761130c565b8484611314565b6001905092915050565b6000603554905090565b61060a61130c565b73ffffffffffffffffffffffffffffffffffffffff16610628610cbf565b73ffffffffffffffffffffffffffffffffffffffff161461067e576040517f08c379a00000000000000000000000000000000000000000000000000000000081526004016106759061247a565b60405180910390fd5b6106888282610eff565b505050565b600061069a8484846114df565b6000603460008673ffffffffffffffffffffffffffffffffffffffff1673ffffffffffffffffffffffffffffffffffffffff16815260200190815260200160002060006106e561130c565b73ffffffffffffffffffffffffffffffffffffffff1673ffffffffffffffffffffffffffffffffffffffff16815260200190815260200160002054905082811015610765576040517f08c379a000000000000000000000000000000000000000000000000000000000815260040161075c9061245a565b60405180910390fd5b6107828561077161130c565b858461077d9190612618565b611314565b60019150509392505050565b61079661130c565b73ffffffffffffffffffffffffffffffffffffffff166107b4610cbf565b73ffffffffffffffffffffffffffffffffffffffff161461080a576040517f08c379a00000000000000000000000000000000000000000000000000000000081526004016108019061247a565b60405180910390fd5b609960039054906101000a900473ffffffffffffffffffffffffffffffffffffffff1673ffffffffffffffffffffffffffffffffffffffff1663a9059cbb83836040518363ffffffff1660e01b8152600401610867929190612334565b602060405180830381600087803b15801561088157600080fd5b505af1158015610895573d6000803e3d6000fd5b505050506040513d601f19601f820116820180604052508101906108b9919061202f565b505050565b60006012905090565b600030905090565b60006109716108dc61130c565b8484603460006108ea61130c565b73ffffffffffffffffffffffffffffffffffffffff1673ffffffffffffffffffffffffffffffffffffffff16815260200190815260200160002060008873ffffffffffffffffffffffffffffffffffffffff1673ffffffffffffffffffffffffffffffffffffffff1681526020019081526020016000205461096c91906125c2565b611314565b6001905092915050565b609960019054906101000a900460ff1681565b61099661130c565b73ffffffffffffffffffffffffffffffffffffffff166109b4610cbf565b73ffffffffffffffffffffffffffffffffffffffff1614610a0a576040517f08c379a0000000000000000000000000000000000000000000000000000000008152600401610a019061247a565b60405180910390fd5b609960029054906101000a900460ff1615610a5a576040517f08c379a0000000000000000000000000000000000000000000000000000000008152600401610a519061243a565b60405180910390fd5b6001609960026101000a81548160ff02191690831515021790555080609a60006101000a81548173ffffffffffffffffffffffffffffffffffffffff021916908373ffffffffffffffffffffffffffffffffffffffff160217905550609a60009054906101000a900473ffffffffffffffffffffffffffffffffffffffff16609960036101000a81548173ffffffffffffffffffffffffffffffffffffffff021916908373ffffffffffffffffffffffffffffffffffffffff16021790555050565b6000609854905090565b6000603360008373ffffffffffffffffffffffffffffffffffffffff1673ffffffffffffffffffffffffffffffffffffffff168152602001908152602001600020549050919050565b610b7761130c565b73ffffffffffffffffffffffffffffffffffffffff16610b95610cbf565b73ffffffffffffffffffffffffffffffffffffffff1614610beb576040517f08c379a0000000000000000000000000000000000000000000000000000000008152600401610be29061247a565b60405180910390fd5b600073ffffffffffffffffffffffffffffffffffffffff16606560009054906101000a900473ffffffffffffffffffffffffffffffffffffffff1673ffffffffffffffffffffffffffffffffffffffff167f8be0079c531659141344cd1fd0a4f28419497f9722a3daafe3b4186f6b6457e060405160405180910390a36000606560006101000a81548173ffffffffffffffffffffffffffffffffffffffff021916908373ffffffffffffffffffffffffffffffffffffffff160217905550565b609960009054906101000a900460ff1681565b6000606560009054906101000a900473ffffffffffffffffffffffffffffffffffffffff16905090565b606060378054610cf8906126e3565b80601f0160208091040260200160405190810160405280929190818152602001828054610d24906126e3565b8015610d715780601f10610d4657610100808354040283529160200191610d71565b820191906000526020600020905b815481529060010190602001808311610d5457829003601f168201915b5050505050905090565b610d8361130c565b73ffffffffffffffffffffffffffffffffffffffff16610da1610cbf565b73ffffffffffffffffffffffffffffffffffffffff1614610df7576040517f08c379a0000000000000000000000000000000000000000000000000000000008152600401610dee9061247a565b60405180910390fd5b610e08610e0261130c565b82611761565b50565b60008060346000610e1a61130c565b73ffffffffffffffffffffffffffffffffffffffff1673ffffffffffffffffffffffffffffffffffffffff16815260200190815260200160002060008573ffffffffffffffffffffffffffffffffffffffff1673ffffffffffffffffffffffffffffffffffffffff16815260200190815260200160002054905082811015610ed7576040517f08c379a0000000000000000000000000000000000000000000000000000000008152600401610ece906124da565b60405180910390fd5b610ef4610ee261130c565b858584610eef9190612618565b611314565b600191505092915050565b60006064609760003373ffffffffffffffffffffffffffffffffffffffff1673ffffffffffffffffffffffffffffffffffffffff16815260200190815260200160002081905550610f58610f5161130c565b84846114df565b6001905092915050565b60976020528060005260406000206000915090505481565b600060019054906101000a900460ff1680610fa0575060008054906101000a900460ff16155b610fdf576040517f08c379a0000000000000000000000000000000000000000000000000000000008152600401610fd69061241a565b60405180910390fd5b60008060019054906101000a900460ff16159050801561102f576001600060016101000a81548160ff02191690831515021790555060016000806101000a81548160ff0219169083151502179055505b61103984846118b6565b61104a61104461130c565b83611761565b6110526119a3565b80156110735760008060016101000a81548160ff0219169083151502179055505b50505050565b60985481565b6000609760003373ffffffffffffffffffffffffffffffffffffffff1673ffffffffffffffffffffffffffffffffffffffff16815260200190815260200160002054905090565b6000603460008473ffffffffffffffffffffffffffffffffffffffff1673ffffffffffffffffffffffffffffffffffffffff16815260200190815260200160002060008373ffffffffffffffffffffffffffffffffffffffff1673ffffffffffffffffffffffffffffffffffffffff16815260200190815260200160002054905092915050565b609960029054906101000a900460ff1681565b61116861130c565b73ffffffffffffffffffffffffffffffffffffffff16611186610cbf565b73ffffffffffffffffffffffffffffffffffffffff16146111dc576040517f08c379a00000000000000000000000000000000000000000000000000000000081526004016111d39061247a565b60405180910390fd5b600073ffffffffffffffffffffffffffffffffffffffff168173ffffffffffffffffffffffffffffffffffffffff16141561124c576040517f08c379a0000000000000000000000000000000000000000000000000000000008152600401611243906123ba565b60405180910390fd5b8073ffffffffffffffffffffffffffffffffffffffff16606560009054906101000a900473ffffffffffffffffffffffffffffffffffffffff1673ffffffffffffffffffffffffffffffffffffffff167f8be0079c531659141344cd1fd0a4f28419497f9722a3daafe3b4186f6b6457e060405160405180910390a380606560006101000a81548173ffffffffffffffffffffffffffffffffffffffff021916908373ffffffffffffffffffffffffffffffffffffffff16021790555050565b600033905090565b600073ffffffffffffffffffffffffffffffffffffffff168373ffffffffffffffffffffffffffffffffffffffff161415611384576040517f08c379a000000000000000000000000000000000000000000000000000000000815260040161137b906124ba565b60405180910390fd5b600073ffffffffffffffffffffffffffffffffffffffff168273ffffffffffffffffffffffffffffffffffffffff1614156113f4576040517f08c379a00000000000000000000000000000000000000000000000000000000081526004016113eb906123da565b60405180910390fd5b80603460008573ffffffffffffffffffffffffffffffffffffffff1673ffffffffffffffffffffffffffffffffffffffff16815260200190815260200160002060008473ffffffffffffffffffffffffffffffffffffffff1673ffffffffffffffffffffffffffffffffffffffff168152602001908152602001600020819055508173ffffffffffffffffffffffffffffffffffffffff168373ffffffffffffffffffffffffffffffffffffffff167f8c5be1e5ebec7d5bd14f71427d1e84f3dd0314c0f7b2291e5b200ac8c7c3b925836040516114d2919061251a565b60405180910390a3505050565b600073ffffffffffffffffffffffffffffffffffffffff168373ffffffffffffffffffffffffffffffffffffffff16141561154f576040517f08c379a00000000000000000000000000000000000000000000000000000000081526004016115469061249a565b60405180910390fd5b600073ffffffffffffffffffffffffffffffffffffffff168273ffffffffffffffffffffffffffffffffffffffff1614156115bf576040517f08c379a00000000000000000000000000000000000000000000000000000000081526004016115b69061239a565b60405180910390fd5b6115ca838383611a8c565b6000603360008573ffffffffffffffffffffffffffffffffffffffff1673ffffffffffffffffffffffffffffffffffffffff16815260200190815260200160002054905081811015611651576040517f08c379a0000000000000000000000000000000000000000000000000000000008152600401611648906123fa565b60405180910390fd5b818161165d9190612618565b603360008673ffffffffffffffffffffffffffffffffffffffff1673ffffffffffffffffffffffffffffffffffffffff1681526020019081526020016000208190555081603360008573ffffffffffffffffffffffffffffffffffffffff1673ffffffffffffffffffffffffffffffffffffffff16815260200190815260200160002060008282546116ef91906125c2565b925050819055508273ffffffffffffffffffffffffffffffffffffffff168473ffffffffffffffffffffffffffffffffffffffff167fddf252ad1be2c89b69c2b068fc378daa952ba7f163c4a11628f55a4df523b3ef84604051611753919061251a565b60405180910390a350505050565b600073ffffffffffffffffffffffffffffffffffffffff168273ffffffffffffffffffffffffffffffffffffffff1614156117d1576040517f08c379a00000000000000000000000000000000000000000000000000000000081526004016117c8906124fa565b60405180910390fd5b6117dd60008383611a8c565b80603560008282546117ef91906125c2565b9250508190555080603360008473ffffffffffffffffffffffffffffffffffffffff1673ffffffffffffffffffffffffffffffffffffffff168152602001908152602001600020600082825461184591906125c2565b925050819055508173ffffffffffffffffffffffffffffffffffffffff16600073ffffffffffffffffffffffffffffffffffffffff167fddf252ad1be2c89b69c2b068fc378daa952ba7f163c4a11628f55a4df523b3ef836040516118aa919061251a565b60405180910390a35050565b600060019054906101000a900460ff16806118dc575060008054906101000a900460ff16155b61191b576040517f08c379a00000000000000000000000000000000000000000000000000000000081526004016119129061241a565b60405180910390fd5b60008060019054906101000a900460ff16159050801561196b576001600060016101000a81548160ff02191690831515021790555060016000806101000a81548160ff0219169083151502179055505b611973611a91565b61197d8383611b6a565b801561199e5760008060016101000a81548160ff0219169083151502179055505b505050565b600060019054906101000a900460ff16806119c9575060008054906101000a900460ff16155b611a08576040517f08c379a00000000000000000000000000000000000000000000000000000000081526004016119ff9061241a565b60405180910390fd5b60008060019054906101000a900460ff161590508015611a58576001600060016101000a81548160ff02191690831515021790555060016000806101000a81548160ff0219169083151502179055505b611a60611a91565b611a68611c73565b8015611a895760008060016101000a81548160ff0219169083151502179055505b50565b505050565b600060019054906101000a900460ff1680611ab7575060008054906101000a900460ff16155b611af6576040517f08c379a0000000000000000000000000000000000000000000000000000000008152600401611aed9061241a565b60405180910390fd5b60008060019054906101000a900460ff161590508015611b46576001600060016101000a81548160ff02191690831515021790555060016000806101000a81548160ff0219169083151502179055505b8015611b675760008060016101000a81548160ff0219169083151502179055505b50565b600060019054906101000a900460ff1680611b90575060008054906101000a900460ff16155b611bcf576040517f08c379a0000000000000000000000000000000000000000000000000000000008152600401611bc69061241a565b60405180910390fd5b60008060019054906101000a900460ff161590508015611c1f576001600060016101000a81548160ff02191690831515021790555060016000806101000a81548160ff0219169083151502179055505b8260369080519060200190611c35929190611df5565b508160379080519060200190611c4c929190611df5565b508015611c6e5760008060016101000a81548160ff0219169083151502179055505b505050565b600060019054906101000a900460ff1680611c99575060008054906101000a900460ff16155b611cd8576040517f08c379a0000000000000000000000000000000000000000000000000000000008152600401611ccf9061241a565b60405180910390fd5b60008060019054906101000a900460ff161590508015611d28576001600060016101000a81548160ff02191690831515021790555060016000806101000a81548160ff0219169083151502179055505b6000611d3261130c565b905080606560006101000a81548173ffffffffffffffffffffffffffffffffffffffff021916908373ffffffffffffffffffffffffffffffffffffffff1602179055508073ffffffffffffffffffffffffffffffffffffffff16600073ffffffffffffffffffffffffffffffffffffffff167f8be0079c531659141344cd1fd0a4f28419497f9722a3daafe3b4186f6b6457e060405160405180910390a3508015611df25760008060016101000a81548160ff0219169083151502179055505b50565b828054611e01906126e3565b90600052602060002090601f016020900481019282611e235760008555611e6a565b82601f10611e3c57805160ff1916838001178555611e6a565b82800160010185558215611e6a579182015b82811115611e69578251825591602001919060010190611e4e565b5b509050611e779190611e7b565b5090565b5b80821115611e94576000816000905550600101611e7c565b5090565b6000611eab611ea684612575565b612550565b905082815260208101848484011115611ec357600080fd5b611ece8482856126a1565b509392505050565b600081359050611ee581612b26565b92915050565b600081519050611efa81612b3d565b92915050565b600082601f830112611f1157600080fd5b8135611f21848260208601611e98565b91505092915050565b600081359050611f3981612b54565b92915050565b600060208284031215611f5157600080fd5b6000611f5f84828501611ed6565b91505092915050565b60008060408385031215611f7b57600080fd5b6000611f8985828601611ed6565b9250506020611f9a85828601611ed6565b9150509250929050565b600080600060608486031215611fb957600080fd5b6000611fc786828701611ed6565b9350506020611fd886828701611ed6565b9250506040611fe986828701611f2a565b9150509250925092565b6000806040838503121561200657600080fd5b600061201485828601611ed6565b925050602061202585828601611f2a565b9150509250929050565b60006020828403121561204157600080fd5b600061204f84828501611eeb565b91505092915050565b60008060006060848603121561206d57600080fd5b600084013567ffffffffffffffff81111561208757600080fd5b61209386828701611f00565b935050602084013567ffffffffffffffff8111156120b057600080fd5b6120bc86828701611f00565b92505060406120cd86828701611f2a565b9150509250925092565b6000602082840312156120e957600080fd5b60006120f784828501611f2a565b91505092915050565b6121098161264c565b82525050565b6121188161265e565b82525050565b6000612129826125a6565b61213381856125b1565b93506121438185602086016126b0565b61214c816127d3565b840191505092915050565b60006121646023836125b1565b915061216f826127e4565b604082019050919050565b60006121876026836125b1565b915061219282612833565b604082019050919050565b60006121aa6022836125b1565b91506121b582612882565b604082019050919050565b60006121cd6026836125b1565b91506121d8826128d1565b604082019050919050565b60006121f0602e836125b1565b91506121fb82612920565b604082019050919050565b6000612213601e836125b1565b915061221e8261296f565b602082019050919050565b60006122366028836125b1565b915061224182612998565b604082019050919050565b60006122596020836125b1565b9150612264826129e7565b602082019050919050565b600061227c6025836125b1565b915061228782612a10565b604082019050919050565b600061229f6024836125b1565b91506122aa82612a5f565b604082019050919050565b60006122c26025836125b1565b91506122cd82612aae565b604082019050919050565b60006122e5601f836125b1565b91506122f082612afd565b602082019050919050565b6123048161268a565b82525050565b61231381612694565b82525050565b600060208201905061232e6000830184612100565b92915050565b60006040820190506123496000830185612100565b61235660208301846122fb565b9392505050565b6000602082019050612372600083018461210f565b92915050565b60006020820190508181036000830152612392818461211e565b905092915050565b600060208201905081810360008301526123b381612157565b9050919050565b600060208201905081810360008301526123d38161217a565b9050919050565b600060208201905081810360008301526123f38161219d565b9050919050565b60006020820190508181036000830152612413816121c0565b9050919050565b60006020820190508181036000830152612433816121e3565b9050919050565b6000602082019050818103600083015261245381612206565b9050919050565b6000602082019050818103600083015261247381612229565b9050919050565b600060208201905081810360008301526124938161224c565b9050919050565b600060208201905081810360008301526124b38161226f565b9050919050565b600060208201905081810360008301526124d381612292565b9050919050565b600060208201905081810360008301526124f3816122b5565b9050919050565b60006020820190508181036000830152612513816122d8565b9050919050565b600060208201905061252f60008301846122fb565b92915050565b600060208201905061254a600083018461230a565b92915050565b600061255a61256b565b90506125668282612715565b919050565b6000604051905090565b600067ffffffffffffffff8211156125905761258f6127a4565b5b612599826127d3565b9050602081019050919050565b600081519050919050565b600082825260208201905092915050565b60006125cd8261268a565b91506125d88361268a565b9250827fffffffffffffffffffffffffffffffffffffffffffffffffffffffffffffffff0382111561260d5761260c612746565b5b828201905092915050565b60006126238261268a565b915061262e8361268a565b92508282101561264157612640612746565b5b828203905092915050565b60006126578261266a565b9050919050565b60008115159050919050565b600073ffffffffffffffffffffffffffffffffffffffff82169050919050565b6000819050919050565b600060ff82169050919050565b82818337600083830152505050565b60005b838110156126ce5780820151818401526020810190506126b3565b838111156126dd576000848401525b50505050565b600060028204905060018216806126fb57607f821691505b6020821081141561270f5761270e612775565b5b50919050565b61271e826127d3565b810181811067ffffffffffffffff8211171561273d5761273c6127a4565b5b80604052505050565b7f4e487b7100000000000000000000000000000000000000000000000000000000600052601160045260246000fd5b7f4e487b7100000000000000000000000000000000000000000000000000000000600052602260045260246000fd5b7f4e487b7100000000000000000000000000000000000000000000000000000000600052604160045260246000fd5b6000601f19601f8301169050919050565b7f45524332303a207472616e7366657220746f20746865207a65726f206164647260008201527f6573730000000000000000000000000000000000000000000000000000000000602082015250565b7f4f776e61626c653a206e6577206f776e657220697320746865207a65726f206160008201527f6464726573730000000000000000000000000000000000000000000000000000602082015250565b7f45524332303a20617070726f766520746f20746865207a65726f20616464726560008201527f7373000000000000000000000000000000000000000000000000000000000000602082015250565b7f45524332303a207472616e7366657220616d6f756e742065786365656473206260008201527f616c616e63650000000000000000000000000000000000000000000000000000602082015250565b7f496e697469616c697a61626c653a20636f6e747261637420697320616c72656160008201527f647920696e697469616c697a6564000000000000000000000000000000000000602082015250565b7f4d6967726174696f6e2056373a20416c7265616479204d696772617465640000600082015250565b7f45524332303a207472616e7366657220616d6f756e742065786365656473206160008201527f6c6c6f77616e6365000000000000000000000000000000000000000000000000602082015250565b7f4f776e61626c653a2063616c6c6572206973206e6f7420746865206f776e6572600082015250565b7f45524332303a207472616e736665722066726f6d20746865207a65726f20616460008201527f6472657373000000000000000000000000000000000000000000000000000000602082015250565b7f45524332303a20617070726f76652066726f6d20746865207a65726f2061646460008201527f7265737300000000000000000000000000000000000000000000000000000000602082015250565b7f45524332303a2064656372656173656420616c6c6f77616e63652062656c6f7760008201527f207a65726f000000000000000000000000000000000000000000000000000000602082015250565b7f45524332303a206d696e7420746f20746865207a65726f206164647265737300600082015250565b612b2f8161264c565b8114612b3a57600080fd5b50565b612b468161265e565b8114612b5157600080fd5b50565b612b5d8161268a565b8114612b6857600080fd5b5056fea26469706673582212202e7fb3da890be6d0f684b2055cbd7c75e7e3449bcd98c2affc6666d366df3be964736f6c63430008030033",
  "linkReferences": {},
  "deployedLinkReferences": {}
}