{
  "_format": "hh-sol-artifact-1",
  "contractName": "GravityToken",
  "sourceName": "contracts/GravityToken.sol",
  "abi": [
    {
      "anonymous": false,
      "inputs": [
        {
          "indexed": true,
          "internalType": "address",
          "name": "owner",
          "type": "address"
        },
        {
          "indexed": true,
          "internalType": "address",
          "name": "spender",
          "type": "address"
        },
        {
          "indexed": false,
          "internalType": "uint256",
          "name": "value",
          "type": "uint256"
        }
      ],
      "name": "Approval",
      "type": "event"
    },
    {
      "anonymous": false,
      "inputs": [
        {
          "indexed": true,
          "internalType": "address",
          "name": "previousOwner",
          "type": "address"
        },
        {
          "indexed": true,
          "internalType": "address",
          "name": "newOwner",
          "type": "address"
        }
      ],
      "name": "OwnershipTransferred",
      "type": "event"
    },
    {
      "anonymous": false,
      "inputs": [
        {
          "indexed": true,
          "internalType": "address",
          "name": "from",
          "type": "address"
        },
        {
          "indexed": true,
          "internalType": "address",
          "name": "to",
          "type": "address"
        },
        {
          "indexed": false,
          "internalType": "uint256",
          "name": "value",
          "type": "uint256"
        }
      ],
      "name": "Transfer",
      "type": "event"
    },
    {
      "inputs": [
        {
          "internalType": "address",
          "name": "owner",
          "type": "address"
        },
        {
          "internalType": "address",
          "name": "spender",
          "type": "address"
        }
      ],
      "name": "allowance",
      "outputs": [
        {
          "internalType": "uint256",
          "name": "",
          "type": "uint256"
        }
      ],
      "stateMutability": "view",
      "type": "function"
    },
    {
      "inputs": [
        {
          "internalType": "address",
          "name": "spender",
          "type": "address"
        },
        {
          "internalType": "uint256",
          "name": "amount",
          "type": "uint256"
        }
      ],
      "name": "approve",
      "outputs": [
        {
          "internalType": "bool",
          "name": "",
          "type": "bool"
        }
      ],
      "stateMutability": "nonpayable",
      "type": "function"
    },
    {
      "inputs": [
        {
          "internalType": "address",
          "name": "account",
          "type": "address"
        }
      ],
      "name": "balanceOf",
      "outputs": [
        {
          "internalType": "uint256",
          "name": "",
          "type": "uint256"
        }
      ],
      "stateMutability": "view",
      "type": "function"
    },
    {
      "inputs": [],
      "name": "decimals",
      "outputs": [
        {
          "internalType": "uint8",
          "name": "",
          "type": "uint8"
        }
      ],
      "stateMutability": "view",
      "type": "function"
    },
    {
      "inputs": [
        {
          "internalType": "address",
          "name": "spender",
          "type": "address"
        },
        {
          "internalType": "uint256",
          "name": "subtractedValue",
          "type": "uint256"
        }
      ],
      "name": "decreaseAllowance",
      "outputs": [
        {
          "internalType": "bool",
          "name": "",
          "type": "bool"
        }
      ],
      "stateMutability": "nonpayable",
      "type": "function"
    },
    {
      "inputs": [
        {
          "internalType": "address",
          "name": "spender",
          "type": "address"
        },
        {
          "internalType": "uint256",
          "name": "addedValue",
          "type": "uint256"
        }
      ],
      "name": "increaseAllowance",
      "outputs": [
        {
          "internalType": "bool",
          "name": "",
          "type": "bool"
        }
      ],
      "stateMutability": "nonpayable",
      "type": "function"
    },
    {
      "inputs": [
        {
          "internalType": "string",
          "name": "name",
          "type": "string"
        },
        {
          "internalType": "string",
          "name": "symbol",
          "type": "string"
        },
        {
          "internalType": "uint256",
          "name": "initialSupply",
          "type": "uint256"
        }
      ],
      "name": "initialize",
      "outputs": [],
      "stateMutability": "nonpayable",
      "type": "function"
    },
    {
      "inputs": [],
      "name": "name",
      "outputs": [
        {
          "internalType": "string",
          "name": "",
          "type": "string"
        }
      ],
      "stateMutability": "view",
      "type": "function"
    },
    {
      "inputs": [],
      "name": "owner",
      "outputs": [
        {
          "internalType": "address",
          "name": "",
          "type": "address"
        }
      ],
      "stateMutability": "view",
      "type": "function"
    },
    {
      "inputs": [],
      "name": "renounceOwnership",
      "outputs": [],
      "stateMutability": "nonpayable",
      "type": "function"
    },
    {
      "inputs": [],
      "name": "symbol",
      "outputs": [
        {
          "internalType": "string",
          "name": "",
          "type": "string"
        }
      ],
      "stateMutability": "view",
      "type": "function"
    },
    {
      "inputs": [],
      "name": "totalSupply",
      "outputs": [
        {
          "internalType": "uint256",
          "name": "",
          "type": "uint256"
        }
      ],
      "stateMutability": "view",
      "type": "function"
    },
    {
      "inputs": [
        {
          "internalType": "address",
          "name": "recipient",
          "type": "address"
        },
        {
          "internalType": "uint256",
          "name": "amount",
          "type": "uint256"
        }
      ],
      "name": "transfer",
      "outputs": [
        {
          "internalType": "bool",
          "name": "",
          "type": "bool"
        }
      ],
      "stateMutability": "nonpayable",
      "type": "function"
    },
    {
      "inputs": [
        {
          "internalType": "address",
          "name": "sender",
          "type": "address"
        },
        {
          "internalType": "address",
          "name": "recipient",
          "type": "address"
        },
        {
          "internalType": "uint256",
          "name": "amount",
          "type": "uint256"
        }
      ],
      "name": "transferFrom",
      "outputs": [
        {
          "internalType": "bool",
          "name": "",
          "type": "bool"
        }
      ],
      "stateMutability": "nonpayable",
      "type": "function"
    },
    {
      "inputs": [
        {
          "internalType": "address",
          "name": "newOwner",
          "type": "address"
        }
      ],
      "name": "transferOwnership",
      "outputs": [],
      "stateMutability": "nonpayable",
      "type": "function"
    }
  ],
  "bytecode": "0x608060405234801561001057600080fd5b5061239a806100206000396000f3fe608060405234801561001057600080fd5b50600436106100f55760003560e01c8063715018a611610097578063a9059cbb11610066578063a9059cbb1461028a578063b119490e146102ba578063dd62ed3e146102d6578063f2fde38b14610306576100f5565b8063715018a6146102145780638da5cb5b1461021e57806395d89b411461023c578063a457c2d71461025a576100f5565b806323b872dd116100d357806323b872dd14610166578063313ce5671461019657806339509351146101b457806370a08231146101e4576100f5565b806306fdde03146100fa578063095ea7b31461011857806318160ddd14610148575b600080fd5b610102610322565b60405161010f9190611bd1565b60405180910390f35b610132600480360381019061012d91906118ea565b6103b4565b60405161013f9190611bb6565b60405180910390f35b6101506103d2565b60405161015d9190611d53565b60405180910390f35b610180600480360381019061017b919061189b565b6103dc565b60405161018d9190611bb6565b60405180910390f35b61019e6104dd565b6040516101ab9190611d6e565b60405180910390f35b6101ce60048036038101906101c991906118ea565b6104e6565b6040516101db9190611bb6565b60405180910390f35b6101fe60048036038101906101f99190611836565b610592565b60405161020b9190611d53565b60405180910390f35b61021c6105db565b005b610226610718565b6040516102339190611b9b565b60405180910390f35b610244610742565b6040516102519190611bd1565b60405180910390f35b610274600480360381019061026f91906118ea565b6107d4565b6040516102819190611bb6565b60405180910390f35b6102a4600480360381019061029f91906118ea565b6108c8565b6040516102b19190611bb6565b60405180910390f35b6102d460048036038101906102cf9190611926565b6108e6565b005b6102f060048036038101906102eb919061185f565b6109e5565b6040516102fd9190611d53565b60405180910390f35b610320600480360381019061031b9190611836565b610a6c565b005b60606036805461033190611f1c565b80601f016020809104026020016040519081016040528092919081815260200182805461035d90611f1c565b80156103aa5780601f1061037f576101008083540402835291602001916103aa565b820191906000526020600020905b81548152906001019060200180831161038d57829003601f168201915b5050505050905090565b60006103c86103c1610c18565b8484610c20565b6001905092915050565b6000603554905090565b60006103e9848484610deb565b6000603460008673ffffffffffffffffffffffffffffffffffffffff1673ffffffffffffffffffffffffffffffffffffffff1681526020019081526020016000206000610434610c18565b73ffffffffffffffffffffffffffffffffffffffff1673ffffffffffffffffffffffffffffffffffffffff168152602001908152602001600020549050828110156104b4576040517f08c379a00000000000000000000000000000000000000000000000000000000081526004016104ab90611c93565b60405180910390fd5b6104d1856104c0610c18565b85846104cc9190611e51565b610c20565b60019150509392505050565b60006012905090565b60006105886104f3610c18565b848460346000610501610c18565b73ffffffffffffffffffffffffffffffffffffffff1673ffffffffffffffffffffffffffffffffffffffff16815260200190815260200160002060008873ffffffffffffffffffffffffffffffffffffffff1673ffffffffffffffffffffffffffffffffffffffff168152602001908152602001600020546105839190611dfb565b610c20565b6001905092915050565b6000603360008373ffffffffffffffffffffffffffffffffffffffff1673ffffffffffffffffffffffffffffffffffffffff168152602001908152602001600020549050919050565b6105e3610c18565b73ffffffffffffffffffffffffffffffffffffffff16610601610718565b73ffffffffffffffffffffffffffffffffffffffff1614610657576040517f08c379a000000000000000000000000000000000000000000000000000000000815260040161064e90611cb3565b60405180910390fd5b600073ffffffffffffffffffffffffffffffffffffffff16606560009054906101000a900473ffffffffffffffffffffffffffffffffffffffff1673ffffffffffffffffffffffffffffffffffffffff167f8be0079c531659141344cd1fd0a4f28419497f9722a3daafe3b4186f6b6457e060405160405180910390a36000606560006101000a81548173ffffffffffffffffffffffffffffffffffffffff021916908373ffffffffffffffffffffffffffffffffffffffff160217905550565b6000606560009054906101000a900473ffffffffffffffffffffffffffffffffffffffff16905090565b60606037805461075190611f1c565b80601f016020809104026020016040519081016040528092919081815260200182805461077d90611f1c565b80156107ca5780601f1061079f576101008083540402835291602001916107ca565b820191906000526020600020905b8154815290600101906020018083116107ad57829003601f168201915b5050505050905090565b600080603460006107e3610c18565b73ffffffffffffffffffffffffffffffffffffffff1673ffffffffffffffffffffffffffffffffffffffff16815260200190815260200160002060008573ffffffffffffffffffffffffffffffffffffffff1673ffffffffffffffffffffffffffffffffffffffff168152602001908152602001600020549050828110156108a0576040517f08c379a000000000000000000000000000000000000000000000000000000000815260040161089790611d13565b60405180910390fd5b6108bd6108ab610c18565b8585846108b89190611e51565b610c20565b600191505092915050565b60006108dc6108d5610c18565b8484610deb565b6001905092915050565b600060019054906101000a900460ff168061090c575060008054906101000a900460ff16155b61094b576040517f08c379a000000000000000000000000000000000000000000000000000000000815260040161094290611c73565b60405180910390fd5b60008060019054906101000a900460ff16159050801561099b576001600060016101000a81548160ff02191690831515021790555060016000806101000a81548160ff0219169083151502179055505b6109a5848461106d565b6109b66109b0610c18565b8361115a565b6109be6112af565b80156109df5760008060016101000a81548160ff0219169083151502179055505b50505050565b6000603460008473ffffffffffffffffffffffffffffffffffffffff1673ffffffffffffffffffffffffffffffffffffffff16815260200190815260200160002060008373ffffffffffffffffffffffffffffffffffffffff1673ffffffffffffffffffffffffffffffffffffffff16815260200190815260200160002054905092915050565b610a74610c18565b73ffffffffffffffffffffffffffffffffffffffff16610a92610718565b73ffffffffffffffffffffffffffffffffffffffff1614610ae8576040517f08c379a0000000000000000000000000000000000000000000000000000000008152600401610adf90611cb3565b60405180910390fd5b600073ffffffffffffffffffffffffffffffffffffffff168173ffffffffffffffffffffffffffffffffffffffff161415610b58576040517f08c379a0000000000000000000000000000000000000000000000000000000008152600401610b4f90611c13565b60405180910390fd5b8073ffffffffffffffffffffffffffffffffffffffff16606560009054906101000a900473ffffffffffffffffffffffffffffffffffffffff1673ffffffffffffffffffffffffffffffffffffffff167f8be0079c531659141344cd1fd0a4f28419497f9722a3daafe3b4186f6b6457e060405160405180910390a380606560006101000a81548173ffffffffffffffffffffffffffffffffffffffff021916908373ffffffffffffffffffffffffffffffffffffffff16021790555050565b600033905090565b600073ffffffffffffffffffffffffffffffffffffffff168373ffffffffffffffffffffffffffffffffffffffff161415610c90576040517f08c379a0000000000000000000000000000000000000000000000000000000008152600401610c8790611cf3565b60405180910390fd5b600073ffffffffffffffffffffffffffffffffffffffff168273ffffffffffffffffffffffffffffffffffffffff161415610d00576040517f08c379a0000000000000000000000000000000000000000000000000000000008152600401610cf790611c33565b60405180910390fd5b80603460008573ffffffffffffffffffffffffffffffffffffffff1673ffffffffffffffffffffffffffffffffffffffff16815260200190815260200160002060008473ffffffffffffffffffffffffffffffffffffffff1673ffffffffffffffffffffffffffffffffffffffff168152602001908152602001600020819055508173ffffffffffffffffffffffffffffffffffffffff168373ffffffffffffffffffffffffffffffffffffffff167f8c5be1e5ebec7d5bd14f71427d1e84f3dd0314c0f7b2291e5b200ac8c7c3b92583604051610dde9190611d53565b60405180910390a3505050565b600073ffffffffffffffffffffffffffffffffffffffff168373ffffffffffffffffffffffffffffffffffffffff161415610e5b576040517f08c379a0000000000000000000000000000000000000000000000000000000008152600401610e5290611cd3565b60405180910390fd5b600073ffffffffffffffffffffffffffffffffffffffff168273ffffffffffffffffffffffffffffffffffffffff161415610ecb576040517f08c379a0000000000000000000000000000000000000000000000000000000008152600401610ec290611bf3565b60405180910390fd5b610ed6838383611398565b6000603360008573ffffffffffffffffffffffffffffffffffffffff1673ffffffffffffffffffffffffffffffffffffffff16815260200190815260200160002054905081811015610f5d576040517f08c379a0000000000000000000000000000000000000000000000000000000008152600401610f5490611c53565b60405180910390fd5b8181610f699190611e51565b603360008673ffffffffffffffffffffffffffffffffffffffff1673ffffffffffffffffffffffffffffffffffffffff1681526020019081526020016000208190555081603360008573ffffffffffffffffffffffffffffffffffffffff1673ffffffffffffffffffffffffffffffffffffffff1681526020019081526020016000206000828254610ffb9190611dfb565b925050819055508273ffffffffffffffffffffffffffffffffffffffff168473ffffffffffffffffffffffffffffffffffffffff167fddf252ad1be2c89b69c2b068fc378daa952ba7f163c4a11628f55a4df523b3ef8460405161105f9190611d53565b60405180910390a350505050565b600060019054906101000a900460ff1680611093575060008054906101000a900460ff16155b6110d2576040517f08c379a00000000000000000000000000000000000000000000000000000000081526004016110c990611c73565b60405180910390fd5b60008060019054906101000a900460ff161590508015611122576001600060016101000a81548160ff02191690831515021790555060016000806101000a81548160ff0219169083151502179055505b61112a61139d565b6111348383611476565b80156111555760008060016101000a81548160ff0219169083151502179055505b505050565b600073ffffffffffffffffffffffffffffffffffffffff168273ffffffffffffffffffffffffffffffffffffffff1614156111ca576040517f08c379a00000000000000000000000000000000000000000000000000000000081526004016111c190611d33565b60405180910390fd5b6111d660008383611398565b80603560008282546111e89190611dfb565b9250508190555080603360008473ffffffffffffffffffffffffffffffffffffffff1673ffffffffffffffffffffffffffffffffffffffff168152602001908152602001600020600082825461123e9190611dfb565b925050819055508173ffffffffffffffffffffffffffffffffffffffff16600073ffffffffffffffffffffffffffffffffffffffff167fddf252ad1be2c89b69c2b068fc378daa952ba7f163c4a11628f55a4df523b3ef836040516112a39190611d53565b60405180910390a35050565b600060019054906101000a900460ff16806112d5575060008054906101000a900460ff16155b611314576040517f08c379a000000000000000000000000000000000000000000000000000000000815260040161130b90611c73565b60405180910390fd5b60008060019054906101000a900460ff161590508015611364576001600060016101000a81548160ff02191690831515021790555060016000806101000a81548160ff0219169083151502179055505b61136c61139d565b61137461157f565b80156113955760008060016101000a81548160ff0219169083151502179055505b50565b505050565b600060019054906101000a900460ff16806113c3575060008054906101000a900460ff16155b611402576040517f08c379a00000000000000000000000000000000000000000000000000000000081526004016113f990611c73565b60405180910390fd5b60008060019054906101000a900460ff161590508015611452576001600060016101000a81548160ff02191690831515021790555060016000806101000a81548160ff0219169083151502179055505b80156114735760008060016101000a81548160ff0219169083151502179055505b50565b600060019054906101000a900460ff168061149c575060008054906101000a900460ff16155b6114db576040517f08c379a00000000000000000000000000000000000000000000000000000000081526004016114d290611c73565b60405180910390fd5b60008060019054906101000a900460ff16159050801561152b576001600060016101000a81548160ff02191690831515021790555060016000806101000a81548160ff0219169083151502179055505b8260369080519060200190611541929190611701565b508160379080519060200190611558929190611701565b50801561157a5760008060016101000a81548160ff0219169083151502179055505b505050565b600060019054906101000a900460ff16806115a5575060008054906101000a900460ff16155b6115e4576040517f08c379a00000000000000000000000000000000000000000000000000000000081526004016115db90611c73565b60405180910390fd5b60008060019054906101000a900460ff161590508015611634576001600060016101000a81548160ff02191690831515021790555060016000806101000a81548160ff0219169083151502179055505b600061163e610c18565b905080606560006101000a81548173ffffffffffffffffffffffffffffffffffffffff021916908373ffffffffffffffffffffffffffffffffffffffff1602179055508073ffffffffffffffffffffffffffffffffffffffff16600073ffffffffffffffffffffffffffffffffffffffff167f8be0079c531659141344cd1fd0a4f28419497f9722a3daafe3b4186f6b6457e060405160405180910390a35080156116fe5760008060016101000a81548160ff0219169083151502179055505b50565b82805461170d90611f1c565b90600052602060002090601f01602090048101928261172f5760008555611776565b82601f1061174857805160ff1916838001178555611776565b82800160010185558215611776579182015b8281111561177557825182559160200191906001019061175a565b5b5090506117839190611787565b5090565b5b808211156117a0576000816000905550600101611788565b5090565b60006117b76117b284611dae565b611d89565b9050828152602081018484840111156117cf57600080fd5b6117da848285611eda565b509392505050565b6000813590506117f181612336565b92915050565b600082601f83011261180857600080fd5b81356118188482602086016117a4565b91505092915050565b6000813590506118308161234d565b92915050565b60006020828403121561184857600080fd5b6000611856848285016117e2565b91505092915050565b6000806040838503121561187257600080fd5b6000611880858286016117e2565b9250506020611891858286016117e2565b9150509250929050565b6000806000606084860312156118b057600080fd5b60006118be868287016117e2565b93505060206118cf868287016117e2565b92505060406118e086828701611821565b9150509250925092565b600080604083850312156118fd57600080fd5b600061190b858286016117e2565b925050602061191c85828601611821565b9150509250929050565b60008060006060848603121561193b57600080fd5b600084013567ffffffffffffffff81111561195557600080fd5b611961868287016117f7565b935050602084013567ffffffffffffffff81111561197e57600080fd5b61198a868287016117f7565b925050604061199b86828701611821565b9150509250925092565b6119ae81611e85565b82525050565b6119bd81611e97565b82525050565b60006119ce82611ddf565b6119d88185611dea565b93506119e8818560208601611ee9565b6119f18161200c565b840191505092915050565b6000611a09602383611dea565b9150611a148261201d565b604082019050919050565b6000611a2c602683611dea565b9150611a378261206c565b604082019050919050565b6000611a4f602283611dea565b9150611a5a826120bb565b604082019050919050565b6000611a72602683611dea565b9150611a7d8261210a565b604082019050919050565b6000611a95602e83611dea565b9150611aa082612159565b604082019050919050565b6000611ab8602883611dea565b9150611ac3826121a8565b604082019050919050565b6000611adb602083611dea565b9150611ae6826121f7565b602082019050919050565b6000611afe602583611dea565b9150611b0982612220565b604082019050919050565b6000611b21602483611dea565b9150611b2c8261226f565b604082019050919050565b6000611b44602583611dea565b9150611b4f826122be565b604082019050919050565b6000611b67601f83611dea565b9150611b728261230d565b602082019050919050565b611b8681611ec3565b82525050565b611b9581611ecd565b82525050565b6000602082019050611bb060008301846119a5565b92915050565b6000602082019050611bcb60008301846119b4565b92915050565b60006020820190508181036000830152611beb81846119c3565b905092915050565b60006020820190508181036000830152611c0c816119fc565b9050919050565b60006020820190508181036000830152611c2c81611a1f565b9050919050565b60006020820190508181036000830152611c4c81611a42565b9050919050565b60006020820190508181036000830152611c6c81611a65565b9050919050565b60006020820190508181036000830152611c8c81611a88565b9050919050565b60006020820190508181036000830152611cac81611aab565b9050919050565b60006020820190508181036000830152611ccc81611ace565b9050919050565b60006020820190508181036000830152611cec81611af1565b9050919050565b60006020820190508181036000830152611d0c81611b14565b9050919050565b60006020820190508181036000830152611d2c81611b37565b9050919050565b60006020820190508181036000830152611d4c81611b5a565b9050919050565b6000602082019050611d686000830184611b7d565b92915050565b6000602082019050611d836000830184611b8c565b92915050565b6000611d93611da4565b9050611d9f8282611f4e565b919050565b6000604051905090565b600067ffffffffffffffff821115611dc957611dc8611fdd565b5b611dd28261200c565b9050602081019050919050565b600081519050919050565b600082825260208201905092915050565b6000611e0682611ec3565b9150611e1183611ec3565b9250827fffffffffffffffffffffffffffffffffffffffffffffffffffffffffffffffff03821115611e4657611e45611f7f565b5b828201905092915050565b6000611e5c82611ec3565b9150611e6783611ec3565b925082821015611e7a57611e79611f7f565b5b828203905092915050565b6000611e9082611ea3565b9050919050565b60008115159050919050565b600073ffffffffffffffffffffffffffffffffffffffff82169050919050565b6000819050919050565b600060ff82169050919050565b82818337600083830152505050565b60005b83811015611f07578082015181840152602081019050611eec565b83811115611f16576000848401525b50505050565b60006002820490506001821680611f3457607f821691505b60208210811415611f4857611f47611fae565b5b50919050565b611f578261200c565b810181811067ffffffffffffffff82111715611f7657611f75611fdd565b5b80604052505050565b7f4e487b7100000000000000000000000000000000000000000000000000000000600052601160045260246000fd5b7f4e487b7100000000000000000000000000000000000000000000000000000000600052602260045260246000fd5b7f4e487b7100000000000000000000000000000000000000000000000000000000600052604160045260246000fd5b6000601f19601f8301169050919050565b7f45524332303a207472616e7366657220746f20746865207a65726f206164647260008201527f6573730000000000000000000000000000000000000000000000000000000000602082015250565b7f4f776e61626c653a206e6577206f776e657220697320746865207a65726f206160008201527f6464726573730000000000000000000000000000000000000000000000000000602082015250565b7f45524332303a20617070726f766520746f20746865207a65726f20616464726560008201527f7373000000000000000000000000000000000000000000000000000000000000602082015250565b7f45524332303a207472616e7366657220616d6f756e742065786365656473206260008201527f616c616e63650000000000000000000000000000000000000000000000000000602082015250565b7f496e697469616c697a61626c653a20636f6e747261637420697320616c72656160008201527f647920696e697469616c697a6564000000000000000000000000000000000000602082015250565b7f45524332303a207472616e7366657220616d6f756e742065786365656473206160008201527f6c6c6f77616e6365000000000000000000000000000000000000000000000000602082015250565b7f4f776e61626c653a2063616c6c6572206973206e6f7420746865206f776e6572600082015250565b7f45524332303a207472616e736665722066726f6d20746865207a65726f20616460008201527f6472657373000000000000000000000000000000000000000000000000000000602082015250565b7f45524332303a20617070726f76652066726f6d20746865207a65726f2061646460008201527f7265737300000000000000000000000000000000000000000000000000000000602082015250565b7f45524332303a2064656372656173656420616c6c6f77616e63652062656c6f7760008201527f207a65726f000000000000000000000000000000000000000000000000000000602082015250565b7f45524332303a206d696e7420746f20746865207a65726f206164647265737300600082015250565b61233f81611e85565b811461234a57600080fd5b50565b61235681611ec3565b811461236157600080fd5b5056fea26469706673582212206e6684151235d5dbb6ec2ed04ce6f289306191dae6d0064f2e379b356036b11164736f6c63430008030033",
  "linkReferences": {},
  "deployedLinkReferences": {}
}