{
  "_format": "hh-sol-artifact-1",
  "contractName": "GravityTokenV6",
  "sourceName": "contracts/GravityTokenV6.sol",
  "abi": [
    {
      "anonymous": false,
      "inputs": [
        {
          "indexed": true,
          "internalType": "address",
          "name": "owner",
          "type": "address"
        },
        {
          "indexed": true,
          "internalType": "address",
          "name": "spender",
          "type": "address"
        },
        {
          "indexed": false,
          "internalType": "uint256",
          "name": "value",
          "type": "uint256"
        }
      ],
      "name": "Approval",
      "type": "event"
    },
    {
      "anonymous": false,
      "inputs": [
        {
          "indexed": true,
          "internalType": "address",
          "name": "previousOwner",
          "type": "address"
        },
        {
          "indexed": true,
          "internalType": "address",
          "name": "newOwner",
          "type": "address"
        }
      ],
      "name": "OwnershipTransferred",
      "type": "event"
    },
    {
      "anonymous": false,
      "inputs": [
        {
          "indexed": true,
          "internalType": "address",
          "name": "from",
          "type": "address"
        },
        {
          "indexed": true,
          "internalType": "address",
          "name": "to",
          "type": "address"
        },
        {
          "indexed": false,
          "internalType": "uint256",
          "name": "value",
          "type": "uint256"
        }
      ],
      "name": "Transfer",
      "type": "event"
    },
    {
      "inputs": [],
      "name": "_migrationV5",
      "outputs": [
        {
          "internalType": "bool",
          "name": "",
          "type": "bool"
        }
      ],
      "stateMutability": "view",
      "type": "function"
    },
    {
      "inputs": [],
      "name": "_migrationV6",
      "outputs": [
        {
          "internalType": "bool",
          "name": "",
          "type": "bool"
        }
      ],
      "stateMutability": "view",
      "type": "function"
    },
    {
      "inputs": [
        {
          "internalType": "address",
          "name": "owner",
          "type": "address"
        },
        {
          "internalType": "address",
          "name": "spender",
          "type": "address"
        }
      ],
      "name": "allowance",
      "outputs": [
        {
          "internalType": "uint256",
          "name": "",
          "type": "uint256"
        }
      ],
      "stateMutability": "view",
      "type": "function"
    },
    {
      "inputs": [
        {
          "internalType": "address",
          "name": "spender",
          "type": "address"
        },
        {
          "internalType": "uint256",
          "name": "amount",
          "type": "uint256"
        }
      ],
      "name": "approve",
      "outputs": [
        {
          "internalType": "bool",
          "name": "",
          "type": "bool"
        }
      ],
      "stateMutability": "nonpayable",
      "type": "function"
    },
    {
      "inputs": [
        {
          "internalType": "address",
          "name": "account",
          "type": "address"
        }
      ],
      "name": "balanceOf",
      "outputs": [
        {
          "internalType": "uint256",
          "name": "",
          "type": "uint256"
        }
      ],
      "stateMutability": "view",
      "type": "function"
    },
    {
      "inputs": [],
      "name": "decimals",
      "outputs": [
        {
          "internalType": "uint8",
          "name": "",
          "type": "uint8"
        }
      ],
      "stateMutability": "view",
      "type": "function"
    },
    {
      "inputs": [
        {
          "internalType": "address",
          "name": "spender",
          "type": "address"
        },
        {
          "internalType": "uint256",
          "name": "subtractedValue",
          "type": "uint256"
        }
      ],
      "name": "decreaseAllowance",
      "outputs": [
        {
          "internalType": "bool",
          "name": "",
          "type": "bool"
        }
      ],
      "stateMutability": "nonpayable",
      "type": "function"
    },
    {
      "inputs": [
        {
          "internalType": "address",
          "name": "",
          "type": "address"
        }
      ],
      "name": "feeLedger",
      "outputs": [
        {
          "internalType": "uint256",
          "name": "",
          "type": "uint256"
        }
      ],
      "stateMutability": "view",
      "type": "function"
    },
    {
      "inputs": [],
      "name": "getAddress",
      "outputs": [
        {
          "internalType": "address",
          "name": "",
          "type": "address"
        }
      ],
      "stateMutability": "view",
      "type": "function"
    },
    {
      "inputs": [],
      "name": "getFees",
      "outputs": [
        {
          "internalType": "uint256",
          "name": "",
          "type": "uint256"
        }
      ],
      "stateMutability": "view",
      "type": "function"
    },
    {
      "inputs": [],
      "name": "getNum",
      "outputs": [
        {
          "internalType": "uint256",
          "name": "",
          "type": "uint256"
        }
      ],
      "stateMutability": "view",
      "type": "function"
    },
    {
      "inputs": [
        {
          "internalType": "address",
          "name": "spender",
          "type": "address"
        },
        {
          "internalType": "uint256",
          "name": "addedValue",
          "type": "uint256"
        }
      ],
      "name": "increaseAllowance",
      "outputs": [
        {
          "internalType": "bool",
          "name": "",
          "type": "bool"
        }
      ],
      "stateMutability": "nonpayable",
      "type": "function"
    },
    {
      "inputs": [
        {
          "internalType": "string",
          "name": "name",
          "type": "string"
        },
        {
          "internalType": "string",
          "name": "symbol",
          "type": "string"
        },
        {
          "internalType": "uint256",
          "name": "initialSupply",
          "type": "uint256"
        }
      ],
      "name": "initialize",
      "outputs": [],
      "stateMutability": "nonpayable",
      "type": "function"
    },
    {
      "inputs": [],
      "name": "migrationV6",
      "outputs": [],
      "stateMutability": "nonpayable",
      "type": "function"
    },
    {
      "inputs": [
        {
          "internalType": "uint256",
          "name": "_amount",
          "type": "uint256"
        }
      ],
      "name": "mint",
      "outputs": [],
      "stateMutability": "nonpayable",
      "type": "function"
    },
    {
      "inputs": [],
      "name": "myNum",
      "outputs": [
        {
          "internalType": "uint256",
          "name": "",
          "type": "uint256"
        }
      ],
      "stateMutability": "view",
      "type": "function"
    },
    {
      "inputs": [],
      "name": "name",
      "outputs": [
        {
          "internalType": "string",
          "name": "",
          "type": "string"
        }
      ],
      "stateMutability": "view",
      "type": "function"
    },
    {
      "inputs": [],
      "name": "owner",
      "outputs": [
        {
          "internalType": "address",
          "name": "",
          "type": "address"
        }
      ],
      "stateMutability": "view",
      "type": "function"
    },
    {
      "inputs": [],
      "name": "renounceOwnership",
      "outputs": [],
      "stateMutability": "nonpayable",
      "type": "function"
    },
    {
      "inputs": [
        {
          "internalType": "address",
          "name": "_address",
          "type": "address"
        },
        {
          "internalType": "uint256",
          "name": "_amount",
          "type": "uint256"
        }
      ],
      "name": "sendContractTokens",
      "outputs": [],
      "stateMutability": "nonpayable",
      "type": "function"
    },
    {
      "inputs": [],
      "name": "symbol",
      "outputs": [
        {
          "internalType": "string",
          "name": "",
          "type": "string"
        }
      ],
      "stateMutability": "view",
      "type": "function"
    },
    {
      "inputs": [],
      "name": "totalSupply",
      "outputs": [
        {
          "internalType": "uint256",
          "name": "",
          "type": "uint256"
        }
      ],
      "stateMutability": "view",
      "type": "function"
    },
    {
      "inputs": [
        {
          "internalType": "address",
          "name": "recipient",
          "type": "address"
        },
        {
          "internalType": "uint256",
          "name": "amount",
          "type": "uint256"
        }
      ],
      "name": "transfer",
      "outputs": [
        {
          "internalType": "bool",
          "name": "",
          "type": "bool"
        }
      ],
      "stateMutability": "nonpayable",
      "type": "function"
    },
    {
      "inputs": [
        {
          "internalType": "address",
          "name": "sender",
          "type": "address"
        },
        {
          "internalType": "address",
          "name": "recipient",
          "type": "address"
        },
        {
          "internalType": "uint256",
          "name": "amount",
          "type": "uint256"
        }
      ],
      "name": "transferFrom",
      "outputs": [
        {
          "internalType": "bool",
          "name": "",
          "type": "bool"
        }
      ],
      "stateMutability": "nonpayable",
      "type": "function"
    },
    {
      "inputs": [
        {
          "internalType": "address",
          "name": "newOwner",
          "type": "address"
        }
      ],
      "name": "transferOwnership",
      "outputs": [],
      "stateMutability": "nonpayable",
      "type": "function"
    }
  ],
  "bytecode": "0x608060405234801561001057600080fd5b506128c2806100206000396000f3fe608060405234801561001057600080fd5b50600436106101735760003560e01c80637e2f33ea116100de578063ad3b4bf711610097578063db8d55f111610071578063db8d55f114610452578063dd62ed3e14610470578063f2fde38b146104a0578063f9fd5eb6146104bc57610173565b8063ad3b4bf7146103e8578063b119490e14610418578063d4da005a1461043457610173565b80637e2f33ea146103125780638da5cb5b1461033057806395d89b411461034e578063a0712d681461036c578063a457c2d714610388578063a9059cbb146103b857610173565b806338cc48311161013057806338cc48311461024e578063395093511461026c57806351172f2e1461029c57806367e0badb146102ba57806370a08231146102d8578063715018a61461030857610173565b806306fdde0314610178578063095ea7b31461019657806318160ddd146101c65780631b5cf406146101e457806323b872dd14610200578063313ce56714610230575b600080fd5b6101806104c6565b60405161018d91906120b0565b60405180910390f35b6101b060048036038101906101ab9190611d7d565b610558565b6040516101bd9190612095565b60405180910390f35b6101ce610576565b6040516101db9190612252565b60405180910390f35b6101fe60048036038101906101f99190611d7d565b610580565b005b61021a60048036038101906102159190611d2e565b61060b565b6040516102279190612095565b60405180910390f35b61023861070c565b604051610245919061226d565b60405180910390f35b610256610715565b604051610263919061207a565b60405180910390f35b61028660048036038101906102819190611d7d565b61071d565b6040516102939190612095565b60405180910390f35b6102a46107c9565b6040516102b19190612095565b60405180910390f35b6102c26107dc565b6040516102cf9190612252565b60405180910390f35b6102f260048036038101906102ed9190611cc9565b6107e6565b6040516102ff9190612252565b60405180910390f35b61031061082f565b005b61031a61096c565b6040516103279190612095565b60405180910390f35b61033861097f565b604051610345919061207a565b60405180910390f35b6103566109a9565b60405161036391906120b0565b60405180910390f35b61038660048036038101906103819190611e38565b610a3b565b005b6103a2600480360381019061039d9190611d7d565b610acb565b6040516103af9190612095565b60405180910390f35b6103d260048036038101906103cd9190611d7d565b610bbf565b6040516103df9190612095565b60405180910390f35b61040260048036038101906103fd9190611cc9565b610c22565b60405161040f9190612252565b60405180910390f35b610432600480360381019061042d9190611db9565b610c3a565b005b61043c610d39565b6040516104499190612252565b60405180910390f35b61045a610d3f565b6040516104679190612252565b60405180910390f35b61048a60048036038101906104859190611cf2565b610d86565b6040516104979190612252565b60405180910390f35b6104ba60048036038101906104b59190611cc9565b610e0d565b005b6104c4610fb9565b005b6060603680546104d59061241b565b80601f01602080910402602001604051908101604052809291908181526020018280546105019061241b565b801561054e5780601f106105235761010080835404028352916020019161054e565b820191906000526020600020905b81548152906001019060200180831161053157829003601f168201915b5050505050905090565b600061056c6105656110ab565b84846110b3565b6001905092915050565b6000603554905090565b6105886110ab565b73ffffffffffffffffffffffffffffffffffffffff166105a661097f565b73ffffffffffffffffffffffffffffffffffffffff16146105fc576040517f08c379a00000000000000000000000000000000000000000000000000000000081526004016105f3906121b2565b60405180910390fd5b6106068282610bbf565b505050565b600061061884848461127e565b6000603460008673ffffffffffffffffffffffffffffffffffffffff1673ffffffffffffffffffffffffffffffffffffffff16815260200190815260200160002060006106636110ab565b73ffffffffffffffffffffffffffffffffffffffff1673ffffffffffffffffffffffffffffffffffffffff168152602001908152602001600020549050828110156106e3576040517f08c379a00000000000000000000000000000000000000000000000000000000081526004016106da90612192565b60405180910390fd5b610700856106ef6110ab565b85846106fb9190612350565b6110b3565b60019150509392505050565b60006012905090565b600030905090565b60006107bf61072a6110ab565b8484603460006107386110ab565b73ffffffffffffffffffffffffffffffffffffffff1673ffffffffffffffffffffffffffffffffffffffff16815260200190815260200160002060008873ffffffffffffffffffffffffffffffffffffffff1673ffffffffffffffffffffffffffffffffffffffff168152602001908152602001600020546107ba91906122fa565b6110b3565b6001905092915050565b609960019054906101000a900460ff1681565b6000609854905090565b6000603360008373ffffffffffffffffffffffffffffffffffffffff1673ffffffffffffffffffffffffffffffffffffffff168152602001908152602001600020549050919050565b6108376110ab565b73ffffffffffffffffffffffffffffffffffffffff1661085561097f565b73ffffffffffffffffffffffffffffffffffffffff16146108ab576040517f08c379a00000000000000000000000000000000000000000000000000000000081526004016108a2906121b2565b60405180910390fd5b600073ffffffffffffffffffffffffffffffffffffffff16606560009054906101000a900473ffffffffffffffffffffffffffffffffffffffff1673ffffffffffffffffffffffffffffffffffffffff167f8be0079c531659141344cd1fd0a4f28419497f9722a3daafe3b4186f6b6457e060405160405180910390a36000606560006101000a81548173ffffffffffffffffffffffffffffffffffffffff021916908373ffffffffffffffffffffffffffffffffffffffff160217905550565b609960009054906101000a900460ff1681565b6000606560009054906101000a900473ffffffffffffffffffffffffffffffffffffffff16905090565b6060603780546109b89061241b565b80601f01602080910402602001604051908101604052809291908181526020018280546109e49061241b565b8015610a315780601f10610a0657610100808354040283529160200191610a31565b820191906000526020600020905b815481529060010190602001808311610a1457829003601f168201915b5050505050905090565b610a436110ab565b73ffffffffffffffffffffffffffffffffffffffff16610a6161097f565b73ffffffffffffffffffffffffffffffffffffffff1614610ab7576040517f08c379a0000000000000000000000000000000000000000000000000000000008152600401610aae906121b2565b60405180910390fd5b610ac8610ac26110ab565b82611500565b50565b60008060346000610ada6110ab565b73ffffffffffffffffffffffffffffffffffffffff1673ffffffffffffffffffffffffffffffffffffffff16815260200190815260200160002060008573ffffffffffffffffffffffffffffffffffffffff1673ffffffffffffffffffffffffffffffffffffffff16815260200190815260200160002054905082811015610b97576040517f08c379a0000000000000000000000000000000000000000000000000000000008152600401610b8e90612212565b60405180910390fd5b610bb4610ba26110ab565b858584610baf9190612350565b6110b3565b600191505092915050565b60006064609760003373ffffffffffffffffffffffffffffffffffffffff1673ffffffffffffffffffffffffffffffffffffffff16815260200190815260200160002081905550610c18610c116110ab565b848461127e565b6001905092915050565b60976020528060005260406000206000915090505481565b600060019054906101000a900460ff1680610c60575060008054906101000a900460ff16155b610c9f576040517f08c379a0000000000000000000000000000000000000000000000000000000008152600401610c9690612172565b60405180910390fd5b60008060019054906101000a900460ff161590508015610cef576001600060016101000a81548160ff02191690831515021790555060016000806101000a81548160ff0219169083151502179055505b610cf98484611655565b610d0a610d046110ab565b83611500565b610d12611742565b8015610d335760008060016101000a81548160ff0219169083151502179055505b50505050565b60985481565b6000609760003373ffffffffffffffffffffffffffffffffffffffff1673ffffffffffffffffffffffffffffffffffffffff16815260200190815260200160002054905090565b6000603460008473ffffffffffffffffffffffffffffffffffffffff1673ffffffffffffffffffffffffffffffffffffffff16815260200190815260200160002060008373ffffffffffffffffffffffffffffffffffffffff1673ffffffffffffffffffffffffffffffffffffffff16815260200190815260200160002054905092915050565b610e156110ab565b73ffffffffffffffffffffffffffffffffffffffff16610e3361097f565b73ffffffffffffffffffffffffffffffffffffffff1614610e89576040517f08c379a0000000000000000000000000000000000000000000000000000000008152600401610e80906121b2565b60405180910390fd5b600073ffffffffffffffffffffffffffffffffffffffff168173ffffffffffffffffffffffffffffffffffffffff161415610ef9576040517f08c379a0000000000000000000000000000000000000000000000000000000008152600401610ef0906120f2565b60405180910390fd5b8073ffffffffffffffffffffffffffffffffffffffff16606560009054906101000a900473ffffffffffffffffffffffffffffffffffffffff1673ffffffffffffffffffffffffffffffffffffffff167f8be0079c531659141344cd1fd0a4f28419497f9722a3daafe3b4186f6b6457e060405160405180910390a380606560006101000a81548173ffffffffffffffffffffffffffffffffffffffff021916908373ffffffffffffffffffffffffffffffffffffffff16021790555050565b610fc16110ab565b73ffffffffffffffffffffffffffffffffffffffff16610fdf61097f565b73ffffffffffffffffffffffffffffffffffffffff1614611035576040517f08c379a000000000000000000000000000000000000000000000000000000000815260040161102c906121b2565b60405180910390fd5b609960019054906101000a900460ff1615611085576040517f08c379a000000000000000000000000000000000000000000000000000000000815260040161107c90612132565b60405180910390fd5b6001609960016101000a81548160ff021916908315150217905550614571609881905550565b600033905090565b600073ffffffffffffffffffffffffffffffffffffffff168373ffffffffffffffffffffffffffffffffffffffff161415611123576040517f08c379a000000000000000000000000000000000000000000000000000000000815260040161111a906121f2565b60405180910390fd5b600073ffffffffffffffffffffffffffffffffffffffff168273ffffffffffffffffffffffffffffffffffffffff161415611193576040517f08c379a000000000000000000000000000000000000000000000000000000000815260040161118a90612112565b60405180910390fd5b80603460008573ffffffffffffffffffffffffffffffffffffffff1673ffffffffffffffffffffffffffffffffffffffff16815260200190815260200160002060008473ffffffffffffffffffffffffffffffffffffffff1673ffffffffffffffffffffffffffffffffffffffff168152602001908152602001600020819055508173ffffffffffffffffffffffffffffffffffffffff168373ffffffffffffffffffffffffffffffffffffffff167f8c5be1e5ebec7d5bd14f71427d1e84f3dd0314c0f7b2291e5b200ac8c7c3b925836040516112719190612252565b60405180910390a3505050565b600073ffffffffffffffffffffffffffffffffffffffff168373ffffffffffffffffffffffffffffffffffffffff1614156112ee576040517f08c379a00000000000000000000000000000000000000000000000000000000081526004016112e5906121d2565b60405180910390fd5b600073ffffffffffffffffffffffffffffffffffffffff168273ffffffffffffffffffffffffffffffffffffffff16141561135e576040517f08c379a0000000000000000000000000000000000000000000000000000000008152600401611355906120d2565b60405180910390fd5b61136983838361182b565b6000603360008573ffffffffffffffffffffffffffffffffffffffff1673ffffffffffffffffffffffffffffffffffffffff168152602001908152602001600020549050818110156113f0576040517f08c379a00000000000000000000000000000000000000000000000000000000081526004016113e790612152565b60405180910390fd5b81816113fc9190612350565b603360008673ffffffffffffffffffffffffffffffffffffffff1673ffffffffffffffffffffffffffffffffffffffff1681526020019081526020016000208190555081603360008573ffffffffffffffffffffffffffffffffffffffff1673ffffffffffffffffffffffffffffffffffffffff168152602001908152602001600020600082825461148e91906122fa565b925050819055508273ffffffffffffffffffffffffffffffffffffffff168473ffffffffffffffffffffffffffffffffffffffff167fddf252ad1be2c89b69c2b068fc378daa952ba7f163c4a11628f55a4df523b3ef846040516114f29190612252565b60405180910390a350505050565b600073ffffffffffffffffffffffffffffffffffffffff168273ffffffffffffffffffffffffffffffffffffffff161415611570576040517f08c379a000000000000000000000000000000000000000000000000000000000815260040161156790612232565b60405180910390fd5b61157c6000838361182b565b806035600082825461158e91906122fa565b9250508190555080603360008473ffffffffffffffffffffffffffffffffffffffff1673ffffffffffffffffffffffffffffffffffffffff16815260200190815260200160002060008282546115e491906122fa565b925050819055508173ffffffffffffffffffffffffffffffffffffffff16600073ffffffffffffffffffffffffffffffffffffffff167fddf252ad1be2c89b69c2b068fc378daa952ba7f163c4a11628f55a4df523b3ef836040516116499190612252565b60405180910390a35050565b600060019054906101000a900460ff168061167b575060008054906101000a900460ff16155b6116ba576040517f08c379a00000000000000000000000000000000000000000000000000000000081526004016116b190612172565b60405180910390fd5b60008060019054906101000a900460ff16159050801561170a576001600060016101000a81548160ff02191690831515021790555060016000806101000a81548160ff0219169083151502179055505b611712611830565b61171c8383611909565b801561173d5760008060016101000a81548160ff0219169083151502179055505b505050565b600060019054906101000a900460ff1680611768575060008054906101000a900460ff16155b6117a7576040517f08c379a000000000000000000000000000000000000000000000000000000000815260040161179e90612172565b60405180910390fd5b60008060019054906101000a900460ff1615905080156117f7576001600060016101000a81548160ff02191690831515021790555060016000806101000a81548160ff0219169083151502179055505b6117ff611830565b611807611a12565b80156118285760008060016101000a81548160ff0219169083151502179055505b50565b505050565b600060019054906101000a900460ff1680611856575060008054906101000a900460ff16155b611895576040517f08c379a000000000000000000000000000000000000000000000000000000000815260040161188c90612172565b60405180910390fd5b60008060019054906101000a900460ff1615905080156118e5576001600060016101000a81548160ff02191690831515021790555060016000806101000a81548160ff0219169083151502179055505b80156119065760008060016101000a81548160ff0219169083151502179055505b50565b600060019054906101000a900460ff168061192f575060008054906101000a900460ff16155b61196e576040517f08c379a000000000000000000000000000000000000000000000000000000000815260040161196590612172565b60405180910390fd5b60008060019054906101000a900460ff1615905080156119be576001600060016101000a81548160ff02191690831515021790555060016000806101000a81548160ff0219169083151502179055505b82603690805190602001906119d4929190611b94565b5081603790805190602001906119eb929190611b94565b508015611a0d5760008060016101000a81548160ff0219169083151502179055505b505050565b600060019054906101000a900460ff1680611a38575060008054906101000a900460ff16155b611a77576040517f08c379a0000000000000000000000000000000000000000000000000000000008152600401611a6e90612172565b60405180910390fd5b60008060019054906101000a900460ff161590508015611ac7576001600060016101000a81548160ff02191690831515021790555060016000806101000a81548160ff0219169083151502179055505b6000611ad16110ab565b905080606560006101000a81548173ffffffffffffffffffffffffffffffffffffffff021916908373ffffffffffffffffffffffffffffffffffffffff1602179055508073ffffffffffffffffffffffffffffffffffffffff16600073ffffffffffffffffffffffffffffffffffffffff167f8be0079c531659141344cd1fd0a4f28419497f9722a3daafe3b4186f6b6457e060405160405180910390a3508015611b915760008060016101000a81548160ff0219169083151502179055505b50565b828054611ba09061241b565b90600052602060002090601f016020900481019282611bc25760008555611c09565b82601f10611bdb57805160ff1916838001178555611c09565b82800160010185558215611c09579182015b82811115611c08578251825591602001919060010190611bed565b5b509050611c169190611c1a565b5090565b5b80821115611c33576000816000905550600101611c1b565b5090565b6000611c4a611c45846122ad565b612288565b905082815260208101848484011115611c6257600080fd5b611c6d8482856123d9565b509392505050565b600081359050611c848161285e565b92915050565b600082601f830112611c9b57600080fd5b8135611cab848260208601611c37565b91505092915050565b600081359050611cc381612875565b92915050565b600060208284031215611cdb57600080fd5b6000611ce984828501611c75565b91505092915050565b60008060408385031215611d0557600080fd5b6000611d1385828601611c75565b9250506020611d2485828601611c75565b9150509250929050565b600080600060608486031215611d4357600080fd5b6000611d5186828701611c75565b9350506020611d6286828701611c75565b9250506040611d7386828701611cb4565b9150509250925092565b60008060408385031215611d9057600080fd5b6000611d9e85828601611c75565b9250506020611daf85828601611cb4565b9150509250929050565b600080600060608486031215611dce57600080fd5b600084013567ffffffffffffffff811115611de857600080fd5b611df486828701611c8a565b935050602084013567ffffffffffffffff811115611e1157600080fd5b611e1d86828701611c8a565b9250506040611e2e86828701611cb4565b9150509250925092565b600060208284031215611e4a57600080fd5b6000611e5884828501611cb4565b91505092915050565b611e6a81612384565b82525050565b611e7981612396565b82525050565b6000611e8a826122de565b611e9481856122e9565b9350611ea48185602086016123e8565b611ead8161250b565b840191505092915050565b6000611ec56023836122e9565b9150611ed08261251c565b604082019050919050565b6000611ee86026836122e9565b9150611ef38261256b565b604082019050919050565b6000611f0b6022836122e9565b9150611f16826125ba565b604082019050919050565b6000611f2e601e836122e9565b9150611f3982612609565b602082019050919050565b6000611f516026836122e9565b9150611f5c82612632565b604082019050919050565b6000611f74602e836122e9565b9150611f7f82612681565b604082019050919050565b6000611f976028836122e9565b9150611fa2826126d0565b604082019050919050565b6000611fba6020836122e9565b9150611fc58261271f565b602082019050919050565b6000611fdd6025836122e9565b9150611fe882612748565b604082019050919050565b60006120006024836122e9565b915061200b82612797565b604082019050919050565b60006120236025836122e9565b915061202e826127e6565b604082019050919050565b6000612046601f836122e9565b915061205182612835565b602082019050919050565b612065816123c2565b82525050565b612074816123cc565b82525050565b600060208201905061208f6000830184611e61565b92915050565b60006020820190506120aa6000830184611e70565b92915050565b600060208201905081810360008301526120ca8184611e7f565b905092915050565b600060208201905081810360008301526120eb81611eb8565b9050919050565b6000602082019050818103600083015261210b81611edb565b9050919050565b6000602082019050818103600083015261212b81611efe565b9050919050565b6000602082019050818103600083015261214b81611f21565b9050919050565b6000602082019050818103600083015261216b81611f44565b9050919050565b6000602082019050818103600083015261218b81611f67565b9050919050565b600060208201905081810360008301526121ab81611f8a565b9050919050565b600060208201905081810360008301526121cb81611fad565b9050919050565b600060208201905081810360008301526121eb81611fd0565b9050919050565b6000602082019050818103600083015261220b81611ff3565b9050919050565b6000602082019050818103600083015261222b81612016565b9050919050565b6000602082019050818103600083015261224b81612039565b9050919050565b6000602082019050612267600083018461205c565b92915050565b6000602082019050612282600083018461206b565b92915050565b60006122926122a3565b905061229e828261244d565b919050565b6000604051905090565b600067ffffffffffffffff8211156122c8576122c76124dc565b5b6122d18261250b565b9050602081019050919050565b600081519050919050565b600082825260208201905092915050565b6000612305826123c2565b9150612310836123c2565b9250827fffffffffffffffffffffffffffffffffffffffffffffffffffffffffffffffff038211156123455761234461247e565b5b828201905092915050565b600061235b826123c2565b9150612366836123c2565b9250828210156123795761237861247e565b5b828203905092915050565b600061238f826123a2565b9050919050565b60008115159050919050565b600073ffffffffffffffffffffffffffffffffffffffff82169050919050565b6000819050919050565b600060ff82169050919050565b82818337600083830152505050565b60005b838110156124065780820151818401526020810190506123eb565b83811115612415576000848401525b50505050565b6000600282049050600182168061243357607f821691505b60208210811415612447576124466124ad565b5b50919050565b6124568261250b565b810181811067ffffffffffffffff82111715612475576124746124dc565b5b80604052505050565b7f4e487b7100000000000000000000000000000000000000000000000000000000600052601160045260246000fd5b7f4e487b7100000000000000000000000000000000000000000000000000000000600052602260045260246000fd5b7f4e487b7100000000000000000000000000000000000000000000000000000000600052604160045260246000fd5b6000601f19601f8301169050919050565b7f45524332303a207472616e7366657220746f20746865207a65726f206164647260008201527f6573730000000000000000000000000000000000000000000000000000000000602082015250565b7f4f776e61626c653a206e6577206f776e657220697320746865207a65726f206160008201527f6464726573730000000000000000000000000000000000000000000000000000602082015250565b7f45524332303a20617070726f766520746f20746865207a65726f20616464726560008201527f7373000000000000000000000000000000000000000000000000000000000000602082015250565b7f4d6967726174696f6e2056353a20416c7265616479204d696772617465640000600082015250565b7f45524332303a207472616e7366657220616d6f756e742065786365656473206260008201527f616c616e63650000000000000000000000000000000000000000000000000000602082015250565b7f496e697469616c697a61626c653a20636f6e747261637420697320616c72656160008201527f647920696e697469616c697a6564000000000000000000000000000000000000602082015250565b7f45524332303a207472616e7366657220616d6f756e742065786365656473206160008201527f6c6c6f77616e6365000000000000000000000000000000000000000000000000602082015250565b7f4f776e61626c653a2063616c6c6572206973206e6f7420746865206f776e6572600082015250565b7f45524332303a207472616e736665722066726f6d20746865207a65726f20616460008201527f6472657373000000000000000000000000000000000000000000000000000000602082015250565b7f45524332303a20617070726f76652066726f6d20746865207a65726f2061646460008201527f7265737300000000000000000000000000000000000000000000000000000000602082015250565b7f45524332303a2064656372656173656420616c6c6f77616e63652062656c6f7760008201527f207a65726f000000000000000000000000000000000000000000000000000000602082015250565b7f45524332303a206d696e7420746f20746865207a65726f206164647265737300600082015250565b61286781612384565b811461287257600080fd5b50565b61287e816123c2565b811461288957600080fd5b5056fea264697066735822122067e98caf0320d500e88cb5fbe12372bfc35432bf8c89a38b92bf833920b5969464736f6c63430008030033",
  "linkReferences": {},
  "deployedLinkReferences": {}
}